:100000000C941C0B0C94470B0C94470B0C94470B53
:100010000C94470B0C94470B0C94470B0C94470B18
:100020000C94470B0C94470B0C9475A50C94EEA301
:100030000C94470B0C94470B0C94470B0C94470BF8
:100040000C94470B0C94D58D0C94470B0C94470BD8
:100050000C94470B0C94470B0C94AD960C94B1A2E6
:100060000C94470B0C94470B0C94470B0C94470BC8
:100070000C94470B0C94470B0C94470B0C94470BB8
:100080000C94470B0C94470B0C94470B0C94470BA8
:100090000C94470B0C94470B084AD73B3BCE016EA0
:1000A00084BCBFFDC12F3D6C74319ABD56833DDACF
:1000B0003D00C77F11BED9E4BB4C3E916BAAAABEDE
:1000C000000000803F05A84CCDB2D44EB93836A907
:1000D000020C50B9918688083CA6AAAA2ABE000044
:1000E00000803F6563686F3A0043616E6E6F7420F5
:1000F000656E746572207375626469723A00457248
:10010000726F723A006572726F72207772697469E9
:100110006E6720746F2066696C65004E6F742053A3
:1001200044207072696E74696E67002F005344201A
:100130007072696E74696E67206279746520002E32
:100140000044656C6574696F6E206661696C6564F6
:100150002C2046696C653A200046696C6520646510
:100160006C657465643A002E006F70656E20666180
:10017000696C65642C2046696C653A200057726989
:1001800074696E6720746F2066696C653A20002E72
:10019000006F70656E206661696C65642C2046692D
:1001A0006C653A20002E006F70656E206661696C88
:1001B00065642C2046696C653A200046696C6520B0
:1001C00073656C6563746564002053697A653A00F1
:1001D00046696C65206F70656E65643A002E006F2D
:1001E00070656E206661696C65642C2046696C657B
:1001F0003A2000776F726B446972206F70656E20D1
:100200006661696C656400776F726B446972206F18
:1002100070656E206661696C65640053442063619B
:100220007264206F6B006F70656E526F6F74206622
:1002300061696C656400766F6C756D652E696E69B9
:1002400074206661696C656400534420696E69744A
:10025000206661696C004572726F723A00536F6D6F
:10026000657468696E672069732077726F6E6720A6
:10027000696E20746865204D656E75537472756380
:10028000747572652E002043617264204D656E7531
:10029000202020207E002053746F70205072696EE1
:1002A000742020207E0020436F6E74726F6C207E5D
:1002B000002054756E65202020207E00205072653D
:1002C00070617265207E0020576174636820202071
:1002D00003002000045265667265736800204D615A
:1002E000696E20030020526573746F726520466149
:1002F000696C7361666500204C6F616420455052E3
:100300004F4D002053746F7265204550524F4D0081
:10031000204D6F74696F6E2020202020207E0020E9
:1003200054656D7065726174757265207E00204D34
:1003300061696E2020202020202020030065636852
:100340006F3A0053657474696E67732053746F72EB
:1003500065640053746F7265642073657474696EAC
:100360006773207265747265697665643A0020442B
:10037000002049002020204D3330312050005049CA
:10038000442073657474696E67733A0020450020D9
:100390005A0020580020420020540020204D3230C6
:1003A00035205300416476616E6365642076617226
:1003B0006961626C65733A20533D4D696E206665D4
:1003C00065647261746520286D6D2F73292C20542B
:1003D0003D4D696E2074726176656C20666565645A
:1003E0007261746520286D6D2F73292C20423D6D3C
:1003F000696E696D756D207365676D656E742074C7
:10040000696D6520286D73292C20583D6D617869D0
:100410006D756D207859206A65726B20286D6D2F7F
:1004200073292C20205A3D6D6178696D756D205AB5
:10043000206A65726B20286D6D2F7329002054008F
:1004400020204D323034205300416363656C657267
:100450006174696F6E3A20533D616363656C6572C8
:100460006174696F6E2C20543D726574726163749F
:1004700020616363656C65726174696F6E0020450D
:1004800000205A0020590020204D323031205800E1
:100490004D6178696D756D20416363656C6572614E
:1004A00074696F6E20286D6D2F7332293A002045D4
:1004B00000205A0020590020204D323033205800AF
:1004C0004D6178696D756D206665656472617465EE
:1004D0007320286D6D2F73293A00204500205A00A3
:1004E00020590020204D3932205800537465707314
:1004F0002070657220756E69743A002045737465CA
:1005000070732F6D6D3A00205A73746570732F6D80
:100510006D3A00205973746570732F6D6D3A002029
:100520005873746570732F6D6D3A00303000303041
:100530000020412D726574726163743A003030009E
:10054000303000653A007A3A00793A00783A002073
:10055000416D61782000205654726176206D696E7D
:100560003A0020566D696E3A00653A007A3A007991
:100570003A00783A0020566D61782000205678794C
:100580002D6A65726B3A2000303000303000204117
:1005900063633A0020436F6E74726F6C2003002017
:1005A0005049442D433A2000205049442D443A20DC
:1005B00000205049442D493A2000205049442D50F4
:1005C0003A20002046616E2073706565643A002011
:1005D000024265643A0020024E6F7A7A6C653A00F6
:1005E00020436F6E74726F6C20030020466C6F772F
:1005F0003A002046616E2073706565643A002002FF
:100600004265643A0020024E6F7A7A6C653A0020A7
:1006100053706565643A00204D61696E20030020C7
:100620004578747275646500205A3A0020593A0082
:1006300020583A00205072657061726520030020D6
:100640004D6F766520417869732020202020207E20
:100650000020436F6F6C646F776E00205072656886
:100660006561742041425300205072656865617471
:1006700020504C410020536574204F726967696EA9
:1006800000204175746F20486F6D650020446973C8
:1006900061626C65205374657070657273002041EF
:1006A00075746F737461727400204D61696E2003FC
:1006B00000255344002520005A3A006D00682000B0
:1006C000422D2D2D2F2D2D2D012000022D2D2D2FD2
:1006D0002D2D2D0120005072696E746572205265B7
:1006E0006164792E004B494C4C45442E20005072D9
:1006F000696E7465722068616C7465642E206B6924
:100700006C6C28292063616C6C6564202121006F6A
:100710006B00526573656E643A002200556E6B6E15
:100720006F776E20636F6D6D616E643A22007A5F41
:100730006D696E3A00795F6D696E3A00785F6D6938
:100740006E3A005A3A00593A0020436F756E742091
:10075000583A00453A005A3A00593A00583A004689
:1007600049524D574152455F4E414D453A4D617298
:100770006C696E2056313B20537072696E746572DD
:100780002F6772626C206D617368757020666F727E
:100790002067656E36204649524D574152455F5598
:1007A000524C3A687474703A2F2F7777772E6D65B4
:1007B0006E64656C2D70617274732E636F6D205062
:1007C000524F544F434F4C5F56455253494F4E3A48
:1007D000312E30204D414348494E455F54595045D4
:1007E0003A4D656E64656C204558545255444552E7
:1007F0005F434F554E543A310A005061727469613B
:100800006C2052656C656173650042656420646F9D
:100810006E652E0020423A0020453A00543A0042CC
:1008200065642048656174696E672E00486561746F
:10083000696E6720646F6E652E0020573A00204570
:100840003A00543A0048656174696E672E2E2E0096
:1008500020403A0020423A006F6B20543A00456E27
:10086000642066696C65206C697374004265676911
:100870006E2066696C65206C697374004E6F206D24
:100880006F76652E004457454C4C2E2E2E00446F3B
:100890006E65207072696E74696E672066696C653A
:1008A000006F6B004E6F204C696E65204E756D6257
:1008B0006572207769746820636865636B73756D12
:1008C0002C204C617374204C696E653A004E6F2089
:1008D000436865636B73756D2077697468206C6914
:1008E0006E65206E756D6265722C204C617374208C
:1008F0004C696E653A00636865636B73756D206D56
:1009000069736D617463682C204C617374204C6949
:100910006E653A004C696E65204E756D6265722099
:100920006973206E6F74204C617374204C696E651E
:10093000204E756D6265722B312C204C61737420D2
:100940004C696E653A00446F6E6520736176696E1E
:10095000672066696C652E006F6B002020506C610B
:100960006E6E657242756666657242797465733A39
:1009700020002046726565204D656D6F72793A20C2
:100980000050785400207C20417574686F723A20C2
:1009900000323031332D30362D303300204C61732E
:1009A0007420557064617465643A2000312E302ED5
:1009B0003020524332004D61726C696E3A20002043
:1009C000536F667477617265205265736574002099
:1009D0005761746368646F672052657365740020A3
:1009E00042726F776E206F75742052657365740064
:1009F0002045787465726E616C2052657365740071
:100A0000506F7765725570007374617274002200C4
:100A1000656E717565696E672022006563686F3A5F
:100A20000020746F6F206C6F6E672065787472752C
:100A300073696F6E2070726576656E7465640020F0
:100A4000636F6C6420657874727573696F6E207063
:100A5000726576656E746564007C3C3E5E2B3D3F3E
:100A60002F5B5D3B2C2A225C0052656C65617365CF
:100A7000642E0024F404D9201BC40C5C0E9804C41A
:100A8000095F0265077101F405F900FB04B3004832
:100A9000048700C10369005803550003034500BEE5
:100AA000023A008402310053022A00290225000480
:100AB000022000E4011C00C8011900AF01170098D2
:100AC0000114008401130071011000610110005134
:100AD000010E0043010D0036010B002B010B00201D
:100AE000010B00150109000C01090003010800FBBE
:100AF000000800F3000800EB000700E4000600DE39
:100B0000000600D8000600D2000600CC000500C791
:100B1000000500C2000500BD000400B9000400B5D6
:100B2000000400B1000400AD000400A9000400A509
:100B3000000300A20003009F0004009B0003009834
:100B40000003009500020093000300900003008D55
:100B50000002008B0003008800020086000200846F
:100B6000000300810002007F0002007D0002007B84
:100B70000002007900020077000100760002007494
:100B800000020072000100710002006F0002006D9F
:100B90000001006C0002006A0001006900020067A9
:100BA00000010066000100650001006400020062AF
:100BB00000010061000100600001005F0002005DB3
:100BC0000001005C0001005B0001005A00010059B7
:100BD00000010058000100570001005600010055B7
:100BE00000010054000100530000005300010052B6
:100BF00000010051000100500001004F0001004EB3
:100C00000000004E0001004D0001004C0001004BAF
:100C10000000004B0001004A0001004900010048AB
:100C200000000048000100470001004600000046A7
:100C300000010045000000450001004400010043A0
:100C4000000000430001004200000042000100419A
:100C500000000041000100400001003F0000003F93
:100C60000001003E0000003E0001003D0000003D8C
:100C70000001003C0000003C0000003C0001003B83
:100C80000000003B0001003A0000003A000100397A
:100C90000000003900010038000000380000003872
:100CA0000001003700000037000100360000003668
:100CB000000000360001003500000035000000355E
:100CC0000001003400000034000000340001003353
:100CD0000000003300000033000100320000003249
:100CE000000000320001003100000031000000313E
:100CF0000001003000000030000000300001002F33
:100D00000000002F0000002F0000002F0001002E27
:100D10000000002E0000002E0001002D0000002D1C
:100D20000000002D0000002D0001002C0000002C10
:100D30000000002C0000002C0001002B0000002B04
:100D40000000002B0000002B0001002A0000002AF8
:100D50000000002A0000002A0001002900000029EC
:100D600000000029000000290000002900010028DF
:100D700000000028000000280000002800000028D3
:100D800000010027000000270000002700000027C6
:100D900000000027000100260000002600000026B9
:100DA00000000026000000260001002500000025AC
:100DB000000000250000002500000025000000259F
:100DC0000001002400000024000000240000002492
:100DD0000000002400010023000000230000002385
:100DE0000000002300000023000000230000002377
:100DF000000100220000002200000022000000226A
:100E0000000000220000002200010021000000215B
:100E1000000000210000002100000021000000214E
:100E20000000002100010020000000200000002040
:100E30000000002000000020000000200000002032
:100E4000000000200001001F0000001F0000001F24
:100E50000000001F0000001F0000001F0000001F16
:100E60000001001E0000001E0000001E0000001E09
:100E700000000024F4D43050C38E20C2A240178258
:100E80008B7011127A910D816CD90AA861E108C7A3
:100E9000586607615143061E4B5D05C145A7041AFC
:100EA000411104093D9803713931034036DB026575
:100EB000339102D4305402802E1D02632CEE017552
:100EC0002AC501B028A001102781018F2564012BBC
:100ED000244B01E0223401AC211F018D200D018043
:100EE0001FFC00841EED00971DDF00B81CD200E639
:100EF0001BC600201BBC00641AB200B219A8000A6D
:100F000019A0006A189900D117910040178B00B5FD
:100F100016840031167E00B31579003A157300C7A8
:100F2000146F0058146A00EE1366008813630025DE
:100F3000135E00C7125B006C12570015125400C1FB
:100F400011510070114F0021114B00D61049008D36
:100F50001047004610440002104200C00F400080BD
:100F60000F3E00420F3C00060F3B00CB0E380093B3
:100F70000E37005C0E3500270E3400F30D3200C131
:100F80000D3100900D3000600D2E00320D2D00054A
:100F90000D2C00D90C2B00AE0C2900850C29005C0F
:100FA0000C2700350C27000E0C2600E80B2400C48B
:100FB0000B2400A00B23007D0B23005A0B210039CA
:100FC0000B2100180B2000F80A1F00D90A1E00BBD5
:100FD0000A1E009D0A1D00800A1D00630A1C0047AE
:100FE0000A1B002C0A1B00110A1A00F7091A00DD5F
:100FF000091900C4091900AB091900920917007BEF
:10100000091800630917004C09160036091600205C
:101010000916000A091500F5081500E0081400CCAF
:10102000081400B8081400A4081400900813007DE8
:101030000812006B0813005808120046081200340A
:10104000081100230811001208110001081100F016
:10105000071000E0071000D0071000C0071000B014
:10106000070F00A107100091070E0083070F0074FF
:10107000070F0065070E0057070E0049070E003BDB
:10108000070D002E070E0020070D0013070D0006A8
:10109000070D00F9060C00ED060D00E0060C00D46B
:1010A000060C00C8060C00BC060C00B0060C00A420
:1010B000060B0099060C008D060B0082060B0077CC
:1010C000060B006C060B0061060A0057060B004C6D
:1010D000060A0042060A0038060A002E060A002404
:1010E000060A001A060A001006090007060A00FD93
:1010F000050900F4050900EB050900E2050900D91E
:10110000050900D0050900C7050900BE050900B59D
:10111000050800AD050800A50509009C0508009418
:101120000508008C050800840508007C050800748B
:101130000508006C050700650508005D05070056F9
:101140000508004E05070047050700400508003860
:10115000050700310507002A050700230507001CC5
:10116000050600160507000F050700080506000222
:10117000050700FB040600F5040700EE040600E87E
:10118000040600E2040700DB040600D5040600CFD5
:10119000040600C9040600C3040600BD040600B727
:1011A000040600B1040500AC040600A6040600A075
:1011B0000405009B04060095040500900406008ABF
:1011C00004050085040500800406007A0405007506
:1011D000040500700405006B040500660405006149
:1011E0000405005C04050057040500520405004D89
:1011F00004050048040500430405003E0404003AC9
:1012000004050035040500300404002C0405002703
:10121000040400230405001E0404001A040400163C
:10122000040500110404000D040400090405000471
:1012300004040000040400FC030400F8030400F4A8
:10124000030400F0030400EC030400E8030400E4DA
:10125000030400E0030400DC030400D8030400D40A
:10126000030400D0030400CC030400C8030300C53A
:101270000303006563686F3A00205A3A0020593A28
:101280000020583A00656E6473746F70732068694B
:10129000743A20004572726F723A0054656D706541
:1012A0007261747572652068656174656420626539
:1012B00064207377697463686564206F66662E20A6
:1012C0004D415854454D5020747269676765726589
:1012D00064202121003A204578747275646572207B
:1012E0007377697463686564206F66662E204D4964
:1012F0004E54454D5020747269676765726564206D
:1013000021003A204578747275646572207377699C
:101310007463686564206F66662E204D415854459D
:101320004D50207472696767657265642021007092
:10133000012C0190012701B0012201C0011D01F023
:101340000118011002130130020E01600209019020
:10135000020401C002FF000003FA004003F5008010
:1013600003F000D003EB002004E6007004E100E08D
:1013700004DC004005D700C005D2004006CD00D0F7
:1013800006C8008007C3003008BE00F008B900C0DE
:1013900009B400B00AAF00B00BAA00D00CA5000041
:1013A0000EA000500F9B00C010960050129100003C
:1013B000148C00C0158700B0178200B0197D00D0D2
:1013C0001B7800001E730040206E0090226900F020
:1013D00024640040275F0090295A00E02B5500103C
:1013E0002E500020304B0010324600E03341009078
:1013F000353C001037370070383200A0392D00B06E
:101400003A2800A03B2300603C1E00103D190090CC
:101410003D1400103E0F00703E0A00C03E05000063
:101420003F0000202D20496E76616C69642065784C
:10143000747275646572206E756D6265722021002C
:10144000202D20496E76616C696420657874727510
:10145000646572206E756D626572210020403A00ED
:101460006F6B20543A00504944204175746F747575
:101470006E65206661696C656420212C2054656D61
:10148000706572617475726520746F206869676831
:1014900000204B643A2000204B693A2000204B701A
:1014A0003A2000206D61783A2000206D696E3A2064
:1014B0000020643A200020626961733A200001290B
:1014C0000229042908291029202940298029012CD2
:1014D000022C012602260426082610262026402655
:1014E0008026402C802C0123022304230823102370
:1014F00020234023802301200220042008201020E4
:10150000202040208020102C202C012F022F042F7F
:10151000082F102F202F402F802F7EFE7EFD7EFB78
:101520007EF77EEF7EDF7EBF7E7F000100005E15CE
:10153000120002000070154300030000B3150401FF
:10154000030904B7151802030904D115160303098A
:1015500004E9150C0001C102018036018136120137
:10156000000202000020C0168304000101020301F2
:1015700009024300020100C0320904000001020216
:1015800001000524001001052401000104240206C5
:101590000524060001070582030800400904010034
:1015A000020A00000007050302400000070584024C
:1015B0004000000403090418035400650065006E30
:1015C00000730079006400750069006E006F000010
:1015D00000160355005300420020005300650072BE
:1015E00000690061006C0000000C03310032003320
:1015F00000340035000000494E46494E4954594ECA
:10160000414ECDCCCC3D0AD7233C17B7D13877CC4F
:101610002B329595E6241FB14F0A000020410000AF
:10162000C84200401C4620BCBE4CCA1B0E5AAEC568
:101630009D74FE4036A9F74011241FBECFEFD0E2C3
:10164000DEBFCDBF13E0A0E0B1E0EAE2FEE501E0DD
:101650000BBF02C007900D92A23DB107D9F71BBE88
:101660001EE0A2EDB3E001C01D92AD3EB107E1F76F
:1016700016E1C6E3D6E104C02297FE010E94BAAE8D
:10168000C233D107C9F70E94F4A50C9408AF0C949B
:101690000000A0E0B0E0EFE4FBE00C94D7AEEC017A
:1016A0005B016115710519F0FB0191838083F9904D
:1016B0008F2D90E00E94BEAE892BC9F7FDE2FF1688
:1016C00021F4F990EE24E39405C02BE2F21609F41C
:1016D000F990EE248E0101501040C80167EF75E1CA
:1016E00043E050E00E94D80D892B01F58E010E5F7A
:1016F0001F4FC8016AEF75E145E050E00E94D80D28
:10170000892B19F48E01095F1F4FA114B10419F040
:10171000F50111830083E0FC04C070E090E080E8F4
:1017200014C070E090E080E86FEF08C1C8016FEF6F
:1017300075E143E050E00E94D80D892B69F4A114B3
:10174000B10429F470E090E080EC6FE7F7C02296D6
:10175000F501D183C083F6CF8824992440E050E07E
:1017600060E070E0EF2DE053EA30A0F5F2E0EF2A00
:101770008E2D90E09C0128703070E2FE06C0232B75
:1017800079F50894811C911C2BC0232B19F0089427
:1017900081089108DB01CA0112E0880F991FAA1F76
:1017A000BB1F1A95D1F7480F591F6A1F7B1F440FA3
:1017B000551F661F771F4E0F511D611D711D483942
:1017C00029E9520729E9620729E1720748F084E014
:1017D000E82A06C0EE3F31F4E3FC39C098E0E92A7C
:1017E000F990C0CFE53311F0E53189F529912D321B
:1017F00019F4E0E1EE2A05C02B3219F081E090E007
:1018000003C0299182E090E0E22FE053EA3018F023
:10181000C81BD90B1CC020E030E0FCE020383F079B
:101820005CF4C901880F991F880F991F280F391F71
:10183000220F331F2E0F311DE991E053EA3068F378
:10184000E4FE03C0309521953F4F820E931ECE2CAF
:10185000DD24E1FE07C0A114B10421F02197F501B8
:10186000D183C083CB01BA010E9423AB7B018C01E1
:10187000F3E0CF22DD2423E0C216D10421F417FBCC
:10188000109517F9109557016801C801B70120E0BC
:1018900030E040E050E00E9483AA882309F44AC067
:1018A00097FE0DC026E1E22E26E1F22E909481945F
:1018B00091089394C0E2D0E000E010E012C09EE2F4
:1018C000E92E96E1F92EF6CFF70125913591459154
:1018D0005491C601B5010E9463AD5B016C018C1A85
:1018E0009D0A8C169D0684F7D595C7950F5F1F4FEF
:1018F0000630110529F08CEF9FEFE80EF91EF1CFAD
:10190000C501D6017C018D018C2D880F8D2D881F7E
:101910008F3F51F0C601B50120E030E040E050E0DB
:101920000E9483AA882331F482E290E09093EC0E27
:101930008093EB0E7E2D9F2D802F612F272F392F27
:10194000482F562FB901CA01CDB7DEB7ECE00C9491
:10195000F3AE2F923F925F926F927F928F929F92FF
:10196000AF92BF92CF92DF92EF92FF920F931F93AD
:10197000CF93DF938C011B01EA016115710519F00A
:10198000FB0191838083209749F0CE0102978397D2
:1019900028F020E030E040E050E0F6C0F801A190EF
:1019A0008F018A2D90E00E94BEAE892BB9F7FDE22F
:1019B000AF1631F4F801A1908F015524539407C05C
:1019C000FBE2AF1619F4F801A1908F01552420977E
:1019D00019F0C031D105C1F4F0E3AF1679F4F80184
:1019E0008081883711F0883549F4F801A1800E5FB5
:1019F0001F4FF2E05F2AC0E1D0E006C0209721F43B
:101A000080E3A816E9F427C0C830D10531F1C93008
:101A1000D10524F4C230D10531F50CC0CA30D1054E
:101A200089F0C031D105F9F4C12CD12CE12CB8E0FA
:101A3000FB2E28C0C12CD12CE12CA0E4FA2E22C010
:101A4000CAE0D0E0FCECCF2EFCECDF2EFCECEF2E5D
:101A5000FCE0FF2E17C0C8E0D0E0C12CD12CE12C57
:101A6000E0E1FE2E0FC09E01442737FD4095542F24
:101A700060E070E080E090E80E947BAEC901DA018E
:101A80006C017D0120E030E040E050E060E03E018C
:101A9000882477FC8094982C70EDB72EBA0CE9E07E
:101AA000EB1570F48A2D81548A3118F499ECB92E13
:101AB00006C08A2D81568A3150F589EAB82EBA0CB3
:101AC0008B2D90E08C179D0714F56F3FE1F0C21647
:101AD000D306E406F506B0F0CA01B901A4019301EA
:101AE0000E9435AE9B01AC012B0D311D411D511DD6
:101AF0002130F0E03F07F0E04F07F0E85F0710F417
:101B000061E001C06FEFF801A1908F01C5CF2114F2
:101B1000310481F0662331F001501040F10111834E
:101B2000008308C051FE1AC002501040F101118319
:101B3000008314C067FF12C050FC05C02FEF3FEFB9
:101B40004FEF5FE704C020E030E040E050E882E281
:101B500090E09093EC0E8093EB0E16C050FE08C000
:101B600050954095309521953F4F4F4F5F4F0CC09A
:101B700057FF0AC082E290E09093EC0E8093EB0E48
:101B80002FEF3FEF4FEF5FE7B901CA01DF91CF9130
:101B90001F910F91FF90EF90DF90CF90BF90AF908B
:101BA0009F908F907F906F905F903F902F900895BF
:101BB000FB01DC014150504088F08D9181341CF0D4
:101BC0008B350CF4805E659161341CF06B350CF440
:101BD000605E861B611171F3990B0895881BFCCF21
:101BE000FB01DC0104C08D910190801921F441506A
:101BF0005040C8F7881B990B0895FB01DC0102C017
:101C000001900D9241505040D8F70895FB01DC013E
:101C10000D900020E9F7119701900D920020E1F757
:101C20000895FC018191861721F08823D9F799271F
:101C300008953197CF010895FB01DC0101900D92C9
:101C40000020E1F70895FB01DC014150504030F0E5
:101C50008D910190801919F40020B9F7881B990B18
:101C60000895FB01DC014150504048F001900D9275
:101C70000020C9F701C01D9241505040E0F708957F
:101C8000FB0151915523A9F0BF01DC014D9145178E
:101C90004111E1F759F4CD010190002049F04D9137
:101CA00040154111C9F3FB014111EFCF81E090E0F4
:101CB00001970895AEE0B0E0E0E6FEE00C94DFAE00
:101CC0000D891E8986E08C831A8309838FEF9FE735
:101CD0009E838D839E01275E3F4FCE0101966F89C3
:101CE000788DA9010E947E0E2F813885020F131F67
:101CF000F80110822E96E4E00C94FBAEABE0B0E06D
:101D0000E4E8FEE00C94D1AE3C012B015A01FC0149
:101D100017821682838181FD03C06FEF7FEFC6C1FA
:101D20009AE0892E1E010894211C311CF3012381A5
:101D3000F20123FD859123FF81912F01882309F46E
:101D4000B2C1853239F423FD859123FF81912F01A2
:101D5000853229F490E0B3010E947110E7CF982FEB
:101D6000FF24EE249924FFE1FF15D0F09B3269F0A7
:101D70009C3228F4903259F0933291F40EC09D3287
:101D800049F0903369F441E024C052E0F52A84E040
:101D9000F82A28C098E0F92A25C0E0E1FE2A22C0EE
:101DA000F7FC29C0892F80538A3070F4F6FE05C0F5
:101DB000989C902C1124980E15C0E89CE02C1124BE
:101DC000E80EF0E2FF2A0EC09E3229F4F6FC6BC149
:101DD00040E4F42A07C09C3619F450E8F52A02C002
:101DE000983649F4F20123FD959123FF91912F013B
:101DF000992309F0B8CF892F8554833018F0805289
:101E0000833038F444E050E0A40EB51E5FE35983FC
:101E10000FC0933631F0933779F0933509F056C0FF
:101E200020C0F5018081898342E050E0A40EB51EF8
:101E3000610101E010E012C0F501C080D180F6FC24
:101E400003C06FEF7FEF02C0692D70E042E050E009
:101E5000A40EB51EC6010E9466108C015FE7F52234
:101E600014C0F501C080D180F6FC03C06FEF7FEF96
:101E700002C0692D70E042E050E0A40EB51EC6011C
:101E80000E945B108C0150E8F52AF3FE07C01AC0CF
:101E900080E290E0B3010E947110EA948E2D90E0F0
:101EA00008171907A8F30EC0F601F7FC8591F7FE95
:101EB00081916F0190E0B3010E947110E110EA94EA
:101EC000015010400115110579F7EAC0943611F060
:101ED000993669F5F7FE08C0F5012081318142810C
:101EE000538184E090E00AC0F501808191819C01DA
:101EF000442737FD4095542F82E090E0A80EB91E8C
:101F00009FE6F92257FF09C05095409530952195DD
:101F10003F4F4F4F5F4FE0E8FE2ACA01B901A101D0
:101F20002AE030E00E949D10D82ED21840C095378C
:101F300029F41F2D1F7E2AE030E01DC01F2D197FC0
:101F40009F3661F0903720F4983509F0ACC00FC08F
:101F5000903739F0983709F0A6C004C028E030E087
:101F60000AC0106114FD146020E130E004C014FDCB
:101F7000166020E132E017FF08C0F5016081718131
:101F80008281938144E050E008C0F5018081918115
:101F9000BC0180E090E042E050E0A40EB51EA1013B
:101FA0000E949D10D82ED2188FE7F82EF122F6FE4F
:101FB0000BC05EEFF522D91438F4F4FE07C0F2FC32
:101FC00005C08FEEF82202C01D2D01C0192DF4FEB0
:101FD0000DC0FE01ED0DF11D8081803319F499EEE5
:101FE000F92208C01F5FF2FE05C003C08F2D86785E
:101FF00009F01F5F0F2DF3FC14C0F0FE0FC01E157B
:1020000010F09D2C0BC09D2C9E0C911A1E2D06C00D
:1020100080E290E0B3010E9471101F5F1E15C0F3B3
:1020200004C01E1510F4E11A01C0EE2404FF0FC015
:1020300080E390E0B3010E94711002FF1DC001FD1A
:1020400003C088E790E00EC088E590E00BC0802FC9
:10205000867891F001FF02C08BE201C080E2F7FCBC
:102060008DE290E0B3010E94711006C080E390E021
:10207000B3010E9471109A94D914C0F3DA94F1015B
:10208000ED0DF11D808190E0B3010E947110DD2003
:10209000A9F706C080E290E0B3010E947110EA94B3
:1020A000EE20C1F743CEF30166817781CB012B96F9
:1020B000E2E10C94EDAEFC0105906150704001101E
:1020C000D8F7809590958E0F9F1F0895FC01615061
:1020D000704001900110D8F7809590958E0F9F1F4A
:1020E00008950F931F93CF93DF938C01EB018B81A6
:1020F00081FF1BC082FF0DC02E813F818C819D819D
:102100002817390764F4E881F9810193F983E8839A
:1021100006C0E885F985802F0995892B31F48E81D9
:102120009F8101969F838E8302C00FEF1FEFC8012E
:10213000DF91CF911F910F910895FA01AA272830BE
:1021400051F1203181F1E8946F936E7F6E5F7F4F84
:102150008F4F9F4FAF4FB1E03ED0B4E03CD0670F00
:10216000781F891F9A1FA11D680F791F8A1F911D53
:10217000A11D6A0F711D811D911DA11D20D009F4A3
:1021800068943F912AE0269F11243019305D3193E5
:10219000DEF6CF010895462F4770405D4193B3E0CE
:1021A0000FD0C9F7F6CF462F4F70405D4A3318F075
:1021B000495D31FD4052419302D0A9F7EACFB4E026
:1021C000A6959795879577956795BA95C9F70097DE
:1021D0006105710508959B01AC010A2E069457957F
:1021E000479537952795BA95C9F7620F731F841FD6
:1021F000951FA01D0895DF93CF930F92CDB7DEB743
:10220000FC016983A081B18112962D913C911397B5
:10221000BE016F5F7F4F41E050E0F90109950F90DB
:10222000CF91DF910895FC01148A178A138A27EA57
:1022300033E0328B218B14AA17AA13AA32AB21AB3D
:10224000EE5AFF4F108233961082349710823293E9
:102250002293B19610823396108234971082329373
:1022600022937F9689E1808333961082789610823C
:102270003A961082339610823497108232932293CA
:102280007E961082118212821382389610821182F9
:1022900012821382E45DF040118212821082E852B1
:1022A000FF4F81E08083E85DF040108A17860FB60B
:1022B000F8948091D80E9091D90EA091DA0EB09139
:1022C000DB0E0FBEE053FF4F88579C4EAF4FBF4F02
:1022D00080839183A283B3830895FC0111821282CB
:1022E0000895FC018281882311F081E081830895A3
:1022F000FC018181811111820895CF93DF93FC014C
:1023000087A98250823000F1EF01E496DF01AE5AD6
:10231000BF4F8BE10D9009928150E1F7EF5AFF4FCB
:102320008081E155F04083ABEF01CE5ADF4FDF01F2
:10233000A059BF4F8BE10D9009928150E1F7E1590F
:10234000FF4F80817E978083DF91CF9108950F9317
:102350001F938C010E94BB8D0E94988DF801118201
:1023600080E091E00E944A4A1F910F910895CF9317
:10237000DF93DB010D900020E9F71197A61BB70B47
:10238000EC01E881F9810280F381E02DAD0109952E
:10239000DF91CF910895FC0187EA93E091838083D8
:1023A0008681882321F0CF0103960E945C800895E6
:1023B000CF92DF92EF92FF920F931F93DF93CF9311
:1023C000CDB7DEB76E970FB6F894DEBF0FBECDBFA8
:1023D0008C016B01DC01D7968C91882321F491E16B
:1023E000E92EF12C03C081E3E82EF12CE00EF11E62
:1023F00087EA93E09A8389831B821F821C82B7013C
:102400006D5F7F4FCE010496A60121E00E941087E8
:10241000882349F5E3EEF0E064918F0108C081EE76
:102420009EE00E94FB100F5F1F4FF801649166232E
:10243000B1F7E9EEF0E064918F0108C081EE9EE013
:102440000E94FB100F5F1F4FF80164916623B1F7E4
:1024500081EE9EE0B6010E94B71181EE9EE06AE037
:102460000E94FB1033C0D801A059BF4FF801EE5AAB
:10247000FF4F8BE101900D928150E1F7F801E15996
:10248000FF4F0F5A1F4FD8018C9101551040808388
:10249000D801AE5ABF4FF70133968BE101900D92F0
:1024A0008150E1F70F5A1F4FF7018281D8018C93B9
:1024B00001551040D801D496FE0134968BE101906D
:1024C0000D928150E1F78B81F80183ABCE0101962B
:1024D0000E94CB116E960FB6F894DEBF0FBECDBF33
:1024E000CF91DF911F910F91FF90EF90DF90CF90F0
:1024F0000895EF92FF920F931F937C018C010F546C
:102500001F4FC8010E940C80C8010E945C80F70127
:1025100010821F910F91FF90EF900895CF92DF925C
:10252000EF92FF920F931F93CF93DF937C016B0188
:10253000DB010D900020E9F78D0101501040061BD2
:10254000170BE1EBF0E0EE0EFF1ED7011C92EFE45B
:10255000FFEFEE0EFF1ECB016EE470E00E94110E45
:10256000EC01009731F4F8013197EC0DFD1D860167
:102570000EC060E270E00E94110E8C010F5F1F4FD1
:10258000CE016AE270E00E94110EFC0131978DE0ED
:1025900081838AE082831382C70182559F4FB801ED
:1025A0000E94128881EB90E0E80EF91ED7018C9111
:1025B000882309F1EEEFF0E06491EF0107C081EEAE
:1025C0009EE00E94FB102196FE0164916623B9F7FC
:1025D000E5E0F1E06491EF0107C081EE9EE00E942A
:1025E000FB102196FE0164916623B9F781EE9EE00F
:1025F0006AE00E94FB10DF91CF911F910F91FF9035
:10260000EF90DF90CF900895EF92FF920F93CF93CA
:10261000DF937C01FC018281882309F43FC0EDE255
:10262000F1E06491EF0107C081EE9EE00E94FB1093
:102630002196FE0164916623B9F784ED90E0E80EDF
:10264000F91EF70140815181628173818CE29FEF15
:10265000E80EF91E81EE9EE02AE000E00E9441A60D
:10266000EBE2F1E06491EF0107C081EE9EE00E9491
:10267000FB102196FE0164916623B9F78CEC90E083
:10268000E80EF91EF701408151816281738181EE6C
:102690009EE02AE000E00E9441A60EC0EBE1F1E0DE
:1026A0006491EF0107C081EE9EE00E94FB1021962D
:1026B000FE0164916623B9F781EE9EE06AE00E9414
:1026C000FB10DF91CF910F91FF90EF9008952F9223
:1026D0003F924F925F926F927F928F929F92AF92B2
:1026E000BF92CF92DF92EF92FF920F931F93DF93EF
:1026F000CF93CDB7DEB7AB970FB6F894DEBF0FBE62
:10270000CDBF5C014B01FC018281882309F400C12B
:10271000C5018F549F4F0E945C80F5011182198A78
:102720001C8A188A87EA93E09F878E87C5014196A5
:1027300090AB87A7F40180818F3209F081C0C4017A
:102740006FE270E00E94110E7C010894E11CF11C04
:102750003E010894611C711C3EE0232E312C2C0E8E
:102760003D1E21E1422E512C4C0E5D1E64C0C7015E
:102770006FE270E00E94110E6C01009709F468C0CE
:10278000E816F90608F064C08C010E191F09C30190
:10279000B701A8010E94310E060D171DF801108225
:1027A00081EE9EE0B3010E94B71181EE9EE06AE0E7
:1027B0000E94FB10F50167A570A96115710519F458
:1027C00060E070E002C06D5F7F4FC201A30121E0B5
:1027D0000E941087882341F5E9E6F1E064917F01CA
:1027E00009C081EE9EE00E94FB100894E11CF11CE0
:1027F000F70164916623A9F781EE9EE0BE016F5F49
:102800007F4F0E94B711E7E6F1E064917F0109C0B4
:1028100081EE9EE00E94FB100894E11CF11CF70180
:1028200064916623A9F76BC0F50130AA27A676014B
:102830000894E11CF11CE114F10409F098CF05C0E3
:10284000C501C196F50190AB87A7D82C092D02C010
:10285000DE2C0F2DF50187A590A9009719F480E0D3
:1028600090E001C003966D2D702F0E94E2878823AF
:1028700001F1E9E5F1E064917F0109C081EE9EE09C
:102880000E94FB100894E11CF11CF701649166237F
:10289000A9F781EE9EE06D2D702F0E94B71184ED97
:1028A00090E0A80EB91EF5011082118212821382E7
:1028B0002BC0E1E4F1E064917F0109C081EE9EE06C
:1028C0000E94FB100894E11CF11CF701649166233F
:1028D000A9F781EE9EE06D2D702F0E94B711EFE3F6
:1028E000F1E064917F0109C081EE9EE00E94FB103F
:1028F0000894E11CF11CF70164916623A9F781EEAD
:102900009EE06AE00E94FB10CE010E960E94CB1161
:10291000AB960FB6F894DEBF0FBECDBFCF91DF915F
:102920001F910F91FF90EF90DF90CF90BF90AF90ED
:102930009F908F907F906F905F904F903F902F90DF
:1029400008952F923F924F925F926F927F928F9253
:102950009F92AF92BF92CF92DF92EF92FF920F932E
:102960001F93DF93CF93CDB7DEB7AC970FB6F89434
:10297000DEBF0FBECDBF5C014B014CA7FC018281C5
:10298000882309F4ADC151EB452E512C4A0C5B1C38
:10299000C2010E945C80F5011182198A1C8A188A82
:1029A00087EA93E09F878E87C501419690AB87A702
:1029B000F40180818F3209F080C0C4016FE270E0C1
:1029C0000E94110E7C010894E11CF11C3E01089448
:1029D000611C711C41E1242E312C2C0E3D1E68C05F
:1029E000C7016FE270E00E94110E6C01009709F4BC
:1029F0006CC0E816F90608F068C08C010E191F09B2
:102A0000C301B701A8010E94310E060D171DF80180
:102A1000108281EE9EE0B3010E94B71181EE9EE02C
:102A20006AE00E94FB10F50167A570A961157105A8
:102A300019F460E070E002C06D5F7F4FC101A30137
:102A400021E00E941087882341F5EFEDF1E06491C9
:102A50007F0109C081EE9EE00E94FB100894E11CFA
:102A6000F11CF70164916623A9F781EE9EE0BE0197
:102A70006F5F7F4F0E94B711EDEDF1E064917F0130
:102A800009C081EE9EE00E94FB100894E11CF11C3D
:102A9000F70164916623A9F7F8C02EE030E02C0F0F
:102AA0003D1FF50130AB27A776010894E11CF11C0E
:102AB000E114F10409F094CF05C0C501C196F501F8
:102AC00090AB87A7D82CC92C02C0DE2CCF2CF501E7
:102AD00067A570A9FCA5FF2309F4A1C061157105C4
:102AE00019F460E070E002C06D5F7F4FC2014D2DB0
:102AF0005C2D21E00E941087882309F469C0A5019C
:102B000044535F4F22EC30E0A20EB31EF5018081EA
:102B10009181A281B3812EE33FEFA20EB31EFA0191
:102B200080839183A283B383E0EDF1E064917F0120
:102B300009C081EE9EE00E94FB100894E11CF11C8C
:102B4000F70164916623A9F781EE9EE06D2D7C2D3F
:102B50000E94B711E9ECF1E064917F0109C081EEB8
:102B60009EE00E94FB100894E11CF11CF7016491A7
:102B70006623A9F72CEC30E0A20EB31EF5014081CC
:102B800051816281738181EE9EE02AE000E00E9423
:102B900041A681EE9EE06AE00E94FB1028E030E052
:102BA000A20EB31EF5011082118212821382EBEB8A
:102BB000F1E064917F0109C081EE9EE00E94FB106C
:102BC0000894E11CF11CF70164916623A9F77BC00E
:102BD000E7EAF1E064917F0109C081EE9EE00E9486
:102BE000FB100894E11CF11CF70164916623A9F71E
:102BF00081EE9EE06D2D7C2D0E94B711E5EAF1E09B
:102C000064917F0109C081EE9EE00E94FB10089450
:102C1000E11CF11CF70164916623A9F736C0611528
:102C2000710519F460E070E002C06D5F7F4FC20172
:102C30004D2D5C2D26E50E941087882361F5E1E982
:102C4000F1E064917F0109C081EE9EE00E94FB10DB
:102C50000894E11CF11CF70164916623A9F781EE49
:102C60009EE06D2D7C2D0E94B711EFE8F1E064919C
:102C70007F0109C081EE9EE00E94FB100894E11CD8
:102C8000F11CF70164916623A9F781EE9EE06AE0EA
:102C90000E94FB1021C081E0F5018083EDE7F1E0A7
:102CA00064917F0109C081EE9EE00E94FB100894B0
:102CB000E11CF11CF70164916623A9F781EE9EE007
:102CC000B4010E94B71181EE9EE06AE00E94FB1001
:102CD0008D2D9C2D0E940541CE010E960E94CB1198
:102CE000AC960FB6F894DEBF0FBECDBFCF91DF918B
:102CF0001F910F91FF90EF90DF90CF90BF90AF901A
:102D00009F908F907F906F905F904F903F902F900B
:102D10000895CF93DF93FC01419690AB87A7CF0135
:102D2000C496E057FF4FBF010E940383882399F4A4
:102D3000E3EFF1E06491EF0107C081EE9EE00E94B5
:102D4000FB102196FE0164916623B9F781EE9EE0A7
:102D50006AE00E94FB10DF91CF910895EF92FF92FD
:102D60000F931F93CF93DF937C01FC01128287891D
:102D7000882321F0C70144960E945C808701055793
:102D80001F4FC80160E04AE10E94FC7D8823E9F4FE
:102D9000E3EEF0E06491EF0107C081EE9EE00E9457
:102DA000FB102196FE0164916623B9F7E9E4F2E095
:102DB0006491EF0107C081EE9EE00E94FB10219616
:102DC000FE0164916623B9F771C0E701C057DF4F78
:102DD000CE01B80141E00E94A788882321F5CE01E9
:102DE000B80140E00E94A7888823E9F4EEEFF0E004
:102DF0006491EF0107C081EE9EE00E94FB102196D6
:102E0000FE0164916623B9F7E6E3F2E06491EF0115
:102E100007C081EE9EE00E94FB102196FE016491A6
:102E20006623B9F743C0C7014496BE010E940383DD
:102E30008823E9F4EEEFF0E06491EF0107C081EE42
:102E40009EE00E94FB102196FE0164916623B9F773
:102E5000E6E2F2E06491EF0107C081EE9EE00E949D
:102E6000FB102196FE0164916623B9F71FC081E033
:102E7000F7018283E3EEF0E06491EF0107C081EE99
:102E80009EE00E94FB102196FE0164916623B9F733
:102E9000EBE1F2E06491EF0107C081EE9EE00E9459
:102EA000FB102196FE0164916623B9F781EE9EE046
:102EB0006AE00E94FB10C7014196F70190AB87A71B
:102EC000C701C49620E930E0E20EF31EB7010E946C
:102ED0000383882399F4E7E0F2E06491EF0107C0EF
:102EE00081EE9EE00E94FB102196FE016491662314
:102EF000B9F781EE9EE06AE00E94FB10DF91CF916E
:102F00001F910F91FF90EF9008952F923F924F9253
:102F10005F927F928F929F92AF92BF92CF92DF92F9
:102F2000EF92FF920F931F93DF93CF93CDB7DEB74E
:102F3000CC55D0400FB6F894DEBF0FBECDBF7C019C
:102F4000662359F528ED30E0E20EF31ED7018C918F
:102F5000E8E2FFEFEE0EFF1E882309F4F3C00FB680
:102F6000F8942091D80E3091D90E4091DA0E5091FC
:102F7000DB0E0FBE60ED70E0E60EF71EF7018081FC
:102F80009181A281B38160E37FEFE60EF71E821785
:102F90009307A407B50708F4D5C088ED90E0E80EC4
:102FA000F91ED7011C92E8E2FFEFEE0EFF1ED701DB
:102FB00012968C91882341F4C7010E94AE16F70146
:102FC0008281882309F4BEC000D000D000D0EDB7C4
:102FD000FEB731968E010F5F1F4FADB7BEB7129689
:102FE0001C930E9311978CE091E093838283D70119
:102FF0001F968D919C915097958384830E945A0EC1
:10300000CC24DD24EDB7FEB736960FB6F894FEBF9C
:103010000FBEEDBF58010AC0D8018C91992787FDDA
:1030200090950E94C6AEF80181938F01C601F5010B
:1030300001900020E9F73197EA19FB090894C11CB7
:10304000D11C8E179F0744F3E4E18E2E912C8E0C39
:103050009F1CC40140E050E060E070E00E94427FAD
:1030600077247DE3A72EB12CAC0EBD1E1E01089463
:10307000211C311C6FE1462E512C4C0E5D1E48C0A8
:10308000D6018C9190E00E94C6AEF60181936F014B
:10309000C801F50101900020E9F73197EA19FB0911
:1030A0000F5F1F4F8E179F075CF327968FAD2797F3
:1030B0008E3771F1C501B10145E050E00E94230E49
:1030C000009731F500D000D000D0EDB7FEB73196B3
:1030D000ADB7BEB712965C924E92119725E131E0E2
:1030E00033832283358224820E945A0E6DB77EB7C5
:1030F0006A5F7F4F0FB6F8947EBF0FBE6DBFC201EF
:103100000E944A4A8CE191E00E944A4A77247394D3
:10311000C401B5010E947982181624F4650100E00B
:1031200010E0B6CF772041F48FEF9FEFD701509694
:103130009C938E931F9706C0F7018785908901960F
:10314000908B8787C45ADF4F0FB6F894DEBF0FBE4F
:10315000CDBFCF91DF911F910F91FF90EF90DF9046
:10316000CF90BF90AF909F908F907F905F904F9047
:103170003F902F9008952F923F924F925F926F92BF
:103180007F928F929F92AF92BF92CF92DF92EF92F7
:10319000FF920F931F93DF93CF93CDB7DEB7CB583A
:1031A000D0400FB6F894DEBF0FBECDBF6C012B012F
:1031B0005A0183E090E0A80EB91EF6013396CC5771
:1031C000DF4FF983E883C458D040CA57DF4F1882D5
:1031D000C658D04014E6E12EF12CEC0EFD1EC701BE
:1031E0000B96C957DF4F99838883C758D040B9EDF4
:1031F0006B2E712C6C0C7D1CABED8A2E912C8C0CE3
:103200009D1CF6E42F2E312C2C0E3D1EF101339621
:10321000C757DF4FF983E883C958D040E3EEF0E0A9
:103220008491C557DF4F8883CB58D04026C1F70122
:103230008385482F50E0BA01687170706031710564
:1032400009F023C1F301208131812130310509F4D6
:103250001CC12230310509F418C1F701DE011196B5
:103260009081903239F08E2F8E19883011F48EE2D1
:103270008D939D933196C957DF4F88819981C758A7
:10328000D040E817F90761F71C921E86F201808191
:10329000882331F4CE010E9660E271E00E94060EA2
:1032A000CE010E96B2010E94060ECE010E96BE0110
:1032B0006F5F7F4F0E94060ECE010E9660E271E0B6
:1032C0000E94060E1BA61EA61AA687EA93E099A7DF
:1032D00088A7CE018B96B501AE014F5F5F4F21E00D
:1032E0000E941087882371F5F30180819181892BD9
:1032F00049F5C557DF4F6881CB58D04003EE10E049
:1033000008C081EE9EE00E94FB100F5F1F4FF80186
:1033100064916623B1F781EE9EE062E271E00E9463
:10332000B71181EE9EE06AE00E94FB1081EE9EE004
:10333000BE016F5F7F4F0E94B71181EE9EE06AE091
:103340000E94FB10C757DF4FA881B981C958D040F0
:10335000FE01BB968BE101900D928150E1F78AA5A9
:10336000F101828387EA93E091838083C601BE01E5
:10337000625F7F4FA1010E94BB18C1010E94CB1167
:10338000CE0188960E94CB1178C0953E09F475C095
:103390009E3209F472C09F3509F46FC043FD6DC0C1
:1033A00080E06031710509F481E0F60186878823A9
:1033B00049F4F7018085873409F05FC081858E3735
:1033C00009F45BC0CC57DF4FA881B981C458D04005
:1033D000F7018081803241F08E2F8E19883011F4F0
:1033E0008EE28D9380818D933196C957DF4F88810E
:1033F0009981C758D040E817F90759F71C92F30193
:10340000808191810097A9F481EE9EE0B2010E9433
:10341000B71181EE9EE0CC57DF4F68817981C458A7
:10342000D0400E94B71181EE9EE06AE00E94FB103E
:1034300024C08130910539F4F40180819181019695
:10344000918380831AC00297C1F4CA57DF4FF88175
:10345000C658D0402F2F30E0F40180819181281789
:103460003907C1F0CA57DF4FF881C658D040FF5F17
:10347000CA57DF4FF883C658D040C501B7010E9434
:10348000798218160CF4D3CE05C0F70190819923E8
:1034900009F07BCFC557DF4F0FB6F894DEBF0FBEE4
:1034A000CDBFCF91DF911F910F91FF90EF90DF90F3
:1034B000CF90BF90AF909F908F907F906F905F90D4
:1034C0004F903F902F900895EF92FF920F931F938C
:1034D000DF93CF93CDB7DEB76E970FB6F894DEBF0C
:1034E0000FBECDBF7C01C196F70190AB87A789EDD8
:1034F00090E0E80EF91E81E090E0F701819391934E
:103500007F011182108285E29FEFE80EF91EC7014C
:10351000C49640E050E060E070E00E94427FF70116
:1035200027A530A9DE011496F90133968BE10190AD
:103530000D928150E1F7F90182818B8387EA93E054
:103540009A838983C70165E371E08E010F5F1F4F86
:10355000A8010E94BB18C8010E94CB11F701E552D7
:10356000FF4F808191816E960FB6F894DEBF0FBE3B
:10357000CDBFCF91DF911F910F91FF90EF900895F4
:103580000F931F93DF93CF93CDB7DEB76E970FB630
:10359000F894DEBF0FBECDBF8C01C196F80190AB91
:1035A00087A707521F4F82E090E0F8019183808344
:1035B000095D1040F801E552FF4F60831182C80198
:1035C000C49640E050E060E070E00E94427FF80165
:1035D00027A530A9DE011496F90133968BE10190FD
:1035E0000D928150E1F7F90182818B8387EA93E0A4
:1035F0009A838983C80165E371E08E010F5F1F4FD5
:10360000A8010E94BB18C8010E94CB116E960FB68C
:10361000F894DEBF0FBECDBFCF91DF911F910F9108
:103620000895EF92FF920F931F93DF93CF93CDB73F
:10363000DEB76E970FB6F894DEBF0FBECDBF7C012C
:1036400089ED90E0E80EF91EF7011182108287E201
:103650009FEFE80EF91E87010C5E1F4FC80140E086
:1036600050E060E070E00E94427FDE011496F801B5
:103670008BE101900D928150E1F7F70183898B83F3
:1036800087EA93E09A838983C70165E371E08E013D
:103690000F5F1F4FA8010E94BB18C8010E94CB11E9
:1036A0006E960FB6F894DEBF0FBECDBFCF91DF91FF
:1036B0001F910F91FF90EF9008950F931F93DF9349
:1036C000CF93CDB7DEB728970FB6F894DEBF0FBE05
:1036D000CDBF8091360190913701A0913801B09112
:1036E000390189839A83AB83BC8380E090E09E019B
:1036F0002F5F3F4FF901E80FF91FE081F999FECFE5
:103700001FBA8C599F4F92BD81BDE0BD0FB6F89492
:10371000FA9AF99A0FBE835690408430910551F77A
:10372000E8EFF6E088E690E02191F999FECF1FBA24
:1037300092BD81BD20BD0FB6F894FA9AF99A0FBEDA
:10374000019627E0E830F20779F7E8EEF6E088E73F
:1037500090E02191F999FECF1FBA92BD81BD20BDA5
:103760000FB6F894FA9AF99A0FBE019626E0E83F50
:10377000F20779F7E8E0F7E088E890E02191F9991D
:10378000FECF1FBA92BD81BD20BD0FB6F894FA9A44
:10379000F99A0FBE019627E0E831F20779F7ECE1DC
:1037A000F7E088E990E02191F999FECF1FBA92BD28
:1037B00081BD20BD0FB6F894FA9AF99A0FBE019612
:1037C00027E0E032F20779F7E0E2F7E08CE990E0F9
:1037D0002191F999FECF1FBA92BD81BD20BD0FB6D0
:1037E000F894FA9AF99A0FBE019627E0E432F207AC
:1037F00079F7E8E1F7E080EA90E02191F999FECFCE
:103800001FBA92BD81BD20BD0FB6F894FA9AF99AFD
:103810000FBE019627E0EC31F20779F7E0E3F7E01D
:1038200084EA90E02191F999FECF1FBA92BD81BD43
:1038300020BD0FB6F894FA9AF99A0FBE019627E0C8
:10384000E433F20779F7E4EEF6E088EA90E02191BC
:10385000F999FECF1FBA92BD81BD20BD0FB6F89475
:10386000FA9AF99A0FBE019626E0E83EF20779F738
:10387000E4E2F7E08CEA90E02191F999FECF1FBADB
:1038800092BD81BD20BD0FB6F894FA9AF99A0FBE89
:10389000019627E0E832F20779F7E8E2F7E080EBFB
:1038A00090E02191F999FECF1FBA92BD81BD20BD54
:1038B0000FB6F894FA9AF99A0FBE019627E0EC3207
:1038C000F20779F7ECE2F7E084EB90E02191F999C7
:1038D000FECF1FBA92BD81BD20BD0FB6F894FA9AF3
:1038E000F99A0FBE019627E0E033F20779F7EDEE83
:1038F000F2E088EB90E02191F999FECF1FBA92BDDA
:1039000081BD20BD0FB6F894FA9AF99A0FBE0196C0
:1039100022E0E13FF20779F7E1EFF2E08CEB90E093
:103920002191F999FECF1FBA92BD81BD20BD0FB67E
:10393000F894FA9AF99A0FBE019622E0E53FF20751
:1039400079F7E5EFF2E080EC90E02191F999FECF74
:103950001FBA92BD81BD20BD0FB6F894FA9AF99AAC
:103960000FBE019622E0E93FF20779F780913A0114
:1039700090913B01A0913C01B0913D018D839E83CC
:10398000AF83B88780E090E09E012B5F3F4FF90145
:10399000E80FF91FE081F999FECF1FBA8C599F4FAC
:1039A00092BD81BDE0BD0FB6F894FA9AF99A0FBEA8
:1039B000835690408430910551F7EDE3F3E0649134
:1039C0008F0108C081EE9EE00E94FB100F5F1F4F29
:1039D000F80164916623B1F7E3E4F3E064918F01A9
:1039E00008C081EE9EE00E94FB100F5F1F4FF801A0
:1039F00064916623B1F781EE9EE06AE00E94FB10BD
:103A000028960FB6F894DEBF0FBECDBFCF91DF91E1
:103A10001F910F910895CF93DF930FB6F894809183
:103A2000D80E9091D90EA091DA0EB091DB0E0FBE98
:103A300080931A0590931B05A0931C05B0931D0558
:103A4000E0914305F0914405EB5BFA4F80818823B8
:103A500099F4EFE0F7E06491EF0107C081EE9EE09A
:103A60000E94FB102196FE0164916623B9F781EE56
:103A70009EE06AE00E94FB10DF91CF910895CF9302
:103A8000DF93EC01FC0164910DC0E091DB04F09147
:103A9000DC040190F081E02D8BED94E009952196F6
:103AA000FE016491662389F7DF91CF910895FC01AF
:103AB0002491A3ECB2E004C02D930196FC01249163
:103AC000222321F0F2E0A73DBF07B1F71C92089531
:103AD0003F9847983E9846986E987698419A409AB3
:103AE000429A089566B1669560956170309B6260F8
:103AF0000FB6F8942091D80E3091D90E4091DA0E7D
:103B00005091DB0E0FBE8091020590910305A091AC
:103B10000405B091050582179307A407B50710F4B3
:103B2000329B64606093D6042091D604217080910A
:103B3000D60481FD2260422F552747FD5095809184
:103B4000D9049091DA044817590789F12130D9F046
:103B500022301CF4222331F02AC0223049F02330D5
:103B600031F50BC08130910589F0029701F516C03F
:103B7000009761F00397D9F411C08230910531F0BC
:103B80000197A9F40BC08330910531F48091D704DB
:103B90009091D804019607C0892B49F48091D704ED
:103BA0009091D80401979093D8048093D7045093B0
:103BB000DA044093D90408950F931F93FC016081A8
:103BC0007181828193810E94F2AA8B019C01CB01B9
:103BD00064E670E00E9468AECB016AE070E00E948B
:103BE00068AE805D8093FA04C8016AE070E00E94CC
:103BF00068AECB016AE070E00E9468AE805D8093A1
:103C0000FB04C8016AE070E00E9468AE805D8093AA
:103C1000FC041092FD048AEF94E01F910F91089527
:103C2000FC012081822F90E06AE070E00E9468AE83
:103C3000CB016AE070E00E9468AE805D8093FA0478
:103C4000822F90E06AE070E00E9468AE805D809311
:103C5000FB041092FC048AEF94E00895FC0180813B
:103C6000918164E670E00E9468AECB016AE070E08A
:103C70000E9468AE805D8093FA04808191816AE041
:103C800070E00E9468AECB016AE070E00E9468AE0E
:103C9000805D8093FB04808191816AE070E00E94E6
:103CA00068AE805D8093FC041092FD048AEF94E07E
:103CB0000895FC018081918168EE73E00E9468AEF6
:103CC000CB016AE070E00E9468AE805D8093FA04E8
:103CD0008081918164E670E00E9468AECB016AE069
:103CE00070E00E9468AE805D8093FB0480819181CA
:103CF0006AE070E00E9468AECB016AE070E00E946A
:103D000068AE805D8093FC04808191816AE070E000
:103D10000E9468AE805D8093FD041092FE048AEFDD
:103D200094E00895FC01608171818281938120E09B
:103D300030E040E251E40E9463AD0E94F2AA9B0190
:103D400077FF02C08DE201C08BE28093FA0437FF57
:103D500003C0309521953F4FC90160E177E20E9491
:103D600068AECB016AE070E00E9468AE805D80932F
:103D7000FB04C90168EE73E00E9468AECB016AE003
:103D800070E00E9468AE805D8093FC04C90164E627
:103D900070E00E9468AECB016AE070E00E9468AEFD
:103DA000805D8093FD04C9016AE070E00E9468AE06
:103DB000CB016AE070E00E9468AE805D8093FE04F3
:103DC0008EE28093FF04C9016AE070E00E9468AE51
:103DD000805D80930005109201058AEF94E00895BC
:103DE000FC01608171818281938120E030E048ECA8
:103DF00052E40E9463AD0E94F2AA9B0177FF02C0C9
:103E00008DE201C08BE28093FA0437FF03C0309546
:103E100021953F4FC90160E177E20E9468AECB0176
:103E20006AE070E00E9468AE805D8093FB04C90187
:103E300068EE73E00E9468AECB016AE070E00E9419
:103E400068AE805D8093FC04C90164E670E00E9466
:103E500068AECB016AE070E00E9468AE805D80933E
:103E6000FD048EE28093FE04C9016AE070E00E94C6
:103E700068AECB016AE070E00E9468AE805D80931E
:103E8000FF04C9016AE070E00E9468AE805D809323
:103E90000005109201058AEF94E008956F927F92D9
:103EA0009F92AF92BF92CF92DF92EF92FF920F93C9
:103EB0001F93CF93DF93EC018A85882361F00E94E2
:103EC0007F6A882399F48091D303882379F481E071
:103ED0008C831A860BC00E947F6A882321F480910C
:103EE000D303882319F081E08C838A8798858F819A
:103EF000981719F48C81882331F081E08C838BED45
:103F000094E00E946BA0FF2422E0622E712CE6E573
:103F1000F2E09490EDE5F2E0E49094E0A92EB12C6B
:103F200085E0C82ED12C21E0F21609F43DC02F15F2
:103F30001CF0FF2051F0D6C032E0F31609F469C03E
:103F400083E0F81609F0CEC093C08C81882351F02D
:103F50008BED94E060E040E00E943CA087EC92E0B2
:103F60000E943F1D8881882309F0DDC08091D6041E
:103F700082FFD9C00FB6F8948091D80E9091D90ED7
:103F8000A091DA0EB091DB0E0FBE8C509E4FAF4F5A
:103F9000BF4F8093020590930305A0930405B0934F
:103FA00005051A821982BFC08C81882381F08BEDB0
:103FB00094E060E041E00E943CA08A85882319F4E7
:103FC0008CEB92E002C081EB92E00E943F1D888161
:103FD000813009F0A8C08091D60482FFA4C00FB63A
:103FE000F8948091D80E9091D90EA091DA0EB091EC
:103FF000DB0E0FBE8C509E4FAF4FBF4F809302051C
:1040000090930305A0930405B09305057A82698215
:104010008AC08C81882351F08BED94E060E042E00F
:104020000E943CA086EA92E00E943F1D8881823077
:1040300009F079C08091D60482FF75C00FB6F8945C
:104040008091D80E9091D90EA091DA0EB091DB0E2E
:104050000FBE8C509E4FAF4FBF4F80930205909381
:104060000305A0930405B0930505BA82A9825BC03D
:104070008C81882389F08BED94E060E043E00E941E
:104080003CA08091D303882319F086E992E002C016
:1040900086E892E00E943F1D8881833009F043C08A
:1040A0008091D60482FF3FC082ED93E00E94A71169
:1040B0000FB6F8948091D80E9091D90EA091DA0E97
:1040C000B091DB0E0FBE8C509E4FAF4FBF4F809311
:1040D000020590930305A0930405B0930505DA82C9
:1040E000C98221C0692D06E512E008C081EE9EE07C
:1040F0000E94FB100F5F1F4FF80164916623B1F718
:104100006E2D0DE512E008C081EE9EE00E94FB10CE
:104110000F5F1F4FF80164916623B1F781EE9EE0B7
:104120006AE00E94FB10F394F4E0FF1609F0FBCE66
:104130008985882309F07BC08F8188870091D70407
:104140001091D8041C828D819E819801281B390B07
:10415000C9010496099708F06AC08BED94E060E00D
:1041600048810E943CA0E091DB04F091DC040190C6
:10417000F081E02D8BED94E060E2099517FF07C018
:104180008F8181508F8387FF4FC01F824DC00531C3
:10419000110544F08F818F5F8F8318160CF41F82F6
:1041A0000FE010E01093D8040093D7048091D70457
:1041B0009091D8049E838D83C80165E070E00E94D1
:1041C00068AE688367FD18828881843014F083E0CC
:1041D00088838881843014F083E0888398858F8178
:1041E000981711F081E08C838BED94E060E04881BA
:1041F0000E943CA02F81332727FD30958881992785
:1042000087FD9095280F391F232B11F463E001C01F
:104210006EE3E091DB04F091DC040190F081E02D8D
:104220008BED94E0099503C004E010E0BBCFDF9173
:10423000CF911F910F91FF90EF90DF90CF90BF90A3
:10424000AF909F907F906F900895EF92FF920F93A1
:10425000CF93DF933DE3E32E33E0F32EF701649138
:10426000E70107C081EE9EE00E94FB102196FE014F
:1042700064916623B9F7EBEEF4E06491EF0107C0B7
:1042800081EE9EE00E94FB102196FE016491662360
:10429000B9F781EE9EE06AE00E94FB10F70164919D
:1042A000CDE3D3E007C081EE9EE00E94FB10219693
:1042B000FE0164916623B9F7E3EEF4E06491EF0147
:1042C00007C081EE9EE00E94FB102196FE016491E2
:1042D0006623B9F74091F8065091F9066091FA0605
:1042E0007091FB0681EE9EE022E00E94E0A6E0EEE7
:1042F000F4E06491EF0107C081EE9EE00E94FB10A4
:104300002196FE0164916623B9F74091FC06509115
:10431000FD066091FE067091FF0681EE9EE022E0B0
:104320000E94E0A6EDEDF4E06491EF0107C081EE9C
:104330009EE00E94FB102196FE0164916623B9F76E
:1043400040910007509101076091020770910307A7
:1043500081EE9EE022E00E94E0A6EAEDF4E06491A6
:10436000EF0107C081EE9EE00E94FB102196FE0146
:1043700064916623B9F74091040750910507609155
:1043800006077091070781EE9EE022E00E94E0A6FA
:1043900081EE9EE06EE371E00E94B71181EE9EE037
:1043A0006AE00E94FB10F7016491CDE3D3E007C0FF
:1043B00081EE9EE00E94FB102196FE01649166232F
:1043C000B9F7E0ECF4E06491EF0107C081EE9EE004
:1043D0000E94FB102196FE0164916623B9F781EEDD
:1043E0009EE06AE00E94FB10F7016491CDE3D3E008
:1043F00007C081EE9EE00E94FB102196FE016491B1
:104400006623B9F7E7EBF4E06491EF0107C081EEB2
:104410009EE00E94FB102196FE0164916623B9F78D
:104420004091E8065091E9066091EA067091EB062A
:1044300081EE9EE022E00E94E0A6E4EBF4E06491CD
:10444000EF0107C081EE9EE00E94FB102196FE0165
:1044500064916623B9F74091EC065091ED066091A6
:10446000EE067091EF0681EE9EE022E00E94E0A64B
:10447000E1EBF4E06491EF0107C081EE9EE00E9461
:10448000FB102196FE0164916623B9F74091F00676
:104490005091F1066091F2067091F30681EE9EE074
:1044A00022E00E94E0A6EEEAF4E06491EF0107C08A
:1044B00081EE9EE00E94FB102196FE01649166232E
:1044C000B9F74091F4065091F5066091F6067091A7
:1044D000F70681EE9EE022E00E94E0A681EE9EE0DB
:1044E0006EE371E00E94B71181EE9EE06AE00E94E7
:1044F000FB10F7016491CDE3D3E007C081EE9EE0AD
:104500000E94FB102196FE0164916623B9F7E0E951
:10451000F4E06491EF0107C081EE9EE00E94FB1081
:104520002196FE0164916623B9F781EE9EE06AE070
:104530000E94FB10F7016491CDE3D3E007C081EE48
:104540009EE00E94FB102196FE0164916623B9F75C
:10455000E7E8F4E06491EF0107C081EE9EE00E947D
:10456000FB102196FE0164916623B9F7409108077C
:104570005091090760910A0770910B0781EE9EE048
:104580002AE000E00E9441A6E4E8F4E06491EF0133
:1045900007C081EE9EE00E94FB102196FE0164910F
:1045A0006623B9F740910C0750910D0760910E07F3
:1045B00070910F0781EE9EE02AE000E00E9441A684
:1045C000E1E8F4E06491EF0107C081EE9EE00E9413
:1045D000FB102196FE0164916623B9F74091100704
:1045E00050911107609112077091130781EE9EE0C0
:1045F0002AE000E00E9441A6EEE7F4E06491EF01BA
:1046000007C081EE9EE00E94FB102196FE0164919E
:104610006623B9F74091140750911507609116076A
:104620007091170781EE9EE02AE000E00E9441A60B
:1046300081EE9EE06EE371E00E94B71181EE9EE094
:104640006AE00E94FB10F7016491CDE3D3E007C05C
:1046500081EE9EE00E94FB102196FE01649166238C
:10466000B9F7E9E4F4E06491EF0107C081EE9EE060
:104670000E94FB102196FE0164916623B9F781EE3A
:104680009EE06AE00E94FB10F7016491CDE3D3E065
:1046900007C081EE9EE00E94FB102196FE0164910E
:1046A0006623B9F7E0E4F4E06491EF0107C081EE1E
:1046B0009EE00E94FB102196FE0164916623B9F7EB
:1046C00040911C0750911D0760911E0770911F07B4
:1046D00081EE9EE022E00E94E0A6EDE3F4E064912A
:1046E000EF0107C081EE9EE00E94FB102196FE01C3
:1046F00064916623B9F7409120075091210760919A
:1047000022077091230781EE9EE022E00E94E0A63E
:1047100081EE9EE06EE371E00E94B71181EE9EE0B3
:104720006AE00E94FB10F7016491CDE3D3E007C07B
:1047300081EE9EE00E94FB102196FE0164916623AB
:10474000B9F7E4EAF3E06491EF0107C081EE9EE07F
:104750000E94FB102196FE0164916623B9F781EE59
:104760009EE06AE00E94FB10F7016491CDE3D3E084
:1047700007C081EE9EE00E94FB102196FE0164912D
:104780006623B9F7EBE9F3E06491EF0107C081EE2E
:104790009EE00E94FB102196FE0164916623B9F70A
:1047A000409118075091190760911A0770911B07E3
:1047B00081EE9EE022E00E94E0A6E8E9F3E0649149
:1047C000EF0107C081EE9EE00E94FB102196FE01E2
:1047D00064916623B9F74091300750913107609199
:1047E00032077091330781EE9EE022E00E94E0A63E
:1047F000E5E9F3E06491EF0107C081EE9EE00E94DD
:10480000FB102196FE0164916623B9F74091E406FE
:104810005091E5066091E6067091E70681EE9EE014
:104820002AE000E00E9441A6E2E9F3E06491EF0192
:1048300007C081EE9EE00E94FB102196FE0164916C
:104840006623B9F740912407509125076091260708
:104850007091270781EE9EE022E00E94E0A6EFE83B
:10486000F3E06491EF0107C081EE9EE00E94FB102F
:104870002196FE0164916623B9F740912807509173
:10488000290760912A0770912B0781EE9EE022E0B4
:104890000E94E0A6ECE8F3E06491EF0107C081EE2E
:1048A0009EE00E94FB102196FE0164916623B9F7F9
:1048B00040912C0750912D0760912E0770912F0782
:1048C00081EE9EE022E00E94E0A681EE9EE06EE393
:1048D00071E00E94B71181EE9EE06AE00E94FB1039
:1048E000F7016491CDE3D3E007C081EE9EE00E9422
:1048F000FB102196FE0164916623B9F7EEE7F3E021
:104900006491EF0107C081EE9EE00E94FB102196AA
:10491000FE0164916623B9F781EE9EE06AE00E9491
:10492000FB10F7016491CDE3D3E007C081EE9EE078
:104930000E94FB102196FE0164916623B9F7E4E71B
:10494000F3E06491EF0107C081EE9EE00E94FB104E
:104950002196FE0164916623B9F74091ED025091D2
:10496000EE026091EF027091F00281EE9EE022E093
:104970000E94E0A6E1E7F3E06491EF0107C081EE59
:104980009EE00E94FB102196FE0164916623B9F718
:104990006091F1027091F2028091F3029091F40221
:1049A0002FE632E143E05EE30E948AAAAB01BC013C
:1049B00081EE9EE022E00E94E0A6EEE6F3E0649144
:1049C000EF0107C081EE9EE00E94FB102196FE01E0
:1049D00064916623B9F76091F5027091F6028091B7
:1049E000F7029091F8022FE632E143E05EE30E9485
:1049F00063ADAB01BC0181EE9EE022E00E94E0A627
:104A000081EE9EE06EE371E00E94B71181EE9EE0C0
:104A10006AE00E94FB10DF91CF910F91FF90EF9021
:104A200008950F931F93DF93CF93CDB7DEB7EC9725
:104A30000FB6F894DEBF0FBECDBF682F80913A014C
:104A400090913B01A0913C01B0913D018D839E83EB
:104A5000AF83B887FE01319624E630E0AE014C5FAB
:104A60005F4FF999FECF32BD21BDF89A80B58083A2
:104A70002F5F3F4FE417F50711F03196F2CF662311
:104A800009F035C1CE010596BE016F5F7F4F43E04F
:104A900050E00E94230E009709F029C1E8EFF6E0EC
:104AA00028E630E0F999FECF32BD21BDF89A80B5F5
:104AB00080832F5F3F4F87E0E730F80711F0319692
:104AC000F1CFE8EEF6E028E730E0F999FECF32BD0D
:104AD00021BDF89A80B580832F5F3F4F86E0E73F86
:104AE000F80711F03196F1CFE8E0F7E028E830E080
:104AF000F999FECF32BD21BDF89A80B580832F5F32
:104B00003F4F87E0E731F80711F03196F1CFECE144
:104B1000F7E028E930E0F999FECF32BD21BDF89ADF
:104B200080B580832F5F3F4F87E0EF31F80711F0AA
:104B30003196F1CFE0E2F7E02CE930E0F999FECFD1
:104B400032BD21BDF89A80B580832F5F3F4F87E04B
:104B5000E332F80711F03196F1CFE8E1F7E020EA0F
:104B600030E0F999FECF32BD21BDF89A80B580833F
:104B70002F5F3F4F87E0EB31F80711F03196F1CF0F
:104B8000E0E3F7E024EA30E0F999FECF32BD21BD41
:104B9000F89A80B580832F5F3F4F87E0E333F807B3
:104BA00011F03196F1CFE4EEF6E028EA30E0F99921
:104BB000FECF32BD21BDF89A80B580832F5F3F4F75
:104BC00086E0E73EF80711F03196F1CFE4E2F7E036
:104BD0002CEA30E0F999FECF32BD21BDF89A80B5BC
:104BE00080832F5F3F4F87E0E732F80711F031965F
:104BF000F1CFE8E2F7E020EB30E0F999FECF32BDEB
:104C000021BDF89A80B580832F5F3F4F87E0EB325C
:104C1000F80711F03196F1CFECE2F7E024EB30E049
:104C2000F999FECF32BD21BDF89A80B580832F5F00
:104C30003F4F87E0EF32F80711F03196F1CFEDEEFC
:104C4000F2E028EB30E0F999FECF32BD21BDF89AB1
:104C500080B580832F5F3F4F82E0E03FF80711F07F
:104C60003196F1CFE1EFF2E02CEB30E0F999FECF95
:104C700032BD21BDF89A80B580832F5F3F4F82E01F
:104C8000E43FF80711F03196F1CFE5EFF2E020ECC8
:104C900030E0F999FECF32BD21BDF89A80B580830E
:104CA0002F5F3F4F82E0E83FF80711F03196F1CFD8
:104CB000EDE3F3E064918F0108C081EE9EE00E9475
:104CC000FB100F5F1F4FF80164916623B1F7E3E516
:104CD000F3E064918F0108C081EE9EE00E94FB101A
:104CE0000F5F1F4FF80164916623B1F718C1DE0111
:104CF0009996E9E2F3E084E101900D928150E1F7A9
:104D0000DE011996E9E1F3E080E101900D92815016
:104D1000E1F7DE015996E9E0F3E080E101900D92C0
:104D20008150E1F789A59AA5ABA5BCA58093F806AB
:104D30009093F906A093FA06B093FB0689859A85AD
:104D4000AB85BC858093E8069093E906A093EA06BC
:104D5000B093EB06898D9A8DAB8DBC8D809308073F
:104D600090930907A0930A07B0930B078DA59EA502
:104D7000AFA5B8A98093FC069093FD06A093FE060C
:104D8000B093FF068D859E85AF85B8898093EC062C
:104D90009093ED06A093EE06B093EF068D8D9E8D59
:104DA000AF8DB8A180930C0790930D07A0930E07C9
:104DB000B0930F0789A99AA9ABA9BCA98093000752
:104DC00090930107A0930207B093030789899A89FA
:104DD000AB89BC898093F0069093F106A093F2060C
:104DE000B093F30689A19AA1ABA1BCA1809310074F
:104DF00090931107A0931207B09313078DA99EA952
:104E0000AFA9B8AD8093040790930507A093060758
:104E1000B09307078D899E89AF89B88D8093F4067A
:104E20009093F506A093F606B093F7068DA19EA188
:104E3000AFA1B8A58093140790931507A093160708
:104E4000B093170780E090E0AAE7B4E480931C07D2
:104E500090931D07A0931E07B0931F078093200710
:104E600090932107A0932207B093230720E030E01E
:104E700040E050E0209318073093190740931A0739
:104E800050931B0780E29EE4A0E0B0E08093E4062C
:104E90009093E506A093E606B093E70620933007CB
:104EA00030933107409332075093330780E090E00E
:104EB000A0EAB1E48093240790932507A0932607E6
:104EC000B09327078DEC9CECACECBEE380932807F5
:104ED00090932907A0932A07B0932B0780E090E0D6
:104EE000A0EAB0E480932C0790932D07A0932E079F
:104EF000B0932F07EDE3F3E064918F0108C081EEDA
:104F00009EE00E94FB100F5F1F4FF8016491662323
:104F1000B1F781EE9EE06FE371E00E94B71181EE80
:104F20009EE06AE00E94FB100E942521EC960FB6DD
:104F3000F894DEBF0FBECDBFCF91DF911F910F91CF
:104F400008956F927F928F929F92AF92BF92CF926D
:104F5000DF92EF92FF920F931F93CF93DF938C0119
:104F6000FC0190858781981719F48481882339F092
:104F700081E0F80184838BED94E00E946BA0F8013E
:104F8000E780C0E0D0E0CE2CDD24C7FCD09467E001
:104F9000662E712C51E0A52EB12C46E0842E912C6A
:104FA0005EC1423009F480C0433034F4442371F0D0
:104FB000413009F053C141C0443009F4E3C04430EA
:104FC0000CF4A9C0453009F049C112C1F80184812F
:104FD000882351F08BED94E060E04C2F0E943CA0C0
:104FE0008EE293E00E943F1DF8018081992787FDA2
:104FF00090952F2D30E08217930709F02FC18091F3
:10500000D60482FF2BC10FB6F8948091D80E9091F0
:10501000D90EA091DA0EB091DB0E0FBE8C509E4FD0
:10502000AF4FBF4F8093020590930305A0930405F3
:10503000B0930505B282A18211C1F8018481882351
:1050400051F08BED94E060E04C2F0E943CA08FE18A
:1050500093E00E943F1DF8018081992787FD90957C
:105060002F2D30E08217930709F0F8C08091D60405
:1050700082FFF4C00FB6F8948091D80E9091D90EAB
:10508000A091DA0EB091DB0E0FBE8C509E4FAF4F49
:10509000BF4F8093020590930305A0930405B0933E
:1050A000050592828182DAC0F8018481882351F05B
:1050B0008BED94E060E04C2F0E943CA080E193E0F7
:1050C0000E943F1DF8018081992787FD90952F2D23
:1050D00030E08217930709F0C1C08091D60482FFA7
:1050E000BDC00FB6F8948091D80E9091D90EA091C2
:1050F000DA0EB091DB0E0FBE8C509E4FAF4FBF4FFC
:105100008093020590930305A0930405B0930505D1
:1051100072826182A3C0F8018481882351F08BEDF3
:1051200094E060E04C2F0E943CA083E093E00E945A
:105130003F1DF8018081992787FD90952F2D30E044
:105140008217930709F08AC08091D60482FF86C037
:105150000FB6F8948091D80E9091D90EA091DA0EE6
:10516000B091DB0E0FBE8C509E4FAF4FBF4F809360
:10517000020590930305A0930405B09305050E94D2
:105180005D1B6CC0F8018481882351F08BED94E0A5
:1051900060E04C2F0E943CA087EF92E00E943F1DF0
:1051A000F8018081992787FD90952F2D30E0821797
:1051B000930709F053C08091D60482FF4FC00FB609
:1051C000F8948091D80E9091D90EA091DA0EB091FA
:1051D000DB0E0FBE8C509E4FAF4FBF4F809302052A
:1051E00090930305A0930405B093050580E034C0B7
:1051F000F8018481882351F08BED94E060E04C2F1E
:105200000E943CA085EE92E00E943F1DF801808143
:10521000992787FD90952F2D30E082179307F1F4A1
:105220008091D60482FF1AC00FB6F8948091D80EF0
:105230009091D90EA091DA0EB091DB0E0FBE8C507A
:105240009E4FAF4FBF4F8093020590930305A093ED
:105250000405B093050581E00E9411252196FC2EDE
:105260004C2F4E0DF8015781852F992787FD90957A
:1052700003969E012C0D3D1D821793070CF091CED5
:105280008185882309F084C05087C091D704D091CC
:10529000D8041482858196819E01281B390BC9018F
:1052A0000496099708F074C08BED94E060E04081AB
:1052B0000E943CA0E091DB04F091DC040190F081BD
:1052C000E02D8BED94E060E20995D7FF08C0F8016E
:1052D00087818150878387FF58C0178256C0C531A8
:1052E000D1055CF0F80187818F5F878383301CF0E4
:1052F00082E0F8018783CFE0D0E0D093D804C09358
:10530000D7048091D7049091D804F80196838583BF
:10531000CE0165E070E00E9468AE608367FD108298
:10532000F8018081843014F083E08083F80180816B
:10533000863014F085E08083F80190858781981786
:1053400011F081E084838BED94E060E0F80140810E
:105350000E943CA0F8012781332727FD30958081EA
:10536000992787FD9095280F391F232B11F463E0AF
:1053700001C06EE3E091DB04F091DC040190F08168
:10538000E02D8BED94E0099503C0C4E0D0E0B5CFEB
:10539000DF91CF911F910F91FF90EF90DF90CF9011
:1053A000BF90AF909F908F907F906F9008952F92B5
:1053B0003F924F925F926F927F928F929F92AF92A5
:1053C000BF92CF92DF92EF92FF920F931F93DF93E2
:1053D000CF93CDB7DEB7A4970FB6F894DEBF0FBE5C
:1053E000CDBF4C01FC0190858781981719F4848109
:1053F000882339F081E0F40184838BED94E00E94EE
:105400006BA0F4012781822F992787FD9095AC012D
:10541000440F551F440F551F4C51594F5AA349A3D0
:105420001C01220C331C220C331CECEDF6E02E0E7A
:105430003F1E422E662477249CA38BA30C949132AA
:10544000F8E04F1609F433C2F415ACF022E042162E
:1054500009F431C1241544F0442039F131E04316F8
:1054600011F00C9483325EC0F4018481F6E0F415EF
:105470000CF07BC176C22EE0421609F4B3C42415A9
:105480003CF0F4018481FCE0F4150CF00FC3E3C39D
:1054900020E1421609F46CC642160CF486C531E1CF
:1054A000431611F00C94833246C7F401848188239B
:1054B00051F08BED94E060E0462D0E943CA084E921
:1054C00095E00E943F1DF4018081992787FD90950A
:1054D000252D30E08217930711F00C9483328091D0
:1054E000D60482FD02C00C9483320FB6F8948091EA
:1054F000D80E9091D90EA091DA0EB091DB0E0FBEAE
:105500008C509E4FAF4FBF4F809302059093030581
:10551000A0930405B093050584E090E09283818315
:105520000C948332F4018481882379F18BED94E02B
:1055300060E0462D0E943CA08EE895E00E943F1D51
:105540008BED94E06DE0462D0E943CA060911C071D
:1055500070911D0780911E0790911F0720E030E099
:1055600048EC52E40E948AAA0E94F2AA7A836983D4
:10557000CE0101960E942E1EBC018BED94E00E948C
:10558000B7118BE895E00E943F1DF40180819927B7
:1055900087FD9095252D30E08217930709F0B3C75A
:1055A0008091D60482FF57C0818591E08927818749
:1055B0008823A9F060911C0770911D0780911E0738
:1055C00090911F070E94F2AADC01CB0164E670E013
:1055D0000E9468AE7093D8046093D70425C02091D0
:1055E000D7043091D80484E690E0289FB001299F29
:1055F000700D389F700D1124882777FD8095982FA6
:105600000E9425AB60931C0770931D0780931E07B3
:1056100090931F07F401808125E08202C0011124CC
:105620009093D8048093D7040FB6F8948091D80E45
:105630009091D90EA091DA0EB091DB0E0FBE8C5076
:105640009E4FAF4FBF4F8093020590930305A093E9
:105650000405B0930505F4018185882309F453C737
:105660008091D7049091D804059734F485E090E0B8
:105670009093D8048093D7048091D7049091D80454
:105680008F5D934034F08EED93E09093D804809337
:10569000D7048BED94E06DE0452D0E943CA087ED92
:1056A00094E00E942E1EBC018BED94E00E94B71185
:1056B00088E895E0CDC2F4018481882329F18BED3F
:1056C00094E060E0462D0E943CA08CE795E00E94AB
:1056D0003F1D8BED94E06DE0462D0E943CA0609153
:1056E00024077091250780912607909127070E9433
:1056F000F2AA7C836B83CE0103960E942E1EBC010E
:105700008BED94E00E94B711F4018081992787FD09
:105710009095252D30E08217930709F0F4C680910B
:10572000D60482FFB0C0818591E0892781878823D4
:1057300049F0609124077091250780912607909188
:1057400027076AC06091D7047091D804882777FD35
:105750008095982F0E9425AB6093240770932507AE
:1057600080932607909327076DC08823D9F18BED8E
:1057700094E060E0462D0E943CA085E795E00E9401
:105780003F1D23E0421619F482E795E011C034E092
:10579000431619F48FE695E00BC045E0441619F462
:1057A0008CE695E005C056E0451621F489E695E0C3
:1057B0000E943F1D8BED94E06DE0452D0E943CA0C2
:1057C000F10160817181828193810E94F2AA7E83BE
:1057D0006D83CE0105960E942E1EBC018BED94E0D8
:1057E0000E94B711F4018081992787FD9095252D9E
:1057F00030E08217930709F086C68091D60482FFB5
:1058000042C0818591E089278187882361F0F10179
:1058100060817181828193810E94F2AA7093D80481
:105820006093D70419C06091D7047091D804882779
:1058300077FD8095982F0E9425ABF10160837183DD
:1058400082839383F401808125E08202C0011124C8
:105850009093D8048093D7040FB6F8948091D80E13
:105860009091D90EA091DA0EB091DB0E0FBE8C5044
:105870009E4FAF4FBF4F8093020590930305A093B7
:105880000405B0930505F4018185882309F43BC61E
:105890008091D7049091D804181619060CF4EEC024
:1058A00081E090E09093D8048093D704E7C0F4019E
:1058B0008481882329F18BED94E060E0462D0E94DD
:1058C0003CA082E695E00E943F1D8BED94E06DE0E8
:1058D000462D0E943CA06091180770911907809195
:1058E0001A0790911B070E94F2AA78876F83CE0156
:1058F00007960E942E1EBC018BED94E00E94B7110A
:10590000F4018081992787FD9095252D30E082173D
:10591000930709F0F8C58091D60482FFA0C0818565
:1059200091E089278187882349F060911807709159
:10593000190780911A0790911B0757C06091D704EF
:105940007091D804882777FD8095982F0E9425AB09
:10595000609318077093190780931A0790931B0799
:105960005DC0882329F18BED94E060E0462D0E9414
:105970003CA086E595E00E943F1D8BED94E06DE034
:10598000462D0E943CA060913007709131078091B4
:105990003207909133070E94F2AA7A876987CE0175
:1059A00009960E942E1EBC018BED94E00E94B71157
:1059B000F4018081992787FD9095252D30E082178D
:1059C000930709F0A0C58091D60482FF48C0818565
:1059D00091E089278187882379F060913007709161
:1059E000310780913207909133070E94F2AA709399
:1059F000D8046093D7041CC06091D7047091D80478
:105A0000882777FD8095982F0E9425AB60933007FB
:105A1000709331078093320790933307F4018081AC
:105A200025E08202C00111249093D8048093D7040A
:105A30000FB6F8948091D80E9091D90EA091DA0EFD
:105A4000B091DB0E0FBE8C509E4FAF4FBF4F809377
:105A5000020590930305A0930405B0930505F40196
:105A60008185882309F44FC58091D7049091D8048B
:105A700097FF04C01092D8041092D7048091D704E5
:105A80009091D8048F5D934034F08EED93E0909325
:105A9000D8048093D7048BED94E06DE0452D0E94EF
:105AA0003CA087ED94E00E942E1E28C5882309F4AF
:105AB00044C08BED94E060E0462D0E943CA08FE452
:105AC00095E00E943F1D29E0421619F48CE495E010
:105AD00011C03AE0431619F489E495E00BC04BE09D
