:100000000C94930B0C94BE0B0C94BE0B0C94BE0B77
:100010000C94BE0B0C94BE0B0C94BE0B0C94BE0B3C
:100020000C94BE0B0C94BE0B0C940CA80C9485A6DF
:100030000C94BE0B0C94BE0B0C94BE0B0C94BE0B1C
:100040000C94BE0B0C946E8E0C94BE0B0C94BE0BD9
:100050000C94BE0B0C94BE0B0C9472970C9448A598
:100060000C94BE0B0C94BE0B0C94BE0B0C94BE0BEC
:100070000C94BE0B0C94BE0B0C94BE0B0C94BE0BDC
:100080000C94BE0B0C94BE0B0C94BE0B0C94BE0BCC
:100090000C94BE0B0C94BE0B084AD73B3BCE016EB2
:1000A00084BCBFFDC12F3D6C74319ABD56833DDACF
:1000B0003D00C77F11BED9E4BB4C3E916BAAAABEDE
:1000C000000000803F05A84CCDB2D44EB93836A907
:1000D000020C50B9918688083CA6AAAA2ABE000044
:1000E00000803F6563686F3A0043616E6E6F7420F5
:1000F000656E746572207375626469723A00457248
:10010000726F723A006572726F72207772697469E9
:100110006E6720746F2066696C65004E6F742053A3
:1001200044207072696E74696E67002F005344201A
:100130007072696E74696E67206279746520002E32
:100140000044656C6574696F6E206661696C6564F6
:100150002C2046696C653A200046696C6520646510
:100160006C657465643A002E006F70656E20666180
:10017000696C65642C2046696C653A200057726989
:1001800074696E6720746F2066696C653A20002E72
:10019000006F70656E206661696C65642C2046692D
:1001A0006C653A20002E006F70656E206661696C88
:1001B00065642C2046696C653A200046696C6520B0
:1001C00073656C6563746564002053697A653A00F1
:1001D00046696C65206F70656E65643A002E006F2D
:1001E00070656E206661696C65642C2046696C657B
:1001F0003A2000776F726B446972206F70656E20D1
:100200006661696C656400776F726B446972206F18
:1002100070656E206661696C65640053442063619B
:100220007264206F6B006F70656E526F6F74206622
:1002300061696C656400766F6C756D652E696E69B9
:1002400074206661696C656400534420696E69744A
:10025000206661696C004572726F723A00536F6D6F
:10026000657468696E672069732077726F6E6720A6
:10027000696E20746865204D656E75537472756380
:10028000747572652E002043617264204D656E7531
:10029000202020207E002053746F70205072696EE1
:1002A000742020207E0020436F6E74726F6C207E5D
:1002B000002054756E65202020207E00205072653D
:1002C00070617265207E0020576174636820202071
:1002D00003002000045265667265736800204D615A
:1002E000696E20030020526573746F726520466149
:1002F000696C7361666500204C6F616420455052E3
:100300004F4D002053746F7265204550524F4D0081
:10031000204D6F74696F6E2020202020207E0020E9
:1003200054656D7065726174757265207E00204D34
:1003300061696E2020202020202020030065636852
:100340006F3A0053657474696E67732053746F72EB
:1003500065640053746F7265642073657474696EAC
:100360006773207265747265697665643A0020442B
:10037000002049002020204D3330312050005049CA
:10038000442073657474696E67733A0020450020D9
:100390005A0020580020420020540020204D3230C6
:1003A00035205300416476616E6365642076617226
:1003B0006961626C65733A20533D4D696E206665D4
:1003C00065647261746520286D6D2F73292C20542B
:1003D0003D4D696E2074726176656C20666565645A
:1003E0007261746520286D6D2F73292C20423D6D3C
:1003F000696E696D756D207365676D656E742074C7
:10040000696D6520286D73292C20583D6D617869D0
:100410006D756D207859206A65726B20286D6D2F7F
:1004200073292C20205A3D6D6178696D756D205AB5
:10043000206A65726B20286D6D2F7329002054008F
:1004400020204D323034205300416363656C657267
:100450006174696F6E3A20533D616363656C6572C8
:100460006174696F6E2C20543D726574726163749F
:1004700020616363656C65726174696F6E0020450D
:1004800000205A0020590020204D323031205800E1
:100490004D6178696D756D20416363656C6572614E
:1004A00074696F6E20286D6D2F7332293A002045D4
:1004B00000205A0020590020204D323033205800AF
:1004C0004D6178696D756D206665656472617465EE
:1004D0007320286D6D2F73293A00204500205A00A3
:1004E00020590020204D3932205800537465707314
:1004F0002070657220756E69743A002045737465CA
:1005000070732F6D6D3A00205A73746570732F6D80
:100510006D3A00205973746570732F6D6D3A002029
:100520005873746570732F6D6D3A00303000303041
:100530000020412D726574726163743A003030009E
:10054000303000653A007A3A00793A00783A002073
:10055000416D61782000205654726176206D696E7D
:100560003A0020566D696E3A00653A007A3A007991
:100570003A00783A0020566D61782000205678794C
:100580002D6A65726B3A2000303000303000204117
:1005900063633A0020436F6E74726F6C2003002017
:1005A0005049442D433A2000205049442D443A20DC
:1005B00000205049442D493A2000205049442D50F4
:1005C0003A20002046616E2073706565643A002011
:1005D000024265643A0020024E6F7A7A6C653A00F6
:1005E00020436F6E74726F6C20030020466C6F772F
:1005F0003A002046616E2073706565643A002002FF
:100600004265643A0020024E6F7A7A6C653A0020A7
:1006100053706565643A00204D61696E20030020C7
:100620004578747275646500205A3A0020593A0082
:1006300020583A00205072657061726520030020D6
:100640004D6F766520417869732020202020207E20
:100650000020436F6F6C646F776E00205072656886
:100660006561742041425300205072656865617471
:1006700020504C410020536574204F726967696EA9
:1006800000204175746F20486F6D650020446973C8
:1006900061626C65205374657070657273002041EF
:1006A00075746F737461727400204D61696E2003FC
:1006B00000255344002520005A3A006D00682000B0
:1006C000422D2D2D2F2D2D2D012000022D2D2D2FD2
:1006D0002D2D2D0120005072696E746572205265B7
:1006E0006164792E004B494C4C45442E20005072D9
:1006F000696E7465722068616C7465642E206B6924
:100700006C6C28292063616C6C6564202121006F6A
:100710006B00526573656E643A002200556E6B6E15
:100720006F776E20636F6D6D616E643A22007A5F41
:100730006D696E3A00795F6D696E3A00785F6D6938
:100740006E3A005A3A00593A0020436F756E742091
:10075000583A00453A005A3A00593A00583A004689
:1007600049524D574152455F4E414D453A4D617298
:100770006C696E2056313B20537072696E746572DD
:100780002F6772626C206D617368757020666F727E
:100790002067656E36204649524D574152455F5598
:1007A000524C3A687474703A2F2F7777772E6D65B4
:1007B0006E64656C2D70617274732E636F6D205062
:1007C000524F544F434F4C5F56455253494F4E3A48
:1007D000312E30204D414348494E455F54595045D4
:1007E0003A4D656E64656C204558545255444552E7
:1007F0005F434F554E543A310A005061727469613B
:100800006C2052656C656173650042656420646F9D
:100810006E652E0020423A0020453A00543A0042CC
:1008200065642048656174696E672E00486561746F
:10083000696E6720646F6E652E0020573A00204570
:100840003A00543A0048656174696E672E2E2E0096
:1008500020403A0020423A006F6B20543A00456E27
:10086000642066696C65206C697374004265676911
:100870006E2066696C65206C697374004E6F206D24
:100880006F76652E004457454C4C2E2E2E00446F3B
:100890006E65207072696E74696E672066696C653A
:1008A000006F6B004E6F204C696E65204E756D6257
:1008B0006572207769746820636865636B73756D12
:1008C0002C204C617374204C696E653A004E6F2089
:1008D000436865636B73756D2077697468206C6914
:1008E0006E65206E756D6265722C204C617374208C
:1008F0004C696E653A00636865636B73756D206D56
:1009000069736D617463682C204C617374204C6949
:100910006E653A004C696E65204E756D6265722099
:100920006973206E6F74204C617374204C696E651E
:10093000204E756D6265722B312C204C61737420D2
:100940004C696E653A00446F6E6520736176696E1E
:10095000672066696C652E006F6B002020506C610B
:100960006E6E657242756666657242797465733A39
:1009700020002046726565204D656D6F72793A20C2
:10098000006572696B00207C20417574686F723A53
:100990002000323031322D30322D323500204C6182
:1009A000737420557064617465643A2000312E3090
:1009B0002E3020524332004D61726C696E3A200035
:1009C00020536F6674776172652052657365740099
:1009D000205761746368646F6720526573657400A3
:1009E0002042726F776E206F757420526573657444
:1009F000002045787465726E616C20526573657471
:100A000000506F77657255700073746172740022C4
:100A100000656E717565696E672022006563686F99
:100A20003A0020746F6F206C6F6E67206578747267
:100A30007573696F6E2070726576656E746564009B
:100A400020636F6C6420657874727573696F6E20B3
:100A500070726576656E746564007C3C3E5E2B3D0D
:100A60003F2F5B5D3B2C2A225C0052656C656173F5
:100A700065642E0024F404D9201BC40C5C0E980479
:100A8000C4095F0265077101F405F900FB04B300B6
:100A900048048700C103690058035500030345005B
:100AA000BE023A008402310053022A0029022500C6
:100AB00004022000E4011C00C8011900AF01170066
:100AC00098011400840113007101100061011000ED
:100AD00051010E0043010D0036010B002B010B00EC
:100AE00020010B00150109000C0109000301080099
:100AF000FB000800F3000800EB000700E40006001C
:100B0000DE000600D8000600D2000600CC0005007A
:100B1000C7000500C2000500BD000400B9000400C4
:100B2000B5000400B1000400AD000400A9000400F9
:100B3000A5000300A20003009F0004009B00030027
:100B4000980003009500020093000300900003004A
:100B50008D0002008B000300880002008600020066
:100B600084000300810002007F0002007D0002007B
:100B70007B0002007900020077000100760002008D
:100B80007400020072000100710002006F00020098
:100B90006D0001006C0002006A00010069000200A3
:100BA00067000100660001006500010064000200AA
:100BB0006200010061000100600001005F000200AE
:100BC0005D0001005C0001005B0001005A000100B3
:100BD00059000100580001005700010056000100B3
:100BE00055000100540001005300000053000100B3
:100BF0005200010051000100500001004F000100AF
:100C00004E0000004E0001004D0001004C000100AC
:100C10004B0000004B0001004A00010049000100A8
:100C200048000000480001004700010046000000A5
:100C3000460001004500000045000100440001009D
:100C40004300000043000100420000004200010098
:100C50004100000041000100400001003F00000091
:100C60003F0001003E0000003E0001003D0000008A
:100C70003D0001003C0000003C0000003C00010081
:100C80003B0000003B0001003A0000003A00010078
:100C90003900000039000100380000003800000071
:100CA0003800010037000000370001003600000066
:100CB000360000003600010035000000350000005D
:100CC0003500010034000000340000003400010051
:100CD0003300000033000000330001003200000048
:100CE000320000003200010031000000310000003D
:100CF0003100010030000000300000003000010031
:100D00002F0000002F0000002F0000002F00010026
:100D10002E0000002E0000002E0001002D0000001B
:100D20002D0000002D0000002D0001002C0000000F
:100D30002C0000002C0000002C0001002B00000003
:100D40002B0000002B0000002B0001002A000000F7
:100D50002A0000002A0000002A00010029000000EB
:100D600029000000290000002900000029000100DE
:100D700028000000280000002800000028000000D3
:100D800028000100270000002700000027000000C5
:100D900027000000270001002600000026000000B8
:100DA00026000000260000002600010025000000AB
:100DB000250000002500000025000000250000009F
:100DC0002500010024000000240000002400000091
:100DD0002400000024000100230000002300000084
:100DE0002300000023000000230000002300000077
:100DF0002300010022000000220000002200000069
:100E0000220000002200000022000100210000005A
:100E1000210000002100000021000000210000004E
:100E2000210000002100010020000000200000003F
:100E30002000000020000000200000002000000032
:100E400020000000200001001F0000001F00000023
:100E50001F0000001F0000001F0000001F00000016
:100E60001F0001001E0000001E0000001E00000008
:100E70001E00000024F4D43050C38E20C2A24017BC
:100E8000828B7011127A910D816CD90AA861E108E8
:100E9000C7586607615143061E4B5D05C145A7044F
:100EA0001A411104093D9803713931034036DB02C0
:100EB00065339102D4305402802E1D02632CEE0162
:100EC000752AC501B028A001102781018F25640172
:100ED0002B244B01E0223401AC211F018D200D0198
:100EE000801FFC00841EED00971DDF00B81CD2009F
:100EF000E61BC600201BBC00641AB200B219A80091
:100F00000A19A0006A189900D117910040178B00A8
:100F1000B516840031167E00B31579003A157300BA
:100F2000C7146F0058146A00EE136600881363003C
:100F300025135E00C7125B006C1257001512540097
:100F4000C111510070114F0021114B00D610490002
:100F50008D1047004610440002104200C00F4000B0
:100F6000800F3E00420F3C00060F3B00CB0E3800C6
:100F7000930E37005C0E3500270E3400F30D32005F
:100F8000C10D3100900D3000600D2E00320D2D008E
:100F9000050D2C00D90C2B00AE0C2900850C290066
:100FA0005C0C2700350C27000E0C2600E80B2400F3
:100FB000C40B2400A00B23007D0B23005A0B21003F
:100FC000390B2100180B2000F80A1F00D90A1E0057
:100FD000BB0A1E009D0A1D00800A1D00630A1C003A
:100FE000470A1B002C0A1B00110A1A00F7091A00F5
:100FF000DD091900C4091900AB091900920917008D
:101000007B091800630917004C0916003609160001
:10101000200916000A091500F5081500E00814005B
:10102000CC081400B8081400A40814009008130099
:101030007D0812006B0813005808120046081200C1
:1010400034081100230811001208110001081100D2
:10105000F0071000E0071000D0071000C0071000D4
:10106000B0070F00A107100091070E0083070F00C3
:1010700074070F0065070E0057070E0049070E00A2
:101080003B070D002E070E0020070D0013070D0073
:1010900006070D00F9060C00ED060D00E0060C0039
:1010A000D4060C00C8060C00BC060C00B0060C00F0
:1010B000A4060B0099060C008D060B0082060B009F
:1010C00077060B006C060B0061060A0057060B0042
:1010D0004C060A0042060A0038060A002E060A00DC
:1010E00024060A001A060A001006090007060A006C
:1010F000FD050900F4050900EB050900E2050900FA
:10110000D9050900D0050900C7050900BE05090079
:10111000B5050800AD050800A50509009C050800F7
:10112000940508008C050800840508007C0508006B
:10113000740508006C050700650508005D050700DB
:10114000560508004E050700470507004005080042
:1011500038050700310507002A05070023050700A9
:101160001C050600160507000F0507000805060008
:1011700002050700FB040600F5040700EE04060064
:10118000E8040600E2040700DB040600D5040600BC
:10119000CF040600C9040600C3040600BD0406000F
:1011A000B7040600B1040500AC040600A60406005E
:1011B000A00405009B0406009504050090040600A9
:1011C0008A04050085040500800406007A040500F1
:1011D00075040500700405006B0405006604050035
:1011E000610405005C040500570405005204050075
:1011F0004D04050048040500430405003E040400B6
:101200003A04050035040500300404002C040500F0
:1012100027040400230405001E0404001A0404002B
:1012200016040500110404000D040400090405005F
:101230000404040000040400FC030400F803040098
:10124000F4030400F0030400EC030400E8030400CA
:10125000E4030400E0030400DC030400D8030400FA
:10126000D4030400D0030400CC030400C80303002B
:10127000C50303006563686F3A00205A3A0020599D
:101280003A0020583A00656E6473746F707320687A
:1012900069743A20004572726F723A0054656D703D
:1012A0006572617475726520686561746564206239
:1012B0006564207377697463686564206F66662E61
:1012C000204D415854454D502074726967676572CE
:1012D0006564202121003A20457874727564657236
:1012E000207377697463686564206F66662E204D8D
:1012F000494E54454D502074726967676572656444
:101300002021003A204578747275646572207377E5
:10131000697463686564206F66662E204D41585479
:10132000454D5020747269676765726564202100BD
:10133000C001FA00F001F5003002F0007002EB008D
:10134000A002E600C002E1001003DC005003D70059
:10135000E003D2009004CD008004C800E005BE0088
:101360006006B9004007AA00F008A000700B9600C4
:10137000F00D8C00E0108200E0137800F0176E0092
:10138000D0196900701B6400401E5F0010205A00D5
:10139000F025500080294600D0303C00A0323700B4
:1013A0001035320020392D0020392800703A2300F2
:1013B000A03B1E00A03C1900203D1600003F03008A
:1013C000202D20496E76616C696420657874727591
:1013D000646572206E756D626572202100202D207B
:1013E000496E76616C6964206578747275646572A3
:1013F000206E756D626572210020403A006F6B208F
:10140000543A00504944204175746F74756E6520DC
:101410006661696C656420212C2054656D7065726D
:10142000617475726520746F206869676800204B6D
:10143000643A2000204B693A2000204B703A20008B
:10144000204E6F206F76657273686F6F7420002076
:101450004B643A2000204B693A2000204B703A2020
:101460000020536F6D65206F76657273686F6F74BF
:101470002000204B643A2000204B693A2000204B8A
:10148000703A200020436C61736963205049442006
:10149000002054753A2000204B753A2000206D61E1
:1014A000783A2000206D696E3A200020643A2000CE
:1014B00020626961733A200070012C0190012701BC
:1014C000B0012201C0011D01F00118011002130139
:1014D00030020E016002090190020401C002FF0007
:1014E0000003FA004003F5008003F000D003EB0096
:1014F0002004E6007004E100E004DC004005D700B1
:10150000C005D2004006CD00D006C8008007C30049
:101510003008BE00F008B900C009B400B00AAF003E
:10152000B00BAA00D00CA500000EA000500F9B002D
:10153000C01096005012910000148C00C015870056
:10154000B0178200B0197D00D01B7800001E730018
:1015500040206E0090226900F024640040275F0064
:1015600090295A00E02B5500102E500020304B00DF
:1015700010324600E033410090353C001037370010
:1015800070383200A0392D00B03A2800A03B23006B
:10159000603C1E00103D1900903D1400103E0F00ED
:1015A000703E0A00C03E0500003F000001290229EC
:1015B000042908291029202940298029012C022CDE
:1015C00001260226042608261026202640268026EC
:1015D000402C802C012302230423082310232023E2
:1015E00040238023012002200420082010202020F6
:1015F00040208020102C202C012F022F042F082F98
:10160000102F202F402F802F7EFE7EFD7EFB7EF749
:101610007EEF7EDF7EBF7E7F000100004C16120051
:101620000200005E164300030000A1160401030936
:1016300004A5161802030904BF161603030904D7EC
:10164000160C0001C1020180360181361201000230
:1016500002000020C01683040001010203010902F8
:101660004300020100C0320904000001020201002F
:1016700005240010010524010001042402060524AC
:101680000600010705820308004009040100020A60
:101690000000000705030240000007058402400027
:1016A000000403090418035400650065006E00730C
:1016B0000079006400750069006E006F000000167C
:1016C000035500530042002000530065007200697A
:1016D0000061006C0000000C033100320033003464
:1016E0000035000000494E46494E4954594E414E7E
:1016F000CDCCCC3D0AD7233C17B7D13877CC2B3291
:101700009595E6241FB14F0A000020410000C84211
:1017100000401C4620BCBE4CCA1B0E5AAEC59D7470
:101720007B41CDAB744111241FBECFEFD0E2DEBFB1
:10173000CDBF13E0A0E0B1E0E8E5F3E601E00BBFC8
:1017400002C007900D92A03DB107D9F71BBE1EE065
:10175000A0EDB3E001C01D92AE3EB107E1F717E185
:10176000C4E2D7E104C02297FE010E9451B1C03209
:10177000D107C9F70E948BA80C949FB10C9400006C
:10178000A0E0B0E0E6ECFBE00C946EB1EC015B0194
:101790006115710519F0FB0191838083F9908F2DFC
:1017A00090E00E9455B1892BC9F7FDE2FF1621F4A4
:1017B000F990EE24E39405C02BE2F21609F4F990B7
:1017C000EE248E0101501040C80165EE76E143E041
:1017D00050E00E944F0E892B01F58E010E5F1F4FC6
:1017E000C80168EE76E145E050E00E944F0E892B7B
:1017F00019F48E01095F1F4FA114B10419F0F5010E
:1018000011830083E0FC04C070E090E080E814C025
:1018100070E090E080E86FEF08C1C8016DEE76E1FE
:1018200043E050E00E944F0E892B69F4A114B104EB
:1018300029F470E090E080EC6FE7F7C02296F501A4
:10184000D183C083F6CF8824992440E050E060E043
:1018500070E0EF2DE053EA30A0F5F2E0EF2A8E2D94
:1018600090E09C0128703070E2FE06C0232B79F5D1
:101870000894811C911C2BC0232B19F0089481081B
:101880009108DB01CA0112E0880F991FAA1FBB1F34
:101890001A95D1F7480F591F6A1F7B1F440F551F18
:1018A000661F771F4E0F511D611D711D483929E9B3
:1018B000520729E9620729E1720748F084E0E82A23
:1018C00006C0EE3F31F4E3FC39C098E0E92AF99014
:1018D000C0CFE53311F0E53189F529912D3219F4A6
:1018E000E0E1EE2A05C02B3219F081E090E003C060
:1018F000299182E090E0E22FE053EA3018F0C81B13
:10190000D90B1CC020E030E0FCE020383F075CF43D
:10191000C901880F991F880F991F280F391F220F9F
:10192000331F2E0F311DE991E053EA3068F3E4FED6
:1019300003C0309521953F4F820E931ECE2CDD249F
:10194000E1FE07C0A114B10421F02197F501D18374
:10195000C083CB01BA010E94BAAD7B018C01F3E0D8
:10196000CF22DD2423E0C216D10421F417FB109509
:1019700017F9109557016801C801B70120E030E060
:1019800040E050E00E941AAD882309F44AC097FE57
:101990000DC024E0E22E27E1F22E9094819491086C
:1019A0009394C0E2D0E000E010E012C09CE1E92E88
:1019B00097E1F92EF6CFF701259135914591549194
:1019C000C601B5010E94FAAF5B016C018C1A9D0A39
:1019D0008C169D0684F7D595C7950F5F1F4F06306F
:1019E000110529F08CEF9FEFE80EF91EF1CFC5012C
:1019F000D6017C018D018C2D880F8D2D881F8F3F86
:101A000051F0C601B50120E030E040E050E00E9416
:101A10001AAD882331F482E290E09093ED0E80932A
:101A2000EC0E7E2D9F2D802F612F272F392F482FD1
:101A3000562FB901CA01CDB7DEB7ECE00C948AB1DC
:101A40002F923F925F926F927F928F929F92AF926E
:101A5000BF92CF92DF92EF92FF920F931F93CF939B
:101A6000DF938C011B01EA016115710519F0FB017F
:101A700091838083209749F0CE010297839728F0C5
:101A800020E030E040E050E0F6C0F801A1908F0186
:101A90008A2D90E00E9455B1892BB9F7FDE2AF166F
:101AA00031F4F801A1908F015524539407C0FBE253
:101AB000AF1619F4F801A1908F015524209719F061
:101AC000C031D105C1F4F0E3AF1679F4F80180819B
:101AD000883711F0883549F4F801A1800E5F1F4F57
:101AE000F2E05F2AC0E1D0E006C0209721F480E355
:101AF000A816E9F427C0C830D10531F1C930D105A5
:101B000024F4C230D10531F50CC0CA30D10589F0BA
:101B1000C031D105F9F4C12CD12CE12CB8E0FB2E59
:101B200028C0C12CD12CE12CA0E4FA2E22C0CAE09E
:101B3000D0E0FCECCF2EFCECDF2EFCECEF2EFCE03A
:101B4000FF2E17C0C8E0D0E0C12CD12CE12CE0E181
:101B5000FE2E0FC09E01442737FD4095542F60E0B4
:101B600070E080E090E80E9412B1C901DA016C01D6
:101B70007D0120E030E040E050E060E03E0188245C
:101B800077FC8094982C70EDB72EBA0CE9E0EB1539
:101B900070F48A2D81548A3118F499ECB92E06C05C
:101BA0008A2D81568A3150F589EAB82EBA0C8B2DD0
:101BB00090E08C179D0714F56F3FE1F0C216D30635
:101BC000E406F506B0F0CA01B901A40193010E9430
:101BD000CCB09B01AC012B0D311D411D511D21309D
:101BE000F0E03F07F0E04F07F0E85F0710F461E036
:101BF00001C06FEFF801A1908F01C5CF211431040E
:101C000081F0662331F001501040F101118300830F
:101C100008C051FE1AC002501040F1011183008328
:101C200014C067FF12C050FC05C02FEF3FEF4FEF0D
:101C30005FE704C020E030E040E050E882E290E05E
:101C40009093ED0E8093EC0E16C050FE08C0509598
:101C50004095309521953F4F4F4F5F4F0CC057FF38
:101C60000AC082E290E09093ED0E8093EC0E2FEF8D
:101C70003FEF4FEF5FE7B901CA01DF91CF911F91AD
:101C80000F91FF90EF90DF90CF90BF90AF909F901B
:101C90008F907F906F905F903F902F900895FB0101
:101CA000DC014150504088F08D9181341CF08B351F
:101CB0000CF4805E659161341CF06B350CF4605E51
:101CC000861B611171F3990B0895881BFCCFFB01F2
:101CD000DC0104C08D910190801921F441505040E5
:101CE000C8F7881B990B0895FB01DC0102C0019025
:101CF0000D9241505040D8F70895FB01DC010D9042
:101D00000020E9F7119701900D920020E1F7089566
:101D1000FC018191861721F08823D9F7992708952E
:101D20003197CF010895FB01DC0101900D92002055
:101D3000E1F70895FB01DC014150504030F08D91F6
:101D40000190801919F40020B9F7881B990B0895A8
:101D5000FB01DC014150504048F001900D92002001
:101D6000C9F701C01D9241505040E0F70895FB01B2
:101D700051915523A9F0BF01DC014D914517411147
:101D8000E1F759F4CD010190002049F04D91401543
:101D90004111C9F3FB014111EFCF81E090E00197C0
:101DA0000895AEE0B0E0E7EDFEE00C9476B10D8969
:101DB0001E8986E08C831A8309838FEF9FE79E83B9
:101DC0008D839E01275E3F4FCE0101966F89788DEE
:101DD000A9010E94F50E2F813885020F131FF8010B
:101DE00010822E96E4E00C9492B1ABE0B0E0EBEF01
:101DF000FEE00C9468B13C012B015A01FC011782F2
:101E00001682838181FD03C06FEF7FEFC6C19AE028
:101E1000892E1E010894211C311CF3012381F2013B
:101E200023FD859123FF81912F01882309F4B2C1FD
:101E3000853239F423FD859123FF81912F0185326D
:101E400029F490E0B3010E94E810E7CF982FFF2417
:101E5000EE249924FFE1FF15D0F09B3269F09C320B
:101E600028F4903259F0933291F40EC09D3249F02B
:101E7000903369F441E024C052E0F52A84E0F82A66
:101E800028C098E0F92A25C0E0E1FE2A22C0F7FC2C
:101E900029C0892F80538A3070F4F6FE05C0989CC3
:101EA000902C1124980E15C0E89CE02C1124E80E0B
:101EB000F0E2FF2A0EC09E3229F4F6FC6BC140E42A
:101EC000F42A07C09C3619F450E8F52A02C0983667
:101ED00049F4F20123FD959123FF91912F0199235C
:101EE00009F0B8CF892F8554833018F080528330A1
:101EF00038F444E050E0A40EB51E5FE359830FC0F0
:101F0000933631F0933779F0933509F056C020C0FD
:101F1000F5018081898342E050E0A40EB51E610185
:101F200001E010E012C0F501C080D180F6FC03C0D2
:101F30006FEF7FEF02C0692D70E042E050E0A40E29
:101F4000B51EC6010E94DD108C015FE7F52214C0AA
:101F5000F501C080D180F6FC03C06FEF7FEF02C0B7
:101F6000692D70E042E050E0A40EB51EC6010E944B
:101F7000D2108C0150E8F52AF3FE07C01AC080E2A7
:101F800090E0B3010E94E810EA948E2D90E00817CB
:101F90001907A8F30EC0F601F7FC8591F7FE8191B1
:101FA0006F0190E0B3010E94E810E110EA94015043
:101FB00010400115110579F7EAC0943611F09936F1
:101FC00069F5F7FE08C0F501208131814281538116
:101FD00084E090E00AC0F501808191819C01442752
:101FE00037FD4095542F82E090E0A80EB91E9FE681
:101FF000F92257FF09C050954095309521953F4FE4
:102000004F4F5F4FE0E8FE2ACA01B901A1012AE063
:1020100030E00E941411D82ED21840C0953729F410
:102020001F2D1F7E2AE030E01DC01F2D197F9F3617
:1020300061F0903720F4983509F0ACC00FC09037AC
:1020400039F0983709F0A6C004C028E030E00AC093
:10205000106114FD146020E130E004C014FD16602E
:1020600020E132E017FF08C0F501608171818281B3
:10207000938144E050E008C0F50180819181BC016A
:1020800080E090E042E050E0A40EB51EA1010E9465
:102090001411D82ED2188FE7F82EF122F6FE0BC0BD
:1020A0005EEFF522D91438F4F4FE07C0F2FC05C047
:1020B0008FEEF82202C01D2D01C0192DF4FE0DC0B7
:1020C000FE01ED0DF11D8081803319F499EEF922A6
:1020D00008C01F5FF2FE05C003C08F2D867809F08F
:1020E0001F5F0F2DF3FC14C0F0FE0FC01E1510F083
:1020F0009D2C0BC09D2C9E0C911A1E2D06C080E2BB
:1021000090E0B3010E94E8101F5F1E15C0F304C0E9
:102110001E1510F4E11A01C0EE2404FF0FC080E385
:1021200090E0B3010E94E81002FF1DC001FD03C052
:1021300088E790E00EC088E590E00BC0802F86789D
:1021400091F001FF02C08BE201C080E2F7FC8DE25A
:1021500090E0B3010E94E81006C080E390E0B30174
:102160000E94E8109A94D914C0F3DA94F101ED0DAD
:10217000F11D808190E0B3010E94E810DD20A9F7F5
:1021800006C080E290E0B3010E94E810EA94EE20DD
:10219000C1F743CEF30166817781CB012B96E2E153
:1021A0000C9484B1FC010590615070400110D8F787
:1021B000809590958E0F9F1F0895FC01615070408F
:1021C00001900110D8F7809590958E0F9F1F08956C
:1021D0000F931F93CF93DF938C01EB018B8181FFD2
:1021E0001BC082FF0DC02E813F818C819D812817ED
:1021F000390764F4E881F9810193F983E88306C023
:10220000E885F985802F0995892B31F48E819F818E
:1022100001969F838E8302C00FEF1FEFC801DF91ED
:10222000CF911F910F910895FA01AA27283051F1FB
:10223000203181F1E8946F936E7F6E5F7F4F8F4FF7
:102240009F4FAF4FB1E03ED0B4E03CD0670F781F56
:10225000891F9A1FA11D680F791F8A1F911DA11D3B
:102260006A0F711D811D911DA11D20D009F4689474
:102270003F912AE0269F11243019305D3193DEF61C
:10228000CF010895462F4770405D4193B3E00FD0D2
:10229000C9F7F6CF462F4F70405D4A3318F0495DBD
:1022A00031FD4052419302D0A9F7EACFB4E0A695A0
:1022B0009795879577956795BA95C9F700976105C2
:1022C000710508959B01AC010A2E06945795479518
:1022D00037952795BA95C9F7620F731F841F951F0D
:1022E000A01D0895DF93CF930F92CDB7DEB7FC0109
:1022F0006983A081B18112962D913C911397BE0103
:102300006F5F7F4F41E050E0F90109950F90CF9149
:10231000DF910895FC01148A178A138A25EA33E0B5
:10232000328B218B14AA17AA13AA32AB21ABEE5A17
:10233000FF4F10823396108234971082329322938B
:10234000B196108233961082349710823293229382
:102350007F9689E1808333961082789610823A9630
:1023600010823396108234971082329322937E9695
:102370001082118212821382389610821182128288
:102380001382E45DF040118212821082E852FF4F06
:1023900081E08083E85DF040108A17860FB6F894DC
:1023A0008091DA0E9091DB0EA091DC0EB091DD0EE3
:1023B0000FBEE053FF4F88579C4EAF4FBF4F8083F7
:1023C0009183A283B3830895FC0111821282089540
:1023D000FC018281882311F081E081830895FC0152
:1023E0008181811111820895CF93DF93FC0187A928
:1023F0008250823000F1EF01E496DF01AE5ABF4F08
:102400008BE10D9009928150E1F7EF5AFF4F8081E7
:10241000E155F04083ABEF01CE5ADF4FDF01A05909
:10242000BF4F8BE10D9009928150E1F7E159FF4FC9
:1024300080817E978083DF91CF9108950F931F93C2
:102440008C010E94548E0E94318EF801118280E02E
:1024500091E00E94C84A1F910F910895CF93DF9396
:10246000DB010D900020E9F71197A61BB70BEC01DB
:10247000E881F9810280F381E02DAD010995DF91BA
:10248000CF910895FC0185EA93E091838083868152
:10249000882321F0CF0103960E94F5800895CF9202
:1024A000DF92EF92FF920F931F93DF93CF93CDB7FD
:1024B000DEB76E970FB6F894DEBF0FBECDBF8C01AE
:1024C0006B01DC01D7968C91882321F491E1E92EF0
:1024D000F12C03C081E3E82EF12CE00EF11E85EA19
:1024E00093E09A8389831B821F821C82B7016D5FF0
:1024F0007F4FCE010496A60121E00E94A987882380
:1025000049F5E3EEF0E064918F0108C082EE9EE0B1
:102510000E9472110F5F1F4FF80164916623B1F79B
:10252000E9EEF0E064918F0108C082EE9EE00E9427
:1025300072110F5F1F4FF80164916623B1F782EEAD
:102540009EE0B6010E942E1282EE9EE06AE00E949A
:10255000721133C0D801A059BF4FF801EE5AFF4F96
:102560008BE101900D928150E1F7F801E159FF4FA5
:102570000F5A1F4FD8018C91015510408083D8010C
:10258000AE5ABF4FF70133968BE101900D92815007
:10259000E1F70F5A1F4FF7018281D8018C93015543
:1025A0001040D801D496FE0134968BE101900D9233
:1025B0008150E1F78B81F80183ABCE0101960E9437
:1025C00042126E960FB6F894DEBF0FBECDBFCF910C
:1025D000DF911F910F91FF90EF90DF90CF900895C2
:1025E000EF92FF920F931F937C018C010F541F4FAA
:1025F000C8010E94A780C8010E94F580F7011082DF
:102600001F910F91FF90EF900895CF92DF92EF927C
:10261000FF920F931F93CF93DF937C016B01DB013C
:102620000D900020E9F78D0101501040061B170B9B
:10263000E1EBF0E0EE0EFF1ED7011C92EFE4FFEF9E
:10264000EE0EFF1ECB016EE470E00E94880EEC01DE
:10265000009731F4F8013197EC0DFD1D86010EC095
:1026600060E270E00E94880E8C010F5F1F4FCE0168
:102670006AE270E00E94880EFC0131978DE0818350
:102680008AE082831382C70182559F4FB8010E945E
:10269000AB8881EB90E0E80EF91ED7018C9188237E
:1026A00009F1EEEFF0E06491EF0107C082EE9EE0E9
:1026B0000E9472112196FE0164916623B9F7E5E04C
:1026C000F1E06491EF0107C082EE9EE00E9472117A
:1026D0002196FE0164916623B9F782EE9EE06AE0DE
:1026E0000E947211DF91CF911F910F91FF90EF9097
:1026F000DF90CF900895EF92FF920F93CF93DF93E7
:102700007C01FC018281882309F43FC0EDE2F1E005
:102710006491EF0107C082EE9EE00E947211219643
:10272000FE0164916623B9F784ED90E0E80EF91E8E
:10273000F70140815181628173818CE29FEFE80E45
:10274000F91E82EE9EE02AE000E00E94D8A8EBE2AB
:10275000F1E06491EF0107C082EE9EE00E947211E9
:102760002196FE0164916623B9F78CEC90E0E80EA7
:10277000F91EF701408151816281738182EE9EE0F2
:102780002AE000E00E94D8A80EC0EBE1F1E06491DD
:10279000EF0107C082EE9EE00E9472112196FE01B9
:1027A00064916623B9F782EE9EE06AE00E9472119E
:1027B000DF91CF910F91FF90EF9008952F923F926C
:1027C0004F925F926F927F928F929F92AF92BF9241
:1027D000CF92DF92EF92FF920F931F93DF93CF93ED
:1027E000CDB7DEB7AB970FB6F894DEBF0FBECDBF47
:1027F0005C014B01FC018281882309F400C1C50101
:102800008F549F4F0E94F580F5011182198A1C8A0E
:10281000188A85EA93E09F878E87C501419690AB21
:1028200087A7F40180818F3209F081C0C4016FE273
:1028300070E00E94880E7C010894E11CF11C3E01AE
:102840000894611C711C3EE0232E312C2C0E3D1E81
:1028500021E1422E512C4C0E5D1E64C0C7016FE277
:1028600070E00E94880E6C01009709F468C0E816B9
:10287000F90608F064C08C010E191F09C301B701E5
:10288000A8010E94A80E060D171DF801108282EE05
:102890009EE0B3010E942E1282EE9EE06AE00E944A
:1028A0007211F50167A570A96115710519F460E051
:1028B00070E002C06D5F7F4FC201A30121E00E9462
:1028C000A987882341F5E9E6F1E064917F0109C019
:1028D00082EE9EE00E9472110894E11CF11CF70147
:1028E00064916623A9F782EE9EE0BE016F5F7F4F81
:1028F0000E942E12E7E6F1E064917F0109C082EEAA
:102900009EE00E9472110894E11CF11CF701649191
:102910006623A9F76BC0F50130AA27A676010894B3
:10292000E11CF11CE114F10409F098CF05C0C501C8
:10293000C196F50190AB87A7D82C092D02C0DE2CDB
:102940000F2DF50187A590A9009719F480E090E07C
:1029500001C003966D2D702F0E947B88882301F1A2
:10296000E9E5F1E064917F0109C082EE9EE00E94FA
:1029700072110894E11CF11CF70164916623A9F718
:1029800082EE9EE06D2D702F0E942E1284ED90E05D
:10299000A80EB91EF50110821182128213822BC07B
:1029A000E1E4F1E064917F0109C082EE9EE00E94C3
:1029B00072110894E11CF11CF70164916623A9F7D8
:1029C00082EE9EE06D2D702F0E942E12EFE3F1E05B
:1029D00064917F0109C082EE9EE00E94721108940A
:1029E000E11CF11CF70164916623A9F782EE9EE0D9
:1029F0006AE00E947211CE010E960E944212AB96BE
:102A00000FB6F894DEBF0FBECDBFCF91DF911F91FF
:102A10000F91FF90EF90DF90CF90BF90AF909F907D
:102A20008F907F906F905F904F903F902F90089580
:102A30002F923F924F925F926F927F928F929F92CE
:102A4000AF92BF92CF92DF92EF92FF920F931F93BC
:102A5000DF93CF93CDB7DEB7AC970FB6F894DEBF58
:102A60000FBECDBF5C014B014CA7FC0182818823C6
:102A700009F4ADC151EB452E512C4A0C5B1CC2012F
:102A80000E94F580F5011182198A1C8A188A85EA4C
:102A900093E09F878E87C501419690AB87A7F4018D
:102AA00080818F3209F080C0C4016FE270E00E9423
:102AB000880E7C010894E11CF11C3E010894611C05
:102AC000711C41E1242E312C2C0E3D1E68C0C70123
:102AD0006FE270E00E94880E6C01009709F46CC0F0
:102AE000E816F90608F068C08C010E191F09C30129
:102AF000B701A8010E94A80E060D171DF80110824B
:102B000082EE9EE0B3010E942E1282EE9EE06AE009
:102B10000E947211F50167A570A96115710519F47C
:102B200060E070E002C06D5F7F4FC101A30121E052
:102B30000E94A987882341F5EFEDF1E064917F01C0
:102B400009C082EE9EE00E9472110894E11CF11C03
:102B5000F70164916623A9F782EE9EE0BE016F5FE4
:102B60007F4F0E942E12EDEDF1E064917F0109C0CC
:102B700082EE9EE00E9472110894E11CF11CF701A4
:102B800064916623A9F7F8C02EE030E02C0F3D1FBA
:102B9000F50130AB27A776010894E11CF11CE11484
:102BA000F10409F094CF05C0C501C196F50190ABC1
:102BB00087A7D82CC92C02C0DE2CCF2CF50167A525
:102BC00070A9FCA5FF2309F4A1C06115710519F4D2
:102BD00060E070E002C06D5F7F4FC2014D2D5C2D43
:102BE00021E00E94A987882309F469C0A501445304
:102BF0005F4F22EC30E0A20EB31EF501808191817F
:102C0000A281B3812EE33FEFA20EB31EFA018083AF
:102C10009183A283B383E0EDF1E064917F0109C069
:102C200082EE9EE00E9472110894E11CF11CF701F3
:102C300064916623A9F782EE9EE06D2D7C2D0E94A3
:102C40002E12E9ECF1E064917F0109C082EE9EE072
:102C50000E9472110894E11CF11CF7016491662333
:102C6000A9F72CEC30E0A20EB31EF5014081518192
:102C70006281738182EE9EE02AE000E00E94D8A883
:102C800082EE9EE06AE00E94721128E030E0A20E1F
:102C9000B31EF5011082118212821382EBEBF1E078
:102CA00064917F0109C082EE9EE00E947211089437
:102CB000E11CF11CF70164916623A9F77BC0E7EAE8
:102CC000F1E064917F0109C082EE9EE00E947211E2
:102CD0000894E11CF11CF70164916623A9F782EEC8
:102CE0009EE06D2D7C2D0E942E12E5EAF1E06491AC
:102CF0007F0109C082EE9EE00E9472110894E11CDF
:102D0000F11CF70164916623A9F736C061157105BE
:102D100019F460E070E002C06D5F7F4FC2014D2D7D
:102D20005C2D26E50E94A987882361F5E1E9F1E0A1
:102D300064917F0109C082EE9EE00E9472110894A6
:102D4000E11CF11CF70164916623A9F782EE9EE075
:102D50006D2D7C2D0E942E12EFE8F1E064917F0131
:102D600009C082EE9EE00E9472110894E11CF11CE1
:102D7000F70164916623A9F782EE9EE06AE00E9463
:102D8000721121C081E0F5018083EDE7F1E06491EB
:102D90007F0109C082EE9EE00E9472110894E11C3E
:102DA000F11CF70164916623A9F782EE9EE0B4015D
:102DB0000E942E1282EE9EE06AE00E9472118D2D1A
:102DC0009C2D0E948241CE010E960E944212AC962A
:102DD0000FB6F894DEBF0FBECDBFCF91DF911F912C
:102DE0000F91FF90EF90DF90CF90BF90AF909F90AA
:102DF0008F907F906F905F904F903F902F900895AD
:102E0000CF93DF93FC01419690AB87A7CF01C49687
:102E1000E057FF4FBF010E949C83882399F4E3EFA2
:102E2000F1E06491EF0107C082EE9EE00E94721112
:102E30002196FE0164916623B9F782EE9EE06AE076
:102E40000E947211DF91CF910895EF92FF920F933C
:102E50001F93CF93DF937C01FC0112828789882323
:102E600021F0C70144960E94F580870105571F4F46
:102E7000C80160E04AE10E94977E8823E9F4E3EE0E
:102E8000F0E06491EF0107C082EE9EE00E947211B3
:102E90002196FE0164916623B9F7E9E4F2E06491BA
:102EA000EF0107C082EE9EE00E9472112196FE01A2
:102EB00064916623B9F771C0E701C057DF4FCE01B7
:102EC000B80141E00E944089882321F5CE01B80174
:102ED00040E00E9440898823E9F4EEEFF0E064913D
:102EE000EF0107C082EE9EE00E9472112196FE0162
:102EF00064916623B9F7E6E3F2E06491EF0107C05D
:102F000082EE9EE00E9472112196FE01649166237A
:102F1000B9F743C0C7014496BE010E949C83882331
:102F2000E9F4EEEFF0E06491EF0107C082EE9EE07D
:102F30000E9472112196FE0164916623B9F7E6E2C0
:102F4000F2E06491EF0107C082EE9EE00E947211F0
:102F50002196FE0164916623B9F71FC081E0F70155
:102F60008283E3EEF0E06491EF0107C082EE9EE021
:102F70000E9472112196FE0164916623B9F7EBE17C
:102F8000F2E06491EF0107C082EE9EE00E947211B0
:102F90002196FE0164916623B9F782EE9EE06AE015
:102FA0000E947211C7014196F70190AB87A7C70134
:102FB000C49620E930E0E20EF31EB7010E949C8324
:102FC000882399F4E7E0F2E06491EF0107C082EE14
:102FD0009EE00E9472112196FE0164916623B9F76A
:102FE00082EE9EE06AE00E947211DF91CF911F9104
:102FF0000F91FF90EF9008952F923F924F925F9222
:103000007F928F929F92AF92BF92CF92DF92EF9278
:10301000FF920F931F93DF93CF93CDB7DEB7CC55BD
:10302000D0400FB6F894DEBF0FBECDBF7C01662343
:1030300059F528ED30E0E20EF31ED7018C91E8E25D
:10304000FFEFEE0EFF1E882309F4F3C00FB6F894CD
:103050002091DA0E3091DB0E4091DC0E5091DD0EA6
:103060000FBE60ED70E0E60EF71EF70180819181E2
:10307000A281B38160E37FEFE60EF71E821793070C
:10308000A407B50708F4D5C088ED90E0E80EF91E56
:10309000D7011C92E8E2FFEFEE0EFF1ED701129659
:1030A0008C91882341F4C7010E942517F701828182
:1030B000882309F4BEC000D000D000D0EDB7FEB721
:1030C00031968E010F5F1F4FADB7BEB712961C939E
:1030D0000E9311978CE091E093838283D7011F9622
:1030E0008D919C915097958384830E94D10ECC241E
:1030F000DD24EDB7FEB736960FB6F894FEBF0FBECF
:10310000EDBF58010AC0D8018C91992787FD909591
:103110000E945DB1F80181938F01C601F501019014
:103120000020E9F73197EA19FB090894C11CD11C6A
:103130008E179F0744F3E4E18E2E912C8E0C9F1C7A
:10314000C40140E050E060E070E00E94DD7F772441
:103150007DE3A72EB12CAC0EBD1E1E010894211CD0
:10316000311C6FE1462E512C4C0E5D1E48C0D6011D
:103170008C9190E00E945DB1F60181936F01C801CE
:10318000F50101900020E9F73197EA19FB090F5F7B
:103190001F4F8E179F075CF327968FAD27978E37AB
:1031A00071F1C501B10145E050E00E949A0E00970F
:1031B00031F500D000D000D0EDB7FEB73196ADB7F5
:1031C000BEB712965C924E92119725E131E033839F
:1031D0002283358224820E94D10E6DB77EB76A5F4A
:1031E0007F4F0FB6F8947EBF0FBE6DBFC2010E9425
:1031F000C84A8CE191E00E94C84A77247394C401C4
:10320000B5010E941283181624F4650100E010E055
:10321000B6CF772041F48FEF9FEFD70150969C9364
:103220008E931F9706C0F701878590890196908B32
:103230008787C45ADF4F0FB6F894DEBF0FBECDBFED
:10324000CF91DF911F910F91FF90EF90DF90CF9082
:10325000BF90AF909F908F907F905F904F903F90E6
:103260002F9008952F923F924F925F926F927F928C
:103270008F929F92AF92BF92CF92DF92EF92FF9286
:103280000F931F93DF93CF93CDB7DEB7CB58D040CA
:103290000FB6F894DEBF0FBECDBF6C012B015A01F3
:1032A00083E090E0A80EB91EF6013396CC57DF4FAD
:1032B000F983E883C458D040CA57DF4F1882C658F4
:1032C000D04014E6E12EF12CEC0EFD1EC7010B964A
:1032D000C957DF4F99838883C758D040B9ED6B2E0B
:1032E000712C6C0C7D1CABED8A2E912C8C0C9D1CD2
:1032F000F6E42F2E312C2C0E3D1EF1013396C757CC
:10330000DF4FF983E883C958D040E3EEF0E08491C1
:10331000C557DF4F8883CB58D04026C1F70183853E
:10332000482F50E0BA01687170706031710509F082
:1033300023C1F301208131812130310509F41CC101
:103340002230310509F418C1F701DE011196908190
:10335000903239F08E2F8E19883011F48EE28D93D1
:103360009D933196C957DF4F88819981C758D040C6
:10337000E817F90761F71C921E86F2018081882305
:1033800031F4CE010E9660E271E00E947D0ECE0116
:103390000E96B2010E947D0ECE010E96BE016F5FA9
:1033A0007F4F0E947D0ECE010E9660E271E00E947A
:1033B0007D0E1BA61EA61AA685EA93E099A788A7EC
:1033C000CE018B96B501AE014F5F5F4F21E00E94A9
:1033D000A987882371F5F30180819181892B49F5B3
:1033E000C557DF4F6881CB58D04003EE10E008C0CE
:1033F00082EE9EE00E9472110F5F1F4FF8016491F0
:103400006623B1F782EE9EE062E271E00E942E1226
:1034100082EE9EE06AE00E94721182EE9EE0BE01A2
:103420006F5F7F4F0E942E1282EE9EE06AE00E9444
:103430007211C757DF4FA881B981C958D040FE012A
:10344000BB968BE101900D928150E1F78AA5F101C5
:10345000828385EA93E091838083C601BE01625F27
:103460007F4FA1010E943219C1010E944212CE0178
:1034700088960E94421278C0953E09F475C09E322B
:1034800009F472C09F3509F46FC043FD6DC080E040
:103490006031710509F481E0F6018687882349F4DB
:1034A000F7018085873409F05FC081858E3709F484
:1034B0005BC0CC57DF4FA881B981C458D040F70119
:1034C0008081803241F08E2F8E19883011F48EE287
:1034D0008D9380818D933196C957DF4F8881998173
:1034E000C758D040E817F90759F71C92F3018081BB
:1034F00091810097A9F482EE9EE0B2010E942E1203
:1035000082EE9EE0CC57DF4F68817981C458D0406D
:103510000E942E1282EE9EE06AE00E94721124C088
:103520008130910539F4F401808191810196918374
:1035300080831AC00297C1F4CA57DF4FF881C6587A
:10354000D0402F2F30E0F401808191812817390776
:10355000C1F0CA57DF4FF881C658D040FF5FCA5745
:10356000DF4FF883C658D040C501B7010E941283CF
:1035700018160CF4D3CE05C0F7019081992309F0F9
:103580007BCFC557DF4F0FB6F894DEBF0FBECDBF60
:10359000CF91DF911F910F91FF90EF90DF90CF902F
:1035A000BF90AF909F908F907F906F905F904F9063
:1035B0003F902F900895EF92FF920F931F93DF9308
:1035C000CF93CDB7DEB76E970FB6F894DEBF0FBEC0
:1035D000CDBF7C01C196F70190AB87A789ED90E044
:1035E000E80EF91E81E090E0F701819391937F014D
:1035F0001182108285E29FEFE80EF91EC701C49682
:1036000040E050E060E070E00E94DD7FF70127A518
:1036100030A9DE011496F90133968BE101900D92E9
:103620008150E1F7F90182818B8385EA93E09A83E7
:103630008983C70165E371E08E010F5F1F4FA80109
:103640000E943219C8010E944212F701E552FF4F51
:10365000808191816E960FB6F894DEBF0FBECDBF0C
:10366000CF91DF911F910F91FF90EF9008950F93ED
:103670001F93DF93CF93CDB7DEB76E970FB6F89455
:10368000DEBF0FBECDBF8C01C196F80190AB87A7FE
:1036900007521F4F82E090E0F80191838083095D1B
:1036A0001040F801E552FF4F60831182C801C496B3
:1036B00040E050E060E070E00E94DD7FF80127A567
:1036C00030A9DE011496F90133968BE101900D9239
:1036D0008150E1F7F90182818B8385EA93E09A8337
:1036E0008983C80165E371E08E010F5F1F4FA80158
:1036F0000E943219C8010E9442126E960FB6F894C9
:10370000DEBF0FBECDBFCF91DF911F910F91089506
:10371000EF92FF920F931F93DF93CF93CDB7DEB756
:103720006E970FB6F894DEBF0FBECDBF7C0189ED5A
:1037300090E0E80EF91EF7011182108287E29FEFF8
:10374000E80EF91E87010C5E1F4FC80140E050E0F3
:1037500060E070E00E94DD7FDE011496F8018BE1ED
:1037600001900D928150E1F7F70183898B8385EAFF
:1037700093E09A838983C70165E371E08E010F5F4F
:103780001F4FA8010E943219C8010E9442126E9672
:103790000FB6F894DEBF0FBECDBFCF91DF911F9162
:1037A0000F91FF90EF9008950F931F93DF93CF93A6
:1037B000CDB7DEB728970FB6F894DEBF0FBECDBFEA
:1037C0008091360190913701A0913801B091390173
:1037D00089839A83AB83BC8380E090E09E012F5F56
:1037E0003F4FF901E80FF91FE081F999FECF1FBAA9
:1037F0008C599F4F92BD81BDE0BD0FB6F894FA9AE7
:10380000F99A0FBE835690408430910551F7E6EF48
:10381000F6E088E690E02191F999FECF1FBA92BDBB
:1038200081BD20BD0FB6F894FA9AF99A0FBE0196A1
:1038300027E0E630F20779F7E6EEF6E088E790E079
:103840002191F999FECF1FBA92BD81BD20BD0FB65F
:10385000F894FA9AF99A0FBE019626E0E63FF2072D
:1038600079F7E6E0F7E088E890E02191F999FECF5A
:103870001FBA92BD81BD20BD0FB6F894FA9AF99A8D
:103880000FBE019627E0E631F20779F7EAE1F7E0AB
:1038900088E990E02191F999FECF1FBA92BD81BDD0
:1038A00020BD0FB6F894FA9AF99A0FBE019627E058
:1038B000EE31F20779F7EEE1F7E08CE990E0219143
:1038C000F999FECF1FBA92BD81BD20BD0FB6F89405
:1038D000FA9AF99A0FBE019627E0E232F20779F7D9
:1038E000E6E1F7E080EA90E02191F999FECF1FBA76
:1038F00092BD81BD20BD0FB6F894FA9AF99A0FBE19
:10390000019627E0EA31F20779F7EEE2F7E084EA80
:1039100090E02191F999FECF1FBA92BD81BD20BDE3
:103920000FB6F894FA9AF99A0FBE019627E0E2339F
:10393000F20779F7E2EEF6E088EA90E02191F99952
:10394000FECF1FBA92BD81BD20BD0FB6F894FA9A82
:10395000F99A0FBE019626E0E63EF20779F7E2E219
:10396000F7E08CEA90E02191F999FECF1FBA92BD61
:1039700081BD20BD0FB6F894FA9AF99A0FBE019650
:1039800027E0E632F20779F7E6E2F7E080EB90E035
:103990002191F999FECF1FBA92BD81BD20BD0FB60E
:1039A000F894FA9AF99A0FBE019627E0EA32F207E4
:1039B00079F7EAE2F7E084EB90E02191F999FECF04
:1039C0001FBA92BD81BD20BD0FB6F894FA9AF99A3C
:1039D0000FBE019627E0EE32F20779F7EDEEF2E046
:1039E00088EB90E02191F999FECF1FBA92BD81BD7D
:1039F00020BD0FB6F894FA9AF99A0FBE019622E00C
:103A0000E13FF20779F7E1EFF2E08CEB90E02191F2
:103A1000F999FECF1FBA92BD81BD20BD0FB6F894B3
:103A2000FA9AF99A0FBE019622E0E53FF20779F77C
:103A3000E5EFF2E080EC90E02191F999FECF1FBA1A
:103A400092BD81BD20BD0FB6F894FA9AF99A0FBEC7
:103A5000019622E0E93FF20779F780913A019091CF
:103A60003B01A0913C01B0913D018D839E83AF83CA
:103A7000B88780E090E09E012B5F3F4FF901E80F8F
:103A8000F91FE081F999FECF1FBA8C599F4F92BD63
:103A900081BDE0BD0FB6F894FA9AF99A0FBE83562D
:103AA00090408430910551F7EDE3F3E064918F018C
:103AB00008C082EE9EE00E9472110F5F1F4FF80156
:103AC00064916623B1F7E3E4F3E064918F0108C0E9
:103AD00082EE9EE00E9472110F5F1F4FF801649109
:103AE0006623B1F782EE9EE06AE00E94721128968A
:103AF0000FB6F894DEBF0FBECDBFCF91DF911F91FF
:103B00000F910895CF93DF930FB6F8948091DA0E5A
:103B10009091DB0EA091DC0EB091DD0E0FBE809374
:103B2000180590931905A0931A05B0931B05E09111
:103B30004105F0914205ED5BFA4F8081882399F4AD
:103B4000EFE0F7E06491EF0107C082EE9EE00E9493
:103B500072112196FE0164916623B9F782EE9EE010
:103B60006AE00E947211DF91CF910895CF93DF93A5
:103B7000EC01FC0164910DC0E091D904F091DA04EC
:103B80000190F081E02D89ED94E009952196FE01E8
:103B90006491662389F7DF91CF910895FC01249108
:103BA000A3ECB2E004C02D930196FC0124912223E2
:103BB00021F0F2E0A73DBF07B1F71C9208953998B4
:103BC0004198389840983A984298419A409A429A37
:103BD000089566B1669560956170309B62600FB61E
:103BE000F8942091DA0E3091DB0E4091DC0E50916A
:103BF000DD0E0FBE8091000590910105A091020598
:103C0000B091030582179307A407B50710F4329B00
:103C100064606093D4042091D40421708091D40412
:103C200081FD2260422F552747FD50958091D70492
:103C30009091D8044817590789F12130D9F02230E2
:103C40001CF4222331F02AC0223049F0233031F510
:103C50000BC08130910589F0029701F516C00097DD
:103C600061F00397D9F411C08230910531F00197CA
:103C7000A9F40BC08330910531F48091D504909163
:103C8000D604019607C0892B49F48091D504909100
:103C9000D60401979093D6048093D5045093D8040A
:103CA0004093D70408950F931F93FC0160817181A5
:103CB000828193810E9489AD8B019C01CB0164E6D6
:103CC00070E00E94FFB0CB016AE070E00E94FFB09C
:103CD000805D8093F804C8016AE070E00E94FFB044
:103CE000CB016AE070E00E94FFB0805D8093F90430
:103CF000C8016AE070E00E94FFB0805D8093FA0422
:103D00001092FB0488EF94E01F910F910895FC013D
:103D10002081822F90E06AE070E00E94FFB0CB012A
:103D20006AE070E00E94FFB0805D8093F804822F0B
:103D300090E06AE070E00E94FFB0805D8093F9043B
:103D40001092FA0488EF94E00895FC01808191813B
:103D500064E670E00E94FFB0CB016AE070E00E9470
:103D6000FFB0805D8093F804808191816AE070E00B
:103D70000E94FFB0CB016AE070E00E94FFB0805D5E
:103D80008093F904808191816AE070E00E94FFB025
:103D9000805D8093FA041092FB0488EF94E008950C
:103DA000FC018081918168EE73E00E94FFB0CB013D
:103DB0006AE070E00E94FFB0805D8093F80480812B
:103DC000918164E670E00E94FFB0CB016AE070E090
:103DD0000E94FFB0805D8093F904808191816AE048
:103DE00070E00E94FFB0CB016AE070E00E94FFB07B
:103DF000805D8093FA04808191816AE070E00E9486
:103E0000FFB0805D8093FB041092FC0488EF94E087
:103E10000895FC01608171818281938120E030E00E
:103E200040E251E40E94FAAF0E9489AD9B0177FF06
:103E300002C08DE201C08BE28093F80437FF03C01B
:103E4000309521953F4FC90160E177E20E94FFB0B4
:103E5000CB016AE070E00E94FFB0805D8093F904BE
:103E6000C90168EE73E00E94FFB0CB016AE070E028
:103E70000E94FFB0805D8093FA04C90164E670E09F
:103E80000E94FFB0CB016AE070E00E94FFB0805D4D
:103E90008093FB04C9016AE070E00E94FFB0CB018F
:103EA0006AE070E00E94FFB0805D8093FC048EE2C7
:103EB0008093FD04C9016AE070E00E94FFB0805D5C
:103EC0008093FE041092FF0488EF94E00895FC01B3
:103ED000608171818281938120E030E048EC52E47E
:103EE0000E94FAAF0E9489AD9B0177FF02C08DE26C
:103EF00001C08BE28093F80437FF03C03095219511
:103F00003F4FC90160E177E20E94FFB0CB016AE058
:103F100070E00E94FFB0805D8093F904C90168EEF3
:103F200073E00E94FFB0CB016AE070E00E94FFB036
:103F3000805D8093FA04C90164E670E00E94FFB0DE
:103F4000CB016AE070E00E94FFB0805D8093FB04CB
:103F50008EE28093FC04C9016AE070E00E94FFB029
:103F6000CB016AE070E00E94FFB0805D8093FD04A9
:103F7000C9016AE070E00E94FFB0805D8093FE049A
:103F80001092FF0488EF94E008956F927F929F92C1
:103F9000AF92BF92CF92DF92EF92FF920F931F9357
:103FA000CF93DF93EC018A85882361F00E941A6B1E
:103FB000882399F48091D103882379F481E08C835C
:103FC0001A860BC00E941A6B882321F48091D103BA
:103FD000882319F081E08C838A8798858F819817D0
:103FE00019F48C81882331F081E08C8389ED94E091
:103FF0000E9402A3FF2422E0622E712CE6E5F2E08B
:104000009490EDE5F2E0E49094E0A92EB12C85E0E7
:10401000C82ED12C21E0F21609F43DC02F151CF05A
:10402000FF2051F0D6C032E0F31609F469C083E0F6
:10403000F81609F0CEC093C08C81882351F089ED29
:1040400094E060E040E00E94D3A287EC92E00E94FE
:10405000B61D8881882309F0DDC08091D40482FFD9
:10406000D9C00FB6F8948091DA0E9091DB0EA09132
:10407000DC0EB091DD0E0FBE8C509E4FAF4FBF4F88
:104080008093000590930105A0930205B09303056A
:104090001A821982BFC08C81882381F089ED94E057
:1040A00060E041E00E94D3A28A85882319F48CEB5A
:1040B00092E002C081EB92E00E94B61D88818130BF
:1040C00009F0A8C08091D40482FFA4C00FB6F89470
:1040D0008091DA0E9091DB0EA091DC0EB091DD0E96
:1040E0000FBE8C509E4FAF4FBF4F809300059093F3
:1040F0000105A0930205B09303057A8269828AC004
:104100008C81882351F089ED94E060E042E00E94C8
:10411000D3A286EA92E00E94B61D8881823009F01F
:1041200079C08091D40482FF75C00FB6F894809155
:10413000DA0E9091DB0EA091DC0EB091DD0E0FBE79
:104140008C509E4FAF4FBF4F809300059093010559
:10415000A0930205B0930305BA82A9825BC08C814B
:10416000882389F089ED94E060E043E00E94D3A2C7
:104170008091D103882319F086E992E002C086E895
:1041800092E00E94B61D8881833009F043C080917F
:10419000D40482FF3FC080ED93E00E941E120FB650
:1041A000F8948091DA0E9091DB0EA091DC0EB09124
:1041B000DD0E0FBE8C509E4FAF4FBF4F809300055A
:1041C00090930105A0930205B0930305DA82C9829A
:1041D00021C0692D06E512E008C082EE9EE00E9433
:1041E00072110F5F1F4FF80164916623B1F76E2DB6
:1041F0000DE512E008C082EE9EE00E9472110F5F92
:104200001F4FF80164916623B1F782EE9EE06AE0E9
:104210000E947211F394F4E0FF1609F0FBCE898539
:10422000882309F07BC08F8188870091D504109185
:10423000D6041C828D819E819801281B390BC901EF
:104240000496099708F06AC089ED94E060E048811F
:104250000E94D3A2E091D904F091DA040190F08198
:10426000E02D89ED94E060E2099517FF07C08F818A
:1042700081508F8387FF4FC01F824DC005311105CC
:1042800044F08F818F5F8F8318160CF41F820FE02C
:1042900010E01093D6040093D5048091D50490913A
:1042A000D6049E838D83C80165E070E00E94FFB054
:1042B000688367FD18828881843014F083E08883E6
:1042C0008881843014F083E0888398858F819817E3
:1042D00011F081E08C8389ED94E060E048810E94D8
:1042E000D3A22F81332727FD30958881992787FD19
:1042F0009095280F391F232B11F463E001C06EE362
:10430000E091D904F091DA040190F081E02D89ED7B
:1043100094E0099503C004E010E0BBCFDF91CF919A
:104320001F910F91FF90EF90DF90CF90BF90AF90D3
:104330009F907F906F900895EF92FF920F93CF938D
:10434000DF933DE3E32E33E0F32EF7016491E701C1
:1043500007C082EE9EE00E9472112196FE016491D8
:104360006623B9F7EBEEF4E06491EF0107C082EE4B
:104370009EE00E9472112196FE0164916623B9F7B6
:1043800082EE9EE06AE00E947211F7016491CDE333
:10439000D3E007C082EE9EE00E9472112196FE01DA
:1043A00064916623B9F7E3EEF4E06491EF0107C08E
:1043B00082EE9EE00E9472112196FE0164916623B6
:1043C000B9F74091F6065091F7066091F8067091A2
:1043D000F90682EE9EE022E00E9477A9E0EEF4E08A
:1043E0006491EF0107C082EE9EE00E947211219657
:1043F000FE0164916623B9F74091FA065091FB06DD
:104400006091FC067091FD0682EE9EE022E00E9423
:1044100077A9EDEDF4E06491EF0107C082EE9EE034
:104420000E9472112196FE0164916623B9F74091B2
:10443000FE065091FF06609100077091010782EE21
:104440009EE022E00E9477A9EAEDF4E06491EF019A
:1044500007C082EE9EE00E9472112196FE016491D7
:104460006623B9F740910207509103076091040752
:104470007091050782EE9EE022E00E9477A982EE0D
:104480009EE06EE371E00E942E1282EE9EE06AE0F2
:104490000E947211F7016491CDE3D3E007C082EE70
:1044A0009EE00E9472112196FE0164916623B9F785
:1044B000E0ECF4E06491EF0107C082EE9EE00E9420
:1044C00072112196FE0164916623B9F782EE9EE097
:1044D0006AE00E947211F7016491CDE3D3E007C056
:1044E00082EE9EE00E9472112196FE016491662385
:1044F000B9F7E7EBF4E06491EF0107C082EE9EE0CC
:104500000E9472112196FE0164916623B9F74091D1
:10451000E6065091E7066091E8067091E90682EEA2
:104520009EE022E00E9477A9E4EBF4E06491EF01C1
:1045300007C082EE9EE00E9472112196FE016491F6
:104540006623B9F74091EA065091EB066091EC06BC
:104550007091ED0682EE9EE022E00E9477A9E1EBE9
:10456000F4E06491EF0107C082EE9EE00E947211B8
:104570002196FE0164916623B9F74091EE065091B1
:10458000EF066091F0067091F10682EE9EE022E067
:104590000E9477A9EEEAF4E06491EF0107C082EE91
:1045A0009EE00E9472112196FE0164916623B9F784
:1045B0004091F2065091F3066091F4067091F50671
:1045C00082EE9EE022E00E9477A982EE9EE06EE3FA
:1045D00071E00E942E1282EE9EE06AE00E9472114B
:1045E000F7016491CDE3D3E007C082EE9EE00E9424
:1045F00072112196FE0164916623B9F7E0E9F4E0B7
:104600006491EF0107C082EE9EE00E947211219634
:10461000FE0164916623B9F782EE9EE06AE00E9493
:104620007211F7016491CDE3D3E007C082EE9EE002
:104630000E9472112196FE0164916623B9F7E7E8A2
:10464000F4E06491EF0107C082EE9EE00E947211D7
:104650002196FE0164916623B9F7409106075091B7
:104660000707609108077091090782EE9EE02AE033
:1046700000E00E94D8A8E4E8F4E06491EF0107C0EC
:1046800082EE9EE00E9472112196FE0164916623E3
:10469000B9F740910A0750910B0760910C07709190
:1046A0000D0782EE9EE02AE000E00E94D8A8E1E833
:1046B000F4E06491EF0107C082EE9EE00E94721167
:1046C0002196FE0164916623B9F740910E0750913F
:1046D0000F07609110077091110782EE9EE02AE0AB
:1046E00000E00E94D8A8EEE7F4E06491EF0107C073
:1046F00082EE9EE00E9472112196FE016491662373
:10470000B9F7409112075091130760911407709107
:10471000150782EE9EE02AE000E00E94D8A882EE13
:104720009EE06EE371E00E942E1282EE9EE06AE04F
:104730000E947211F7016491CDE3D3E007C082EECD
:104740009EE00E9472112196FE0164916623B9F7E2
:10475000E9E4F4E06491EF0107C082EE9EE00E947C
:1047600072112196FE0164916623B9F782EE9EE0F4
:104770006AE00E947211F7016491CDE3D3E007C0B3
:1047800082EE9EE00E9472112196FE0164916623E2
:10479000B9F7E0E4F4E06491EF0107C082EE9EE037
:1047A0000E9472112196FE0164916623B9F740912F
:1047B0001A0750911B0760911C0770911D0782EE2C
:1047C0009EE022E00E9477A9EDE3F4E06491EF011E
:1047D00007C082EE9EE00E9472112196FE01649154
:1047E0006623B9F740911E0750911F07609120077B
:1047F0007091210782EE9EE022E00E9477A982EE6E
:104800009EE06EE371E00E942E1282EE9EE06AE06E
:104810000E947211F7016491CDE3D3E007C082EEEC
:104820009EE00E9472112196FE0164916623B9F701
:10483000E4EAF3E06491EF0107C082EE9EE00E949B
:1048400072112196FE0164916623B9F782EE9EE013
:104850006AE00E947211F7016491CDE3D3E007C0D2
:1048600082EE9EE00E9472112196FE016491662301
:10487000B9F7EBE9F3E06491EF0107C082EE9EE047
:104880000E9472112196FE0164916623B9F740914E
:10489000160750911707609118077091190782EE5B
:1048A0009EE022E00E9477A9E8E9F3E06491EF013D
:1048B00007C082EE9EE00E9472112196FE01649173
:1048C0006623B9F740912E0750912F07609130076A
:1048D0007091310782EE9EE022E00E9477A9E5E91F
:1048E000F3E06491EF0107C082EE9EE00E94721136
:1048F0002196FE0164916623B9F74091E20650913A
:10490000E3066091E4067091E50682EE9EE02AE0FF
:1049100000E00E94D8A8E2E9F3E06491EF0107C04B
:1049200082EE9EE00E9472112196FE016491662340
:10493000B9F74091220750912307609124077091A5
:10494000250782EE9EE022E00E9477A9EFE8F3E0DF
:104950006491EF0107C082EE9EE00E9472112196E1
:10496000FE0164916623B9F740912607509127070D
:10497000609128077091290782EE9EE022E00E9454
:1049800077A9ECE8F3E06491EF0107C082EE9EE0C6
:104990000E9472112196FE0164916623B9F740913D
:1049A0002A0750912B0760912C0770912D0782EEFA
:1049B0009EE022E00E9477A982EE9EE06EE371E025
:1049C0000E942E1282EE9EE06AE00E947211F701B0
:1049D0006491CDE3D3E007C082EE9EE00E947211A5
:1049E0002196FE0164916623B9F7EEE7F3E0649146
:1049F000EF0107C082EE9EE00E9472112196FE0137
:104A000064916623B9F782EE9EE06AE00E9472111B
:104A1000F7016491CDE3D3E007C082EE9EE00E94EF
:104A200072112196FE0164916623B9F7E4E7F3E081
:104A30006491EF0107C082EE9EE00E947211219600
:104A4000FE0164916623B9F74091ED025091EE02A8
:104A50006091EF027091F00282EE9EE022E00E94EF
:104A600077A9E1E7F3E06491EF0107C082EE9EE0F1
:104A70000E9472112196FE0164916623B9F760913C
:104A8000F1027091F2028091F3029091F4022DEB09
:104A900037E346E05EE30E9421ADAB01BC0182EE4C
:104AA0009EE022E00E9477A9EEE6F3E06491EF0138
:104AB00007C082EE9EE00E9472112196FE01649171
:104AC0006623B9F76091F5027091F6028091F702C2
:104AD0009091F8022DEB37E346E05EE30E94FAAFD7
:104AE000AB01BC0182EE9EE022E00E9477A982EE3B
:104AF0009EE06EE371E00E942E1282EE9EE06AE07C
:104B00000E947211DF91CF910F91FF90EF90089565
:104B10000F931F93DF93CF93CDB7DEB7E8970FB610
:104B2000F894DEBF0FBECDBF682F80913A019091FF
:104B30003B01A0913C01B0913D018D839E83AF83E9
:104B4000B887FE01319624E630E0AE014C5F5F4F3E
:104B5000F999FECF32BD21BDF89A80B580832F5FD1
:104B60003F4FE417F50711F03196F2CF662309F0B5
:104B700035C1CE010596BE016F5F7F4F43E050E027
:104B80000E949A0E009709F029C1E6EFF6E028E6A8
:104B900030E0F999FECF32BD21BDF89A80B580830F
:104BA0002F5F3F4F87E0E530F80711F03196F1CFE6
:104BB000E6EEF6E028E730E0F999FECF32BD21BD00
:104BC000F89A80B580832F5F3F4F86E0E53FF80776
:104BD00011F03196F1CFE6E0F7E028E830E0F999FE
:104BE000FECF32BD21BDF89A80B580832F5F3F4F45
:104BF00087E0E531F80711F03196F1CFEAE1F7E00F
:104C000028E930E0F999FECF32BD21BDF89A80B590
:104C100080832F5F3F4F87E0ED31F80711F0319629
:104C2000F1CFEEE1F7E02CE930E0F999FECF32BDAB
:104C300021BDF89A80B580832F5F3F4F87E0E13236
:104C4000F80711F03196F1CFE6E1F7E020EA30E025
:104C5000F999FECF32BD21BDF89A80B580832F5FD0
:104C60003F4F87E0E931F80711F03196F1CFEEE2DE
:104C7000F7E024EA30E0F999FECF32BD21BDF89A81
:104C800080B580832F5F3F4F87E0E133F80711F055
:104C90003196F1CFE2EEF6E028EA30E0F999FECF66
:104CA00032BD21BDF89A80B580832F5F3F4F86E0EB
:104CB000E53EF80711F03196F1CFE2E2F7E02CEA99
:104CC00030E0F999FECF32BD21BDF89A80B58083DE
:104CD0002F5F3F4F87E0E532F80711F03196F1CFB3
:104CE000E6E2F7E020EB30E0F999FECF32BD21BDDE
:104CF000F89A80B580832F5F3F4F87E0E932F8074D
:104D000011F03196F1CFEAE2F7E024EB30E0F999C7
:104D1000FECF32BD21BDF89A80B580832F5F3F4F13
:104D200087E0ED32F80711F03196F1CFEDEEF2E0C9
:104D300028EB30E0F999FECF32BD21BDF89A80B55D
:104D400080832F5F3F4F82E0E03FF80711F03196FC
:104D5000F1CFE1EFF2E02CEB30E0F999FECF32BD7C
:104D600021BDF89A80B580832F5F3F4F82E0E43FFA
:104D7000F80711F03196F1CFE5EFF2E020EC30E0EA
:104D8000F999FECF32BD21BDF89A80B580832F5F9F
:104D90003F4F82E0E83FF80711F03196F1CFEDE3A5
:104DA000F3E064918F0108C082EE9EE00E947211D0
:104DB0000F5F1F4FF80164916623B1F7E3E5F3E05D
:104DC00064918F0108C082EE9EE00E9472110F5F15
:104DD0001F4FF80164916623B1F718C1DE011996DF
:104DE000EBE2F3E080E101900D928150E1F7DE010A
:104DF0005996EBE1F3E080E101900D928150E1F7EB
:104E0000DE019996EBE0F3E080E101900D92815094
:104E1000E1F789859A85AB85BC858093F6069093EA
:104E2000F706A093F806B093F906898D9A8DAB8D9D
:104E3000BC8D8093E6069093E706A093E806B093B6
:104E4000E90689A59AA5ABA5BCA580930607909312
:104E50000707A0930807B09309078D859E85AF8546
:104E6000B8898093FA069093FB06A093FC06B09352
:104E7000FD068D8D9E8DAF8DB8A18093EA0690932F
:104E8000EB06A093EC06B093ED068DA59EA5AFA50D
:104E9000B8A980930A0790930B07A0930C07B093CF
:104EA0000D0789899A89AB89BC898093FE06909306
:104EB000FF06A0930007B093010789A19AA1ABA1B7
:104EC000BCA18093EE069093EF06A093F006B093FA
:104ED000F10689A99AA9ABA9BCA980930E07909362
:104EE0000F07A0931007B09311078D899E89AF8992
:104EF000B88D8093020790930307A0930407B093A3
:104F000005078DA19EA1AFA1B8A58093F20690934D
:104F1000F306A093F406B093F5068DA99EA9AFA958
:104F2000B8AD8093120790931307A0931407B09322
:104F3000150780E090E8ABE3B5E480931A079093FF
:104F40001B07A0931C07B0931D0780931E07909327
:104F50001F07A0932007B093210720E030E040E036
:104F600050E020931607309317074093180750938B
:104F7000190780E29EE4A0E0B0E08093E2069093FF
:104F8000E306A093E406B093E50620932E07309342
:104F90002F07409330075093310780E090E0A0EA5C
:104FA000B1E48093220790932307A0932407B09342
:104FB00025078DEC9CECACECBEE380932607909328
:104FC0002707A0932807B093290780E090E0A0EA84
:104FD000B0E480932A0790932B07A0932C07B093FB
:104FE0002D07EDE3F3E064918F0108C082EE9EE0AF
:104FF0000E9472110F5F1F4FF80164916623B1F791
:1050000082EE9EE06FE371E00E942E1282EE9EE03F
:105010006AE00E9472110E949C21E8960FB6F894F3
:10502000DEBF0FBECDBFCF91DF911F910F910895CD
:105030006F927F928F929F92AF92BF92CF92DF92A8
:10504000EF92FF920F931F93CF93DF938C01FC019C
:1050500090858781981719F48481882339F081E03D
:10506000F801848389ED94E00E9402A3F801E780AF
:10507000C0E0D0E0CE2CDD24C7FCD09467E0662EE3
:10508000712C51E0A52EB12C46E0842E912C5EC1EE
:10509000423009F480C0433034F4442371F041308D
:1050A00009F053C141C0443009F4E3C044300CF46A
:1050B000A9C0453009F049C112C1F8018481882393
:1050C00051F089ED94E060E04C2F0E94D3A28EE273
:1050D00093E00E94B61DF8018081992787FD909585
:1050E0002F2D30E08217930709F02FC18091D4044F
:1050F00082FF2BC10FB6F8948091DA0E9091DB0EEF
:10510000A091DC0EB091DD0E0FBE8C509E4FAF4FC4
:10511000BF4F8093000590930105A0930205B093C3
:105120000305B282A18211C1F8018481882351F064
:1051300089ED94E060E04C2F0E94D3A28FE193E0D0
:105140000E94B61DF8018081992787FD90952F2D2B
:1051500030E08217930709F0F8C08091D40482FFF1
:10516000F4C00FB6F8948091DA0E9091DB0EA09106
:10517000DC0EB091DD0E0FBE8C509E4FAF4FBF4F77
:105180008093000590930105A0930205B093030559
:1051900092828182DAC0F8018481882351F089EDFE
:1051A00094E060E04C2F0E94D3A280E193E00E9443
:1051B000B61DF8018081992787FD90952F2D30E04D
:1051C0008217930709F0C1C08091D40482FFBDC04B
:1051D0000FB6F8948091DA0E9091DB0EA091DC0E60
:1051E000B091DD0E0FBE8C509E4FAF4FBF4F8093DE
:1051F000000590930105A0930205B0930305728208
:105200006182A3C0F8018481882351F089ED94E084
:1052100060E04C2F0E94D3A283E093E00E94B61D71
:10522000F8018081992787FD90952F2D30E0821716
:10523000930709F08AC08091D40482FF86C00FB61C
:10524000F8948091DA0E9091DB0EA091DC0EB09173
:10525000DD0E0FBE8C509E4FAF4FBF4F80930005A9
:1052600090930105A0930205B09303050E94D41BFF
:105270006CC0F8018481882351F089ED94E060E0EE
:105280004C2F0E94D3A287EF92E00E94B61DF80136
:105290008081992787FD90952F2D30E08217930705
:1052A00009F053C08091D40482FF4FC00FB6F89428
:1052B0008091DA0E9091DB0EA091DC0EB091DD0EA4
:1052C0000FBE8C509E4FAF4FBF4F80930005909301
:1052D0000105A0930205B093030580E034C0F801F6
:1052E0008481882351F089ED94E060E04C2F0E9486
:1052F000D3A285EE92E00E94B61DF8018081992725
:1053000087FD90952F2D30E082179307F1F480915F
:10531000D40482FF1AC00FB6F8948091DA0E9091EF
:10532000DB0EA091DC0EB091DD0E0FBE8C509E4FB7
:10533000AF4FBF4F8093000590930105A0930205E6
:10534000B093030581E00E9488252196FC2E4C2F06
:105350004E0DF8015781852F992787FD909503966B
:105360009E012C0D3D1D821793070CF091CE818577
:10537000882309F084C05087C091D504D091D60409
:105380001482858196819E01281B390BC9010496E0
:10539000099708F074C089ED94E060E040810E94B4
:1053A000D3A2E091D904F091DA040190F081E02DCC
:1053B00089ED94E060E20995D7FF08C0F801878184
:1053C0008150878387FF58C0178256C0C531D105E9
:1053D0005CF0F80187818F5F878383301CF082E067
:1053E000F8018783CFE0D0E0D093D604C093D504F2
:1053F0008091D5049091D604F80196838583CE01DF
:1054000065E070E00E94FFB0608367FD1082F801E4
:105410008081843014F083E08083F80180818630BD
:1054200014F085E08083F80190858781981711F04A
:1054300081E0848389ED94E060E0F80140810E947E
:10544000D3A2F8012781332727FD30958081992742
:1054500087FD9095280F391F232B11F463E001C0BD
:105460006EE3E091D904F091DA040190F081E02D2F
:1054700089ED94E0099503C0C4E0D0E0B5CFDF9199
:10548000CF911F910F91FF90EF90DF90CF90BF9041
:10549000AF909F908F907F906F9008952F923F9242
:1054A0004F925F926F927F928F929F92AF92BF9234
:1054B000CF92DF92EF92FF920F931F93DF93CF93E0
:1054C000CDB7DEB7A4970FB6F894DEBF0FBECDBF41
:1054D0004C01FC0190858781981719F484818823F9
:1054E00039F081E0F401848389ED94E00E9402A305
:1054F000F4012781822F992787FD9095AC01440FF5
:10550000551F440F551F4E51594F5AA349A31C0113
:10551000220C331C220C331CEAEDF6E02E0E3F1E4B
:10552000422E662477249CA38BA30C940833F8E0C6
:105530004F1609F433C2F415ACF022E0421609F418
:1055400031C1241544F0442039F131E0431611F003
:105550000C94FA325EC0F4018481F6E0F4150CF08C
:105560007BC176C22EE0421609F4B3C424153CF088
:10557000F4018481FCE0F4150CF00FC3E3C320E1D7
:10558000421609F46CC642160CF486C531E1431686
:1055900011F00C94FA3246C7F4018481882351F04B
:1055A00089ED94E060E0462D0E94D3A284E995E065
:1055B0000E94B61DF4018081992787FD9095252DC5
:1055C00030E08217930711F00C94FA328091D404E2
:1055D00082FD02C00C94FA320FB6F8948091DA0E74
:1055E0009091DB0EA091DC0EB091DD0E0FBE8C50C1
:1055F0009E4FAF4FBF4F8093000590930105A0933E
:105600000205B093030584E090E0928381830C94BB
:10561000FA32F4018481882379F189ED94E060E025
:10562000462D0E94D3A28EE895E00E94B61D89ED1A
:1056300094E06DE0462D0E94D3A260911A0770910C
:105640001B0780911C0790911D0720E030E048EC7B
:1056500052E40E9421AD0E9489AD7A836983CE0114
:1056600001960E94A51EBC0189ED94E00E942E12B5
:105670008BE895E00E94B61DF4018081992787FD93
:105680009095252D30E08217930709F0B3C78091DC
:10569000D40482FF57C0818591E0892781878823C0
:1056A000A9F060911A0770911B0780911C079091D7
:1056B0001D070E9489ADDC01CB0164E670E00E9409
:1056C000FFB07093D6046093D50425C02091D50413
:1056D0003091D60484E690E0289FB001299F700D98
:1056E000389F700D1124882777FD8095982F0E9490
:1056F000BCAD60931A0770931B0780931C079093AF
:105700001D07F401808125E08202C00111249093DD
:10571000D6048093D5040FB6F8948091DA0E909158
:10572000DB0EA091DC0EB091DD0E0FBE8C509E4FB3
:10573000AF4FBF4F8093000590930105A0930205E2
:10574000B0930305F4018185882309F453C7809140
:10575000D5049091D604059734F485E090E09093B9
:10576000D6048093D5048091D5049091D6048F5DA2
:10577000934034F08EED93E09093D6048093D5045B
:1057800089ED94E06DE0452D0E94D3A285ED94E073
:105790000E94A51EBC0189ED94E00E942E1288E8AB
:1057A00095E0CDC2F4018481882329F189ED94E04C
:1057B00060E0462D0E94D3A28CE795E00E94B61DC2
:1057C00089ED94E06DE0462D0E94D3A260912207FE
:1057D0007091230780912407909125070E9489AD3D
:1057E0007C836B83CE0103960E94A51EBC0189EDCC
:1057F00094E00E942E12F4018081992787FD9095F4
:10580000252D30E08217930709F0F4C68091D40467
:1058100082FFB0C0818591E089278187882349F084
:1058200060912207709123078091240790912507AA
:105830006AC06091D5047091D604882777FD809561
:10584000982F0E94BCAD609322077093230780932A
:105850002407909325076DC08823D9F189ED94E042
:1058600060E0462D0E94D3A285E795E00E94B61D18
:1058700023E0421619F482E795E011C034E04316A4
:1058800019F48FE695E00BC045E0441619F48CE658
:1058900095E005C056E0451621F489E695E00E94A2
:1058A000B61D89ED94E06DE0452D0E94D3A2F10173
:1058B00060817181828193810E9489AD7E836D8335
:1058C000CE0105960E94A51EBC0189ED94E00E94C0
:1058D0002E12F4018081992787FD9095252D30E0C7
:1058E0008217930709F086C68091D40482FF42C0D4
:1058F000818591E089278187882361F0F1016081AA
:105900007181828193810E9489AD7093D6046093E6
:10591000D50419C06091D5047091D604882777FD0D
:105920008095982F0E94BCADF101608371838283C2
:105930009383F401808125E08202C00111249093B9
:10594000D6048093D5040FB6F8948091DA0E909126
:10595000DB0EA091DC0EB091DD0E0FBE8C509E4F81
:10596000AF4FBF4F8093000590930105A0930205B0
:10597000B0930305F4018185882309F43BC6809127
:10598000D5049091D604181619060CF4EEC081E0E7
:1059900090E09093D6048093D504E7C0F40184810D
:1059A000882329F189ED94E060E0462D0E94D3A27E
:1059B00082E695E00E94B61D89ED94E06DE0462DEB
:1059C0000E94D3A260911607709117078091180763
:1059D000909119070E9489AD78876F83CE01079651
:1059E0000E94A51EBC0189ED94E00E942E12F401D4
:1059F0008081992787FD9095252D30E082179307A8
:105A000009F0F8C58091D40482FFA0C0818591E09F
:105A100089278187882349F06091160770911707BD
:105A2000809118079091190757C06091D504709123
:105A3000D604882777FD8095982F0E94BCAD60938F
:105A400016077093170780931807909319075DC086
:105A5000882329F189ED94E060E0462D0E94D3A2CD
:105A600086E595E00E94B61D89ED94E06DE0462D37
:105A70000E94D3A260912E0770912F07809130076A
:105A8000909131070E9489AD7A876987CE01099686
:105A90000E94A51EBC0189ED94E00E942E12F40123
:105AA0008081992787FD9095252D30E082179307F7
:105AB00009F0A0C58091D40482FF48C0818591E09F
:105AC00089278187882379F060912E0770912F07AD
:105AD00080913007909131070E9489AD7093D60470
