:100000000C94FB090C94260A0C94260A0C94260ADC
:100010000C94260A0C94260A0C94260A0C94260AA0
:100020000C94260A0C94260A0C945E790C94D877CA
:100030000C94260A0C94260A0C94260A0C94260A80
:100040000C94260A0C94EA610C94260A0C94260A55
:100050000C94260A0C94260A0C940E6B0C94A17630
:100060000C94260A0C94260A0C94260A0C94260A50
:100070000C94260A0C94260A0C94260A0C94260A40
:100080000C94260A0C94260A0C94260A0C94260A30
:100090000C94260A0C94260A084AD73B3BCE016EE4
:1000A00084BCBFFDC12F3D6C74319ABD56833DDACF
:1000B0003D00C77F11BED9E4BB4C3E916BAAAABEDE
:1000C000000000803F05A84CCDB2D44EB93836A907
:1000D000020C50B9918688083CA6AAAA2ABE000044
:1000E00000803F6563686F3A0043616E6E6F7420F5
:1000F000656E746572207375626469723A00457248
:10010000726F723A006572726F72207772697469E9
:100110006E6720746F2066696C65004E6F742053A3
:1001200044207072696E74696E67002F005344201A
:100130007072696E74696E67206279746520002E32
:100140000044656C6574696F6E206661696C6564F6
:100150002C2046696C653A200046696C6520646510
:100160006C657465643A002E006F70656E20666180
:10017000696C65642C2046696C653A200057726989
:1001800074696E6720746F2066696C653A20002E72
:10019000006F70656E206661696C65642C2046692D
:1001A0006C653A20002E006F70656E206661696C88
:1001B00065642C2046696C653A200046696C6520B0
:1001C00073656C6563746564002053697A653A00F1
:1001D00046696C65206F70656E65643A002E006F2D
:1001E00070656E206661696C65642C2046696C657B
:1001F0003A2000776F726B446972206F70656E20D1
:100200006661696C656400776F726B446972206F18
:1002100070656E206661696C65640053442063619B
:100220007264206F6B006F70656E526F6F74206622
:1002300061696C656400766F6C756D652E696E69B9
:1002400074206661696C656400534420696E69744A
:10025000206661696C004572726F723A0050726973
:100260006E7465722068616C7465642E206B696CB5
:100270006C28292063616C6C6564202121006F6B00
:1002800000526573656E643A006563686F3A0022D8
:1002900000556E6B6E6F776E20636F6D6D616E646F
:1002A0003A22007A5F6D696E3A00795F6D696E3A45
:1002B00000785F6D696E3A005A3A00593A0020435F
:1002C0006F756E7420583A00453A005A3A00593A10
:1002D00000583A004649524D574152455F4E414DF4
:1002E000453A4D61726C696E2056313B20537072F5
:1002F000696E7465722F6772626C206D61736875C8
:100300007020666F722067656E36204649524D57E1
:100310004152455F55524C3A687474703A2F2F77AA
:1003200077772E6D656E64656C2D70617274732EB7
:10033000636F6D2050524F544F434F4C5F564552A0
:1003400053494F4E3A312E30204D414348494E4596
:100350005F545950453A4D656E64656C204558545C
:1003600052554445525F434F554E543A310A00208E
:10037000423A0020453A00543A0020573A002045BE
:100380003A00543A0020403A0020423A006F6B2075
:10039000543A00456E642066696C65206C6973741C
:1003A00000426567696E2066696C65206C697374CC
:1003B0000053657474696E67732053746F7265645B
:1003C0000053746F7265642073657474696E67732B
:1003D000207265747265697665643A002044002075
:1003E00049002020204D3330312050005049442016
:1003F00073657474696E67733A00204500205A0073
:1004000020580020420020540020204D323035205A
:100410005300416476616E63656420766172696140
:10042000626C65733A20533D4D696E206665656464
:100430007261746520286D6D2F73292C20543D4DF9
:10044000696E2074726176656C20666565647261A0
:10045000746520286D6D2F73292C20423D6D696EC7
:10046000696D756D207365676D656E742074696D57
:100470006520286D73292C20583D6D6178696D7554
:100480006D207859206A65726B20286D6D2F732955
:100490002C20205A3D6D6178696D756D205A206A57
:1004A00065726B20286D6D2F732900205400202069
:1004B0004D323034205300416363656C6572617462
:1004C000696F6E3A20533D616363656C6572617458
:1004D000696F6E2C20543D72657472616374206183
:1004E0006363656C65726174696F6E0020450020FE
:1004F0005A0020590020204D3230312058004D61E3
:1005000078696D756D20416363656C6572617469AE
:100510006F6E20286D6D2F7332293A002045002020
:100520005A0020590020204D3230332058004D61B0
:1005300078696D756D206665656472617465732098
:10054000286D6D2F73293A00204500205A0020594C
:100550000020204D3932205800537465707320708C
:10056000657220756E69743A00446F6E6520707212
:10057000696E74696E672066696C65006F6B004E0A
:100580006F204C696E65204E756D626572207769CB
:10059000746820636865636B73756D2C204C6173A0
:1005A00074204C696E653A004E6F20436865636B3A
:1005B00073756D2077697468206C696E65206E753F
:1005C0006D6265722C204C617374204C696E653AC3
:1005D00000636865636B73756D206D69736D61741D
:1005E00063682C204C617374204C696E653A004C32
:1005F000696E65204E756D626572206973206E6F3D
:1006000074204C617374204C696E65204E756D6268
:1006100065722B312C204C617374204C696E653AE5
:1006200000446F6E6520736176696E672066696C41
:10063000652E006F6B002020506C616E6E657242FB
:10064000756666657242797465733A200020467259
:100650006565204D656D6F72793A200042726F6F4B
:100660006B00207C20417574686F723A2000392D30
:1006700032322D313200204C617374205570646128
:100680007465643A2000312E302E302052433200FF
:100690004D61726C696E3A200020536F6674776109
:1006A00072652052657365740020576174636864D5
:1006B0006F67205265736574002042726F776E20F9
:1006C0006F75742052657365740020457874657287
:1006D0006E616C20526573657400506F776572555A
:1006E00070007374617274002200656E71756569C3
:1006F0006E672022006563686F3A0020746F6F2078
:100700006C6F6E6720657874727573696F6E207098
:10071000726576656E7465640020636F6C64206535
:100720007874727573696F6E2070726576656E7419
:100730006564007C3C3E5E2B3D3F2F5B5D3B2C2A7D
:10074000225C0024F404D9201BC40C5C0E9804C461
:10075000095F0265077101F405F900FB04B3004865
:10076000048700C10369005803550003034500BE18
:10077000023A008402310053022A002902250004B3
:10078000022000E4011C00C8011900AF0117009805
:100790000114008401130071011000610110005167
:1007A000010E0043010D0036010B002B010B002050
:1007B000010B00150109000C01090003010800FBF1
:1007C000000800F3000800EB000700E4000600DE6C
:1007D000000600D8000600D2000600CC000500C7C5
:1007E000000500C2000500BD000400B9000400B50A
:1007F000000400B1000400AD000400A9000400A53D
:10080000000300A20003009F0004009B0003009867
:100810000003009500020093000300900003008D88
:100820000002008B000300880002008600020084A2
:10083000000300810002007F0002007D0002007BB7
:1008400000020079000200770001007600020074C7
:1008500000020072000100710002006F0002006DD2
:100860000001006C0002006A0001006900020067DC
:1008700000010066000100650001006400020062E2
:1008800000010061000100600001005F0002005DE6
:100890000001005C0001005B0001005A00010059EA
:1008A00000010058000100570001005600010055EA
:1008B00000010054000100530000005300010052E9
:1008C00000010051000100500001004F0001004EE6
:1008D0000000004E0001004D0001004C0001004BE3
:1008E0000000004B0001004A0001004900010048DF
:1008F00000000048000100470001004600000046DB
:1009000000010045000000450001004400010043D3
:1009100000000043000100420000004200010041CD
:1009200000000041000100400001003F0000003FC6
:100930000001003E0000003E0001003D0000003DBF
:100940000001003C0000003C0000003C0001003BB6
:100950000000003B0001003A0000003A00010039AD
:1009600000000039000100380000003800000038A5
:10097000000100370000003700010036000000369B
:100980000000003600010035000000350000003591
:100990000001003400000034000000340001003386
:1009A000000000330000003300010032000000327C
:1009B0000000003200010031000000310000003171
:1009C0000001003000000030000000300001002F66
:1009D0000000002F0000002F0000002F0001002E5B
:1009E0000000002E0000002E0001002D0000002D50
:1009F0000000002D0000002D0001002C0000002C44
:100A00000000002C0000002C0001002B0000002B37
:100A10000000002B0000002B0001002A0000002A2B
:100A20000000002A0000002A00010029000000291F
:100A30000000002900000029000000290001002812
:100A40000000002800000028000000280000002806
:100A500000010027000000270000002700000027F9
:100A600000000027000100260000002600000026EC
:100A700000000026000000260001002500000025DF
:100A800000000025000000250000002500000025D2
:100A900000010024000000240000002400000024C5
:100AA00000000024000100230000002300000023B8
:100AB00000000023000000230000002300000023AA
:100AC000000100220000002200000022000000229D
:100AD000000000220000002200010021000000218F
:100AE0000000002100000021000000210000002182
:100AF0000000002100010020000000200000002074
:100B00000000002000000020000000200000002065
:100B1000000000200001001F0000001F0000001F57
:100B20000000001F0000001F0000001F0000001F49
:100B30000001001E0000001E0000001E0000001E3C
:100B400000000024F4D43050C38E20C2A24017828B
:100B50008B7011127A910D816CD90AA861E108C7D6
:100B6000586607615143061E4B5D05C145A7041A2F
:100B7000411104093D9803713931034036DB0265A8
:100B8000339102D4305402802E1D02632CEE017585
:100B90002AC501B028A001102781018F2564012BEF
:100BA000244B01E0223401AC211F018D200D018076
:100BB0001FFC00841EED00971DDF00B81CD200E66C
:100BC0001BC600201BBC00641AB200B219A8000AA0
:100BD00019A0006A189900D117910040178B00B531
:100BE00016840031167E00B31579003A157300C7DC
:100BF000146F0058146A00EE136600881363002512
:100C0000135E00C7125B006C12570015125400C12E
:100C100011510070114F0021114B00D61049008D69
:100C20001047004610440002104200C00F400080F0
:100C30000F3E00420F3C00060F3B00CB0E380093E6
:100C40000E37005C0E3500270E3400F30D3200C164
:100C50000D3100900D3000600D2E00320D2D00057D
:100C60000D2C00D90C2B00AE0C2900850C29005C42
:100C70000C2700350C27000E0C2600E80B2400C4BE
:100C80000B2400A00B23007D0B23005A0B210039FD
:100C90000B2100180B2000F80A1F00D90A1E00BB08
:100CA0000A1E009D0A1D00800A1D00630A1C0047E1
:100CB0000A1B002C0A1B00110A1A00F7091A00DD92
:100CC000091900C4091900AB091900920917007B22
:100CD000091800630917004C091600360916002090
:100CE0000916000A091500F5081500E0081400CCE3
:100CF000081400B8081400A4081400900813007D1C
:100D00000812006B0813005808120046081200343D
:100D1000081100230811001208110001081100F049
:100D2000071000E0071000D0071000C0071000B047
:100D3000070F00A107100091070E0083070F007432
:100D4000070F0065070E0057070E0049070E003B0E
:100D5000070D002E070E0020070D0013070D0006DB
:100D6000070D00F9060C00ED060D00E0060C00D49E
:100D7000060C00C8060C00BC060C00B0060C00A453
:100D8000060B0099060C008D060B0082060B0077FF
:100D9000060B006C060B0061060A0057060B004CA0
:100DA000060A0042060A0038060A002E060A002437
:100DB000060A001A060A001006090007060A00FDC6
:100DC000050900F4050900EB050900E2050900D951
:100DD000050900D0050900C7050900BE050900B5D1
:100DE000050800AD050800A50509009C050800944C
:100DF0000508008C050800840508007C05080074BF
:100E00000508006C050700650508005D050700562C
:100E10000508004E05070047050700400508003893
:100E2000050700310507002A050700230507001CF8
:100E3000050600160507000F050700080506000255
:100E4000050700FB040600F5040700EE040600E8B1
:100E5000040600E2040700DB040600D5040600CF08
:100E6000040600C9040600C3040600BD040600B75A
:100E7000040600B1040500AC040600A6040600A0A8
:100E80000405009B04060095040500900406008AF2
:100E900004050085040500800406007A0405007539
:100EA000040500700405006B04050066040500617C
:100EB0000405005C04050057040500520405004DBC
:100EC00004050048040500430405003E0404003AFC
:100ED00004050035040500300404002C0405002737
:100EE000040400230405001E0404001A0404001670
:100EF000040500110404000D0404000904050004A5
:100F000004040000040400FC030400F8030400F4DB
:100F1000030400F0030400EC030400E8030400E40D
:100F2000030400E0030400DC030400D8030400D43D
:100F3000030400D0030400CC030400C8030300C56D
:100F40000303006563686F3A00205A3A0020593A5B
:100F50000020583A00656E6473746F70732068697E
:100F6000743A20004572726F723A0054656D706574
:100F7000726174757265206865617465642062656C
:100F800064207377697463686564206F66662E20D9
:100F90004D415854454D50207472696767657265BC
:100FA00064202121003A20457874727564657220AE
:100FB0007377697463686564206F66662E204D4997
:100FC0004E54454D502074726967676572656420A0
:100FD00021003A20457874727564657220737769D0
:100FE0007463686564206F66662E204D41585445D1
:100FF0004D5020747269676765726564202100C076
:1010000001FA00F001F5003002F0007002EB00A0E0
:1010100002E600C002E1001003DC005003D700E04C
:1010200003D2009004CD008004C800E005BE00603B
:1010300006B9004007AA00F008A000700B9600F067
:101040000D8C00E0108200E0137800F0176E00D0E5
:10105000196900701B6400401E5F0010205A00F0E8
:1010600025500080294600D0303C00A032370010C7
:1010700035320020392D0020392800703A2300A095
:101080003B1E00A03C1900203D1600003F0300203D
:101090002D20496E76616C69642065787472756480
:1010A0006572206E756D626572202100202D2049C9
:1010B0006E76616C696420657874727564657220FF
:1010C0006E756D626572210020403A006F6B20548E
:1010D0003A00504944204175746F74756E652066FE
:1010E00061696C656420212C2054656D70657261A6
:1010F0007475726520746F206869676800204B649E
:101100003A2000204B693A2000204B703A20002002
:101110004E6F206F76657273686F6F742000204B7E
:10112000643A2000204B693A2000204B703A20009E
:1011300020536F6D65206F76657273686F6F7420D2
:1011400000204B643A2000204B693A2000204B706D
:101150003A200020436C61736963205049442000A9
:101160002054753A2000204B753A2000206D61789C
:101170003A2000206D696E3A200020643A20002059
:10118000626961733A200070012C0190012701B05F
:10119000012201C0011D01F00118011002130130EC
:1011A000020E016002090190020401C002FF00006A
:1011B00003FA004003F5008003F000D003EB0020A9
:1011C00004E6007004E100E004DC004005D700C044
:1011D00005D2004006CD00D006C8008007C300300D
:1011E00008BE00F008B900C009B400B00AAF00B0F2
:1011F0000BAA00D00CA500000EA000500F9B00C051
:101200001096005012910000148C00C0158700B099
:10121000178200B0197D00D01B7800001E730040BB
:10122000206E0090226900F024640040275F009047
:10123000295A00E02B5500102E500020304B001092
:10124000324600E033410090353C001037370070E3
:10125000383200A0392D00B03A2800A03B230060AE
:101260003C1E00103D1900903D1400103E0F007010
:101270003E0A00C03E0500003F000001290229048B
:101280002908291029202940298029012C022C0114
:1012900026022604260826102620264026802640E0
:1012A0002C802C0123022304230823102320234015
:1012B0002380230120022004200820102020204029
:1012C000208020102C202C012F022F042F082F10FB
:1012D0002F202F402F802F7EFE7EFD7EFB7EF77E0F
:1012E000EF7EDF7EBF7E7F000100001B1312000235
:1012F00000002D13430003000070130401030904D0
:10130000741318020309048E131603030904A613A9
:101310000C0001C102018036018136120100020277
:10132000000020C0168304000101020301090243EA
:1013300000020100C03209040000010202010005A0
:1013400024001001052401000104240206052406DE
:1013500000010705820308004009040100020A0099
:10136000000007050302400000070584024000005A
:101370000403090418035400650065006E0073003F
:1013800079006400750069006E006F0000001603AC
:1013900055005300420020005300650072006900B0
:1013A00061006C0000000C03310032003300340097
:1013B00035000000494E46494E4954594E414ECDE4
:1013C000CCCC3D0AD7233C17B7D13877CC2B3295FC
:1013D00095E6241FB14F0A000020410000C84200DA
:1013E000401C4620BCBE4CCA1B0E5AAEC59D7400A4
:1013F000C91ACB7CC41A11241FBECFEFD0E2DEBFC6
:10140000CDBF12E0A0E0B1E0E0E7F5E001E00BBF06
:1014100002C007900D92AC3EB107D9F71BBE1DE08C
:10142000ACEEB2E001C01D92A53CB107E1F713E1BB
:10143000C4EFD3E104C02297FE010E945E82C03F48
:10144000D107C9F70E94DC790C94AC820C9400009F
:10145000A0E0B0E0EEE2FAE00C947B82EC015B01EC
:101460006115710519F0FB0191838083F9908F2D2F
:1014700090E00E946282892BC9F7FDE2FF1621F4F9
:10148000F990EE24E39405C02BE2F21609F4F990EA
:10149000EE248E0101501040C80164EB73E143E07B
:1014A00050E062D2892BF9F48E010E5F1F4FC80104
:1014B00067EB73E145E050E057D2892B19F48E01B8
:1014C000095F1F4FA114B10419F0F50111830083C6
:1014D000E0FC04C070E090E080E813C070E090E0B1
:1014E00080E86FEF07C1C8016CEB73E143E050E0A7
:1014F0003BD2892B69F4A114B10429F470E090E087
:1015000080EC6FE7F7C02296F501D183C083F6CF58
:101510008824992440E050E060E070E0EF2DE05333
:10152000EA30A0F5F2E0EF2A8E2D90E09C012870C1
:101530003070E2FE06C0232B79F50894811C911CC3
:101540002BC0232B19F0089481089108DB01CA01F4
:1015500012E0880F991FAA1FBB1F1A95D1F7480FD9
:10156000591F6A1F7B1F440F551F661F771F4E0FA1
:10157000511D611D711D483929E9520729E962078A
:1015800029E1720748F084E0E82A06C0EE3F31F412
:10159000E3FC39C098E0E92AF990C0CFE53311F0B7
:1015A000E53189F529912D3219F4E0E1EE2A05C0E3
:1015B0002B3219F081E090E003C0299182E090E0A5
:1015C000E22FE053EA3018F0C81BD90B1CC020E012
:1015D00030E0FCE020383F075CF4C901880F991F18
:1015E000880F991F280F391F220F331F2E0F311D0F
:1015F000E991E053EA3068F3E4FE03C030952195A9
:101600003F4F820E931ECE2CDD24E1FE07C0A114B5
:10161000B10421F02197F501D183C083CB01BA0138
:101620000E94C77E7B018C01F3E0CF22DD2423E002
:10163000C216D10421F417FB109517F91095570124
:101640006801C801B70120E030E040E050E00E94AE
:10165000277E882309F44AC097FE0DC023EDE22EB1
:1016600023E1F22E9094819491089394C0E2D0E00B
:1016700000E010E012C09BEEE92E93E1F92EF6CFC8
:10168000F7012591359145915491C601B5010E940C
:1016900007815B016C018C1A9D0A8C169D0684F7EC
:1016A000D595C7950F5F1F4F0630110529F08CEFB8
:1016B0009FEFE80EF91EF1CFC501D6017C018D0127
:1016C0008C2D880F8D2D881F8F3F51F0C601B501DD
:1016D00020E030E040E050E00E94277E882331F493
:1016E00082E290E09093C40D8093C30D7E2D9F2DD8
:1016F000802F612F272F392F482F562FB901CA016C
:10170000CDB7DEB7ECE00C9497822F923F925F92B8
:101710006F927F928F929F92AF92BF92CF92DF9201
:10172000EF92FF920F931F93CF93DF938C011B01D6
:10173000EA016115710519F0FB01918380832097FF
:1017400049F0CE010297839728F020E030E040E096
:1017500050E0F6C0F801A1908F018A2D90E00E9420
:101760006282892BB9F7FDE2AF1631F4F801A1903E
:101770008F015524539407C0FBE2AF1619F4F8010A
:10178000A1908F015524209719F0C031D105C1F4E3
:10179000F0E3AF1679F4F8018081883711F08835CD
:1017A00049F4F801A1800E5F1F4FF2E05F2AC0E10B
:1017B000D0E006C0209721F480E3A816E9F427C002
:1017C000C830D10531F1C930D10524F4C230D1057A
:1017D00031F50CC0CA30D10589F0C031D105F9F41A
:1017E000C12CD12CE12CB8E0FB2E28C0C12CD12C6F
:1017F000E12CA0E4FA2E22C0CAE0D0E0FCECCF2E0F
:10180000FCECDF2EFCECEF2EFCE0FF2E17C0C8E056
:10181000D0E0C12CD12CE12CE0E1FE2E0FC09E01C6
:10182000442737FD4095542F60E070E080E090E859
:101830000E940B82C901DA016C017D0120E030E0D9
:1018400040E050E060E03E01882477FC8094982CD2
:1018500070EDB72EBA0CE9E0EB1570F48A2D8154C7
:101860008A3118F499ECB92E06C08A2D81568A3136
:1018700050F589EAB82EBA0C8B2D90E08C179D0795
:1018800014F56F3FE1F0C216D306E406F506B0F09A
:10189000CA01B901A40193010E94D9819B01AC0145
:1018A0002B0D311D411D511D2130F0E03F07F0E0AF
:1018B0004F07F0E85F0710F461E001C06FEFF80137
:1018C000A1908F01C5CF2114310481F0662331F03E
:1018D00001501040F1011183008308C051FE1AC06D
:1018E00002501040F1011183008314C067FF12C041
:1018F00050FC05C02FEF3FEF4FEF5FE704C020E043
:1019000030E040E050E882E290E09093C40D809394
:10191000C30D16C050FE08C05095409530952195D6
:101920003F4F4F4F5F4F0CC057FF0AC082E290E01D
:101930009093C40D8093C30D2FEF3FEF4FEF5FE700
:10194000B901CA01DF91CF911F910F91FF90EF90E4
:10195000DF90CF90BF90AF909F908F907F906F90CF
:101960005F903F902F900895FB01DC014150504063
:1019700088F08D9181341CF08B350CF4805E65917C
:1019800061341CF06B350CF4605E861B611171F3E1
:10199000990B0895881BFCCFFB01DC0104C08D91DD
:1019A0000190801921F441505040C8F7881B990BD1
:1019B0000895FB01DC0102C001900D92415050409E
:1019C000D8F70895FB01DC010D900020E9F711978D
:1019D00001900D920020E1F70895FC018191861796
:1019E00021F08823D9F7992708953197CF010895D9
:1019F000FB01DC0101900D920020E1F70895FB014D
:101A0000DC014150504030F08D910190801919F463
:101A10000020B9F7881B990B0895FB01DC014150A8
:101A2000504048F001900D920020C9F701C01D926E
:101A300041505040E0F70895FB0151915523A9F022
:101A4000BF01DC014D9145174111E1F759F4CD017A
:101A50000190002049F04D9140154111C9F3FB015F
:101A60004111EFCF81E090E001970895AEE0B0E042
:101A7000ECE3FDE00C9483820D891E8986E08C8363
:101A80001A8309838FEF9FE79E838D839E01275ED4
:101A90003F4FCE0101966F89788DA9010AD02F8121
:101AA0003885020F131FF80110822E96E4E00C9483
:101AB0009F82ABE0B0E0EFE5FDE00C9475823C0165
:101AC0002B015A01FC0117821682838181FD03C01C
:101AD0006FEF7FEFB9C19AE0892E1E010894211C97
:101AE000311CF3012381F20123FD859123FF8191B4
:101AF0002F01882309F4A5C1853239F423FD85918E
:101B000023FF81912F01853221F490E0B301B7D1F9
:101B1000E8CF982FFF24EE249924FFE1FF15D0F0A1
:101B20009B3269F09C3228F4903259F0933291F450
:101B30000EC09D3249F0903369F441E024C052E078
:101B4000F52A84E0F82A28C098E0F92A25C0E0E1C7
:101B5000FE2A22C0F7FC29C0892F80538A3070F4F6
:101B6000F6FE05C0989C902C1124980E15C0E89C98
:101B7000E02C1124E80EF0E2FF2A0EC09E3229F478
:101B8000F6FC5FC140E4F42A07C09C3619F450E823
:101B9000F52A02C0983649F4F20123FD959123FFFE
:101BA00091912F01992309F0B8CF892F8554833063
:101BB00018F08052833038F444E050E0A40EB51E93
:101BC0005FE359830FC0933631F0933779F0933543
:101BD00009F052C01FC0F5018081898342E050E0C6
:101BE000A40EB51E610101E010E011C0F501C08036
:101BF000D180F6FC03C06FEF7FEF02C0692D70E06B
:101C000042E050E0A40EB51EC6012ED18C015FE764
:101C1000F52213C0F501C080D180F6FC03C06FEF40
:101C20007FEF02C0692D70E042E050E0A40EB51EC7
:101C3000C6010FD18C0150E8F52AF3FE06C018C08A
:101C400080E290E0B3011BD1EA948E2D90E008175A
:101C50001907B0F30DC0F601F7FC8591F7FE8191ED
:101C60006F0190E0B3010BD1E110EA9401501040F4
:101C70000115110581F7E2C0943611F0993661F52E
:101C8000F7FE08C0F501208131814281538184E053
:101C900090E00AC0F501808191819C01442737FDC5
:101CA0004095542F82E090E0A80EB91E9FE6F922DD
:101CB00057FF09C050954095309521953F4F4F4FA4
:101CC0005F4FE0E8FE2ACA01B901A1012AE030E035
:101CD00002D1D82ED2183FC0953729F41F2D1F7E70
:101CE0002AE030E01DC01F2D197F9F3661F090372C
:101CF00020F4983509F0A5C00FC0903739F0983717
:101D000009F09FC004C028E030E00AC0106114FD53
:101D1000146020E130E004C014FD166020E132E0E0
:101D200017FF08C0F501608171818281938144E0D1
:101D300050E008C0F50180819181BC0180E090E015
:101D400042E050E0A40EB51EA101C5D0D82ED21895
:101D50008FE7F82EF122F6FE0BC05EEFF522D914C4
:101D600038F4F4FE07C0F2FC05C08FEEF82202C082
:101D70001D2D01C0192DF4FE0DC0FE01ED0DF11D4C
:101D80008081803319F499EEF92208C01F5FF2FEBA
:101D900005C003C08F2D867809F01F5F0F2DF3FC5F
:101DA00013C0F0FE0EC01E1510F09D2C0AC09D2C15
:101DB0009E0C911A1E2D05C080E290E0B3015FD009
:101DC0001F5F1E15C8F304C01E1510F4E11A01C0F0
:101DD000EE2404FF0EC080E390E0B30150D002FF78
:101DE0001BC001FD03C088E790E00EC088E590E0CD
:101DF0000BC0802F867881F001FF02C08BE201C00A
:101E000080E2F7FC8DE290E0B30139D005C080E3B9
:101E100090E0B30134D09A94D914C8F3DA94F10164
:101E2000ED0DF11D808190E0B30129D0DD20B1F7E7
:101E300005C080E290E0B30122D0EA94EE20C9F719
:101E400050CEF30166817781CB012B96E2E10C94B1
:101E50009182FC010590615070400110D8F7809587
:101E600090958E0F9F1F0895FC0161507040019066
:101E70000110D8F7809590958E0F9F1F08950F93AE
:101E80001F93CF93DF938C01EB018B8181FF1BC0EC
:101E900082FF0DC02E813F818C819D8128173907DB
:101EA00064F4E881F9810193F983E88306C0E88549
:101EB000F985802F0995892B31F48E819F810196B8
:101EC0009F838E8302C00FEF1FEFC801DF91CF9178
:101ED0001F910F910895FA01AA27283051F120315E
:101EE00081F1E8946F936E7F6E5F7F4F8F4F9F4FAE
:101EF000AF4FB1E03ED0B4E03CD0670F781F891FF0
:101F00009A1FA11D680F791F8A1F911DA11D6A0FBD
:101F1000711D811D911DA11D20D009F468943F9170
:101F20002AE0269F11243019305D3193DEF6CF016F
:101F30000895462F4770405D4193B3E00FD0C9F735
:101F4000F6CF462F4F70405D4A3318F0495D31FDA2
:101F50004052419302D0A9F7EACFB4E0A6959795F5
:101F6000879577956795BA95C9F7009761057105CB
:101F700008959B01AC010A2E069457954795379515
:101F80002795BA95C9F7620F731F841F951FA01D6F
:101F90000895DF93CF930F92CDB7DEB7FC0169832D
:101FA000A081B18114962D913C911597BE016F5F70
:101FB0007F4F41E050E0F90109950F90CF91DF91FB
:101FC0000895FC01138A168A2EEC32E0328B218BA5
:101FD00012AA15AA31AB20ABE15BFF4F10823396FA
:101FE00010823597318320837F961082339610823A
:101FF0003597318320837E9689E1808333961082E2
:1020000078961082399610823396108235973183F4
:1020100020837D961082118212821382389610825C
:10202000118212821382EF5CF040118212821082C0
:10203000ED52FF4F81E08083E35DF040108A178608
:102040000FB6F8948091B10D9091B20DA091B30D9F
:10205000B091B40D0FBEE553FF4F88579C4EAF4F64
:10206000BF4F80839183A283B3830895FC011182C3
:1020700012820895FC018281882311F081E081831E
:102080000895FC0181818111118208950F931F939E
:102090008C010E94D7610E94B461F801118280E036
:1020A00091E00E949F3A1F910F910895FC018EECE0
:1020B00092E0918380838581882321F0CF0102966D
:1020C0000C94CD540895EF92FF920F931F937C01CF
:1020D0008C0104551F4FC8010E947F54C8010E9403
:1020E000CD54F70110821F910F91FF90EF9008954A
:1020F000CF92DF92EF92FF920F931F93CF93DF93D4
:102100007C016B01DB010D900020E9F78D0101508E
:102110001040061B170BECEAF0E0EE0EFF1ED70195
:102120001C92E4E5FFEFEE0EFF1ECB016EE470E0C3
:1021300054DCEC01009731F4F8013197EC0DFD1DF2
:1021400086010CC060E270E048DC8C010F5F1F4F1D
:10215000CE016AE270E041DCFC0131978DE08183C1
:102160008AE082831382C70186559F4FB8010E947F
:102170003D5C8CEA90E0E80EF91ED7018C91882333
:10218000F1F0EEEFF0E06491EF0106C08AEB9DE024
:1021900000DF2196FE0164916623C1F7E5E0F1E0DE
:1021A0006491EF0106C08AEB9DE0F3DE2196FE010B
:1021B00064916623C1F78AEB9DE06AE0EADEDF9175
:1021C000CF911F910F91FF90EF90DF90CF900895E6
:1021D000EF92FF920F93CF93DF937C01FC018281FA
:1021E000882309F43DC0EDE2F1E06491EF0106C0FF
:1021F0008AEB9DE0CEDE2196FE0164916623C1F755
:102200008FEC90E0E80EF91EF70140815181628168
:10221000738181E39FEFE80EF91E8AEB9DE02AE0CF
:1022200000E00E941D7AEBE2F1E06491EF0106C04C
:102230008AEB9DE0AEDE2196FE0164916623C1F734
:1022400087EC90E0E80EF91EF70140815181628130
:1022500073818AEB9DE02AE000E00E941D7A0DC0A8
:10226000EBE1F1E06491EF0106C08AEB9DE091DEC5
:102270002196FE0164916623C1F78AEB9DE06AE036
:1022800088DEDF91CF910F91FF90EF9008952F920C
:102290003F924F925F926F927F928F929F92AF92F6
:1022A000BF92CF92DF92EF92FF920F931F93DF9333
:1022B000CF93CDB7DEB7AB970FB6F894DEBF0FBEA6
:1022C000CDBF5C014B014BA7FC018281882309F43F
:1022D000B6C13CEA432E512C4A0C5B1CC2010E9441
:1022E000CD54F5011182188A1B8A8EEC92E09F87EB
:1022F0008E87C501419697A786A7F40180818F320A
:1023000009F086C0C4016FE270E067DB7C010894CD
:10231000E11CF11C3E010894611C711C20E1222E7D
:10232000312C2C0E3D1E6FC0C7016FE270E055DBF3
:102330006C01009709F474C0E816F90608F070C043
:102340008C010E191F09C301B701A80166DB060D38
:10235000171DF8011082E091BA0DF091BB0D0280BB
:10236000F381E02D8AEB9DE0B30109958AEB9DE0B6
:102370006AE00FDEF50166A577A56115710519F410
:1023800060E070E002C06E5F7F4FC101A30121E0F9
:102390000E94445B882361F5EFEDF1E064917F01D9
:1023A00008C08AEB9DE0F5DD0894E11CF11CF70103
:1023B00064916623B1F7E091BA0DF091BB0D0280F4
:1023C000F381E02D8AEB9DE0BE016F5F7F4F0995A1
:1023D000EDEDF1E064917F0108C08AEB9DE0D9DD6D
:1023E0000894E11CF11CF70164916623B1F720C148
:1023F0002EE030E02C0F3D1FF50137A726A7760110
:102400000894E11CF11CE114F10409F08DCF05C022
:10241000C501C096F50197A786A7082DD92C02C043
:102420000E2DDF2CF50166A577A5FBA5FF2309F48A
:10243000A7C06115710519F460E070E002C06E5F1D
:102440007F4FC201402F5D2D21E00E94445B882315
:1024500009F46BC0A50149535F4F2DEB30E0A20E8C
:10246000B31EF50180819181A281B38123E43FEF06
:10247000A20EB31EFA0180839183A283B383E0EDA1
:10248000F1E064917F0108C08AEB9DE082DD089451
:10249000E11CF11CF70164916623B1F7E091BA0DDC
:1024A000F091BB0D0280F381E02D8AEB9DE0602F5F
:1024B0007D2D0995E9ECF1E064917F0108C08AEB7C
:1024C0009DE067DD0894E11CF11CF701649166232F
:1024D000B1F727EC30E0A20EB31EF5014081518127
:1024E000628173818AEB9DE02AE000E00E941D7A00
:1024F0008AEB9DE06AE04DDD28E030E0A20EB31EDD
:10250000F5011082118212821382EBEBF1E06491EB
:102510007F0108C08AEB9DE03CDD0894E11CF11CC2
:10252000F70164916623B1F783C0E7EAF1E06491B3
:102530007F0108C08AEB9DE02CDD0894E11CF11CB2
:10254000F70164916623B1F7E091BA0DF091BB0DEC
:102550000280F381E02D8AEB9DE0602F7D2D0995AF
:10256000E5EAF1E064917F0108C08AEB9DE011DDAE
:102570000894E11CF11CF70164916623B1F758C07F
:102580006115710519F460E070E002C06E5F7F4F65
:10259000C201402F5D2D26E50E94445B882359F53A
:1025A000E1E9F1E064917F0108C08AEB9DE0F1DC94
:1025B0000894E11CF11CF70164916623B1F7E091E6
:1025C000BA0DF091BB0D0280F381E02D8AEB9DE006
:1025D000602F7D2D0995EFE8F1E064917F0108C03F
:1025E0008AEB9DE0D6DC0894E11CF11CF7016491B4
:1025F0006623B1F71DC081E0F5018083EDE7F1E0CE
:1026000064917F0108C08AEB9DE0C3DC0894E11C63
:10261000F11CF70164916623B1F7E091BA0DF091D6
:10262000BB0D0280F381E02D8AEB9DE0B40109959A
:102630008AEB9DE06AE0ADDCCE010E9637DDAB960D
:102640000FB6F894DEBF0FBECDBFCF91DF911F91C3
:102650000F91FF90EF90DF90CF90BF90AF909F9041
:102660008F907F906F905F904F903F902F90089544
:102670002F923F924F925F926F927F928F929F9292
:10268000AF92BF92CF92DF92EF92FF920F931F9380
:10269000DF93CF93CDB7DEB7AA970FB6F894DEBF1E
:1026A0000FBECDBF5C014B01FC018281882309F480
:1026B0000CC1C50184559F4F0E94CD54F501118274
:1026C000188A1B8A8EEC92E09F878E87C5014196FF
:1026D00097A786A7F40180818F3209F087C0C401D3
:1026E0006FE270E07AD97C010894E11CF11C3E0194
:1026F0000894611C711C5EE0252E312C2C0E3D1EB1
:1027000040E1442E512C4C0E5D1E6BC0C7016FE2A0
:1027100070E063D96C01009709F470C0E816F906FF
:1027200008F06CC08C010E191F09C301B701A80184
:1027300074D9060D171DF8011082E091BA0DF091C1
:10274000BB0D0280F381E02D8AEB9DE0B30109957A
:102750008AEB9DE06AE01DDCF50166A577A56115B1
:10276000710519F460E070E002C06E5F7F4FC20136
:10277000A30121E00E94445B882361F5E9E6F1E0D2
:1027800064917F0108C08AEB9DE003DC0894E11CA2
:10279000F11CF70164916623B1F7E091BA0DF09155
:1027A000BB0D0280F381E02D8AEB9DE0BE016F5FDF
:1027B0007F4F0995E7E6F1E064917F0108C08AEB5D
:1027C0009DE0E7DB0894E11CF11CF70164916623AE
:1027D000B1F774C0F50137A626A676010894E11C6E
:1027E000F11CE114F10409F091CF05C0C501C096B8
:1027F000F50197A786A7D82C092D02C0DE2C0F2D36
:10280000F50186A597A5009719F480E090E001C036
:1028100002966D2D702F0E94105C882329F1E9E546
:10282000F1E064917F0108C08AEB9DE0B2DB08947F
:10283000E11CF11CF70164916623B1F7E091BA0D38
:10284000F091BB0D0280F381E02D8AEB9DE06D2DB0
:10285000702F09958FEC90E0A80EB91EF50110823B
:102860001182128213822EC0E1E4F1E064917F01B3
:1028700008C08AEB9DE08DDB0894E11CF11CF70198
:1028800064916623B1F7E091BA0DF091BB0D02801F
:10289000F381E02D8AEB9DE06D2D702F0995EFE31C
:1028A000F1E064917F0108C08AEB9DE072DB08943F
:1028B000E11CF11CF70164916623B1F78AEB9DE0FE
:1028C0006AE067DBCE010E96F1DBAA960FB6F894AC
:1028D000DEBF0FBECDBFCF91DF911F910F91FF9053
:1028E000EF90DF90CF90BF90AF909F908F907F90B0
:1028F0006F905F904F903F902F900895EF92FF92CE
:102900000F931F93CF93DF937C01FC011282868982
:10291000882321F0C70143960E94CD5487010957AF
:102920001F4FC80160E04AE10E9497528823D9F402
:10293000E3EEF0E06491EF0106C08AEB9DE029DB55
:102940002196FE0164916623C1F7E9E4F2E0649107
:10295000EF0106C08AEB9DE01CDB2196FE0164912D
:102960006623C1F76BC0E701C457DF4FCE01B80142
:1029700041E00E94CE5C882311F5CE01B80140E011
:102980000E94CE5C8823D9F4EEEFF0E06491EF0171
:1029900006C08AEB9DE0FDDA2196FE016491662374
:1029A000C1F7E6E3F2E06491EF0106C08AEB9DE037
:1029B000F0DA2196FE0164916623C1F73FC0C7019A
:1029C0004396BE010E944A578823D9F4EEEFF0E007
:1029D0006491EF0106C08AEB9DE0DBDA2196FE01EF
:1029E00064916623C1F7E6E2F2E06491EF0106C06C
:1029F0008AEB9DE0CEDA2196FE0164916623C1F751
:102A00001DC081E0F7018283E3EEF0E06491EF0105
:102A100006C08AEB9DE0BDDA2196FE016491662333
:102A2000C1F7EBE1F2E06491EF0106C08AEB9DE0B3
:102A3000B0DA2196FE0164916623C1F78AEB9DE02E
:102A40006AE0A7DAC7014196F70197A786A7C701F1
:102A5000C2962CE830E0E20EF31EB7010E944A57FE
:102A6000882389F4E7E0F2E06491EF0106C08AEB85
:102A70009DE08FDA2196FE0164916623C1F78AEB0F
:102A80009DE06AE086DADF91CF911F910F91FF9070
:102A9000EF9008952F923F924F925F927F928F9284
:102AA0009F92AF92BF92CF92DF92EF92FF920F93DD
:102AB0001F93DF93CF93CDB7DEB7CC55D0400FB681
:102AC000F894DEBF0FBECDBF7C01662359F523ED20
:102AD00030E0E20EF31ED7018C91EDE2FFEFEE0E37
:102AE000FF1E882309F4F2C00FB6F8942091B10DAF
:102AF0003091B20D4091B30D5091B40D0FBE6BECFF
:102B000070E0E60EF71EF70180819181A281B3810A
:102B100065E37FEFE60EF71E82179307A407B5075C
:102B200008F4D4C083ED90E0E80EF91ED7011C92A2
:102B3000EDE2FFEFEE0EFF1ED70112968C91882377
:102B400039F4C701DBDEF7018281882309F4BEC0B6
:102B500000D000D000D0EDB7FEB731968E010F5FE8
:102B60001F4FADB7BEB712961C930E9311978CE012
:102B700091E093838283D7011F968D919C9150970A
:102B8000958384830E94360DCC24DD24EDB7FEB7F7
:102B900036960FB6F894FEBF0FBEEDBF58010AC0BF
:102BA000D8018C91992787FD90950E946A82F8013F
:102BB00081938F01C601F50101900020E9F731975B
:102BC000EA19FB090894C11CD11C8E179F0744F316
:102BD000E3E18E2E912C8E0C9F1CC40140E050E04E
:102BE00060E070E00E94B55377247DE3A72EB12CFE
:102BF000AC0EBD1E1E010894211C311C6FE1462E37
:102C0000512C4C0E5D1E48C0D6018C9190E00E9464
:102C10006A82F60181936F01C801F50101900020DD
:102C2000E9F73197EA19FB090F5F1F4F8E179F07CE
:102C30005CF327968FAD27978E3771F1C501B101EF
:102C400045E050E00E94FF0C009731F500D000D025
:102C500000D0EDB7FEB73196ADB7BEB712965C9215
:102C60004E92119725E131E033832283358224820D
:102C70000E94360D6DB77EB76A5F7F4F0FB6F8942E
:102C80007EBF0FBE6DBFC2010E949F3A8CE191E0F2
:102C90000E949F3A77247394C401B5010E94C356E1
:102CA000181624F4650100E010E0B6CF772041F457
:102CB0008FEF9FEFD70150969C938E931F9706C07E
:102CC000F701878590890196908B8787C45ADF4FDB
:102CD0000FB6F894DEBF0FBECDBFCF91DF911F912D
:102CE0000F91FF90EF90DF90CF90BF90AF909F90AB
:102CF0008F907F905F904F903F902F9008952F92EC
:102D00003F924F925F926F927F928F929F92AF927B
:102D1000BF92CF92DF92EF92FF920F931F93DF93B8
:102D2000CF93CDB7DEB7C958D0400FB6F894DEBF09
:102D30000FBECDBF6C012B015A0182E090E0A80EBE
:102D4000B91EF6013396CE57DF4FF983E883C25898
:102D5000D040CC57DF4F1882C458D04012E6E12E45
:102D6000F12CEC0EFD1EC7010B96CB57DF4F99835C
:102D70008883C558D040B4ED6B2E712C6C0C7D1C33
:102D8000A6ED8A2E912C8C0C9D1CFEE02F2E312C52
:102D90002C0E3D1EE5E4F0E0EC0FFD1F3296C95706
:102DA000DF4FF983E883C758D040E3EEF0E0849129
:102DB000C757DF4F8883C958D04034C1F701838596
:102DC000482F50E0BA01687170706031710509F0E8
:102DD00031C1F301208131812130310509F42AC14B
:102DE0002230310509F426C1F701DE0111969081E8
:102DF000903239F08E2F8E19883011F48EE28D9337
:102E00009D933196CB57DF4F88819981C558D0402B
:102E1000E817F90761F71C921E86F201808188236A
:102E200029F4C10160E271E00E94E20CC101B2012B
:102E30000E94E20CC101BE016F5F7F4F0E94E20C55
:102E4000C10160E271E00E94E20C1AA61DA68EECA0
:102E500092E099A788A7CE018A96B501AE014F5F8F
:102E60005F4F21E00E94445B8823B9F5F301808124
:102E70009181892B91F5C757DF4F6881C958D040A0
:102E800003EE10E007C08AEB9DE083D80F5F1F4F71
:102E9000F80164916623B9F7E091BA0DF091BB0D8A
:102EA0000280F381E02D8AEB9DE062E271E00995FA
:102EB0008AEB9DE06AE06DD8E091BA0DF091BB0D10
:102EC0000280F381E02D8AEB9DE0BE016F5F7F4FB2
:102ED00009958AEB9DE06AE05CD8C957DF4FA8816D
:102EE000B981C758D040FE01BA968BE101900D928E
:102EF0008150E1F78EEC92E027969FAF8EAF279737
:102F0000C601B101AE014B5B5F4FF9DECE018B5BB9
:102F10009F4FCCD8CE018896C9D884C0953E09F47D
:102F200081C09E3209F47EC09F3509F47BC043FD09
:102F300079C080E06031710509F481E0F60186878F
:102F4000882349F4F7018085873409F06BC08185B7
:102F50008E3709F467C0CE57DF4FA881B981C258B8
:102F6000D040F7018081803241F08E2F8E19883059
:102F700011F48EE28D9380818D933196CB57DF4F84
:102F800088819981C558D040E817F90759F71C92F4
:102F9000F30180819181009709F5E091BA0DF091DC
:102FA000BB0D0280F381E02D8AEB9DE0B201099513
:102FB000E091BA0DF091BB0D0280F381E02D8AEB18
:102FC0009DE0CE57DF4F68817981C258D040099586
:102FD0008AEB9DE06AE00E94C90F24C08130910510
:102FE00039F4F401808191810196918380831AC024
:102FF0000297C1F4CC57DF4FF881C458D0402F2F2F
:1030000030E0F4018081918128173907C1F0CC5755
:10301000DF4FF881C458D040FF5FCC57DF4FF883B3
:10302000C458D040C501B7010E94C35618160CF40D
:10303000C5CE05C0F7019081992309F06FCFC7571E
:10304000DF4F0FB6F894DEBF0FBECDBFCF91DF913B
:103050001F910F91FF90EF90DF90CF90BF90AF90B6
:103060009F908F907F906F905F904F903F902F90A8
:103070000895EF92FF920F931F93DF93CF93CDB7F5
:10308000DEB76D970FB6F894DEBF0FBECDBF7C01E3
:1030900084ED90E0E80EF91EF701118210828CE2B7
:1030A0009FEFE80EF91E87010D5E1F4FC80140E03B
:1030B00050E060E070E00E94B553DE011396F80125
:1030C0008BE101900D928150E1F78EEC92E09A83B2
:1030D0008983C70165E371E08E010F5F1F4FA8016F
:1030E0000EDEC8010E9456106D960FB6F894DEBF32
:1030F0000FBECDBFCF91DF911F910F91FF90EF9049
:103100000895DC01ED91FC910280F381E02D099599
:1031100008950F931F93DF93CF93CDB7DEB7289712
:103120000FB6F894DEBF0FBECDBF809136019091EF
:103130003701A0913801B091390189839A83AB831B
:10314000BC8380E090E09E012F5F3F4FF901E80FC4
:10315000F91FE081F999FECF1FBA8C599F4F92BD9C
:1031600081BDE0BD0FB6F894FA9AF99A0FBE835666
:1031700090408430910551F7EDECF5E088E690E061
:103180002191F999FECF1FBA92BD81BD20BD0FB626
:10319000F894FA9AF99A0FBE019625E0ED3DF207F0
:1031A00079F7EDEBF5E088E790E02191F999FECF12
:1031B0001FBA92BD81BD20BD0FB6F894FA9AF99A54
:1031C0000FBE019625E0ED3CF20779F7EDEDF5E055
:1031D00088E890E02191F999FECF1FBA92BD81BD98
:1031E00020BD0FB6F894FA9AF99A0FBE019625E021
:1031F000ED3EF20779F7E1EFF5E088E990E0219103
:10320000F999FECF1FBA92BD81BD20BD0FB6F894CB
:10321000FA9AF99A0FBE019625E0E53FF20779F791
:10322000E5EFF5E08CE990E02191F999FECF1FBA26
:1032300092BD81BD20BD0FB6F894FA9AF99A0FBEDF
:10324000019625E0E93FF20779F7EDEEF5E080EA37
:1032500090E02191F999FECF1FBA92BD81BD20BDAA
:103260000FB6F894FA9AF99A0FBE019625E0E13F5D
:10327000F20779F7E5E0F6E084EA90E02191F99928
:10328000FECF1FBA92BD81BD20BD0FB6F894FA9A49
:10329000F99A0FBE019626E0E930F20779F7E9EBDB
:1032A000F5E088EA90E02191F999FECF1FBA92BD2E
:1032B00081BD20BD0FB6F894FA9AF99A0FBE019617
:1032C00025E0ED3BF20779F7E9EFF5E08CEA90E0D5
:1032D0002191F999FECF1FBA92BD81BD20BD0FB6D5
:1032E000F894FA9AF99A0FBE019625E0ED3FF2079D
:1032F00079F7EDEFF5E080EB90E02191F999FECFC1
:103300001FBA92BD81BD20BD0FB6F894FA9AF99A02
:103310000FBE019626E0E130F20779F7E1E0F6E032
:1033200084EB90E02191F999FECF1FBA92BD81BD47
:1033300020BD0FB6F894FA9AF99A0FBE019626E0CE
:10334000E530F20779F7EEE3F2E088EB90E02191C7
:10335000F999FECF1FBA92BD81BD20BD0FB6F8947A
:10336000FA9AF99A0FBE019622E0E234F20779F751
:10337000E2E4F2E08CEB90E02191F999FECF1FBAE4
:1033800092BD81BD20BD0FB6F894FA9AF99A0FBE8E
:10339000019622E0E634F20779F7E6E4F2E080EC09
:1033A00090E02191F999FECF1FBA92BD81BD20BD59
:1033B0000FB6F894FA9AF99A0FBE019622E0EA3411
:1033C000F20779F780913A0190913B01A0913C017D
:1033D000B0913D018D839E83AF83B88780E090E0FC
:1033E0009E012B5F3F4FF901E80FF91FE081F9992A
:1033F000FECF1FBA8C599F4F92BD81BDE0BD0FB665
:10340000F894FA9AF99A0FBE835690408430910549
:1034100051F7E9E8F2E064918F0108C08AEB9DE082
:103420000E94C90F0F5F1F4FF80164916623B1F727
:10343000E1EBF3E064918F0108C08AEB9DE00E940C
:10344000C90F0F5F1F4FF80164916623B1F78AEB34
:103450009DE06AE00E94C90F28960FB6F894DEBF7F
:103460000FBECDBFCF91DF911F910F910895CF93E4
:10347000DF930FB6F8948091B10D9091B20DA091A9
:10348000B30DB091B40D0FBE8093EB039093EC039A
:10349000A093ED03B093EE03E0911404F0911504B2
:1034A000EA5EFB4F8081882399F4EEE7F2E06491B5
:1034B000EF0107C08AEB9DE00E94C90F2196FE0133
:1034C00064916623B9F78AEB9DE06AE00E94C90F18
:1034D000DF91CF9108958130910541F46F5F7F4F67
:1034E00009F051C08CEE92E00C94E10F892B09F0A9
:1034F0004AC06F5F7F4F09F046C08EEC92E0909318
:1035000097038093960380919B03882321F088E999
:1035100093E00E94CD548EEC92E0909357038093F9
:10352000560380915B03882321F088E593E00E9495
:10353000CD548EEC92E090933A03809339038091BE
:103540003E03882321F08BE393E00E94CD548EEC60
:1035500092E090931D0380931C03809121038823A4
:1035600021F08EE193E00E94CD548EEC92E0909396
:10357000FE028093FD0280910203882321F08FEFE9
:1035800092E00C94CD54089580E090E06FEF7FEFCF
:10359000A2CF81E090E06FEF7FEF9DCFCF93DF93DD
:1035A000E6E5F2E06491EF0107C08AEB9DE00E943E
:1035B000C90F2196FE0164916623B9F7EDE5F2E0AB
:1035C0006491EF0107C08AEB9DE00E94C90F21962C
:1035D000FE0164916623B9F78AEB9DE06AE00E94E0
:1035E000C90F0E94D46F779A769A479A439AF894B3
:1035F000DF91CF910895EF92FF920F931F930FB633
:10360000F8948091B10D9091B20DA091B30DB0914D
:10361000B40D0FBEE090EF03F090F0030091F103C2
:103620001091F2032091EB033091EC034091ED03F4
:103630005091EE03821B930BA40BB50BE816F90611
:103640000A071B0730F4E114F1040105110509F024
:10365000A5DFE0903002F09031020091320210912B
:103660003302E114F1040105110531F10FB6F894AC
:103670008091B10D9091B20DA091B30DB091B40DA8
:103680000FBE2091EB033091EC034091ED0350917C
:10369000EE03821B930BA40BB50BE816F9060A0781
:1036A0001B0750F49091F90A8091FA0A981721F4B7
:1036B000779A769A479A439A0E94FC3E1F910F91FF
:1036C000FF90EF9008956F927F928F929F92AF92AA
:1036D000BF92CF92DF92EF92FF920F931F93F82E3B
:1036E0006091F3037091F4038091F5039091F603D8
:1036F0002091F7033091F8034091F9035091FA03B8
:103700000E9442803B014C0160912C0270912D027D
:1037100000D000D000D00DB71EB70F5F1F4F882715
:1037200077FD8095982F0E94C97E209134023091B8
:10373000350240913602509137020E94078120E005
:1037400030E040E752E40E942E7E20E030E048EC7A
:1037500052E40E942E7E5B016C01F801608271824E
:1037600082829382F4828091E90385838DEC93E0D9
:103770006FEF73E043EF53E020E001E032E0E32E2F
:103780000E94163B8091FF0390910004A0910104D8
:10379000B09102048093CD039093CE03A093CF0306
:1037A000B093D0038091030490910404A091050488
:1037B000B09106048093D1039093D203A093D303D6
:1037C000B093D4038091070490910804A091090458
:1037D000B0910A048093D5039093D603A093D703A6
:1037E000B093D80380910B0490910C04A0910D0428
:1037F000B0910E048093D9039093DA03A093DB0376
:10380000B093DC030FB6F8948091B10D9091B20D96
:10381000A091B30DB091B40D0FBE8093EB039093C4
:10382000EC03A093ED03B093EE038DB79EB706961D
:103830000FB6F8949EBF0FBE8DBF1F910F91FF90E2
:10384000EF90DF90CF90BF90AF909F908F907F9040
:103850006F900895CF92DF92EF92FF920F931F9394
:103860006091FF0370910004809101049091020423
:1038700020E030E040E050E00E94277E882364F49E
:1038800080E090E0A0E0B0E08093FF03909300041C
:10389000A0930104B09302046091030470910404A6
:1038A000809105049091060420E030E040E050E073
:1038B0000E94277E882364F480E090E0A0E0B0E0DE
:1038C0008093030490930404A0930504B09306042A
:1038D00060910704709108048091090490910A0492
:1038E00020E030E040E050E00E94277E882364F42E
:1038F00080E090E0A0E0B0E080930704909308049B
:10390000A0930904B0930A046091FF03709100042E
:10391000809101049091020420E030E04EE053E4F5
:103920000E943580181664F480E090E0AEE0B3E4C5
:103930008093FF0390930004A0930104B0930204CA
:103940006091030470910404809105049091060431
:1039500020E030E04AEE52E40E943580181664F40C
:1039600080E090E0AAEEB2E4809303049093040414
:10397000A0930504B09306046091070470910804B5
:103980008091090490910A0420E030E041EC52E477
:103990000E943580181664F480E090E0A1ECB2E457
:1039A0008093070490930804A0930904B0930A0439
:1039B0000FB6F8948091B10D9091B20DA091B30D16
:1039C000B091B40D0FBE8093EB039093EC03A093E2
:1039D000ED03B093EE0360912C0270912D028827C5
:1039E00077FD8095982F0E94C97E209134023091F6
:1039F000350240913602509137020E94078120E043
:103A000030E040E752E40E942E7E20E030E048ECB7
:103A100052E40E942E7E7B018C018FEF93E063E0E5
:103A200074E047E054E02BE034E0E9EECE2EE3E032
:103A3000DE2E0E947D448091FF0390910004A091AE
:103A40000104B09102048093CD039093CE03A09320
:103A5000CF03B093D0038091030490910404A0910C
:103A60000504B09106048093D1039093D203A093F0
:103A7000D303B093D4038091070490910804A091DC
:103A80000904B0910A048093D5039093D603A093C0
:103A9000D703B093D80380910B0490910C04A091AC
:103AA0000D04B0910E048093D9039093DA03A09390
:103AB000DB03B093DC031F910F91FF90EF90DF9039
:103AC000CF900895CF93DF938AEB9DE00E94CF7B48
:103AD000E1E8F2E06491EF0107C08AEB9DE00E940B
:103AE000C90F2196FE0164916623B9F740911A042B
:103AF00050911B0460911C0470911D044F5F5F4F37
:103B00006F4F7F4F8AEB9DE00E94A87A8AEB9DE081
:103B10006AE00E94C90FABDCDF91CF91089540911C
:103B200014045091150420E630E0B901469F90013D
:103B3000479F300D569F300D1124682F772767FD62
:103B40007095C901885D9B4F0E94ED0C9C0190937C
:103B500023048093220480E0232B09F081E0089560
:103B6000EF92FF920F93CF93DF93F9E8EF2EF2E0FD
:103B7000FF2EF7016491E70107C08AEB9DE00E94E8
:103B8000C90F2196FE0164916623B9F7E9E5F5E0D6
:103B90006491EF0107C08AEB9DE00E94C90F219656
:103BA000FE0164916623B9F78AEB9DE06AE00E940A
:103BB000C90FF7016491C9E8D2E007C08AEB9DE024
:103BC0000E94C90F2196FE0164916623B9F7E1E5D1
:103BD000F5E06491EF0107C08AEB9DE00E94C90FF8
:103BE0002196FE0164916623B9F74091CD0550916D
:103BF000CE056091CF057091D0058AEB9DE022E063
:103C00000E94B97AEEE4F5E06491EF0107C08AEB17
:103C10009DE00E94C90F2196FE0164916623B9F7C9
:103C20004091D1055091D2056091D3057091D40592
:103C30008AEB9DE022E00E94B97AEBE4F5E0649122
:103C4000EF0107C08AEB9DE00E94C90F2196FE019B
:103C500064916623B9F74091D5055091D6056091DE
:103C6000D7057091D8058AEB9DE022E00E94B97AD1
:103C7000E8E4F5E06491EF0107C08AEB9DE00E9463
:103C8000C90F2196FE0164916623B9F74091D905C9
:103C90005091DA056091DB057091DC058AEB9DE0BF
:103CA00022E00E94B97A8AEB9DE06EE371E029DAA6
:103CB0008AEB9DE06AE00E94C90FF7016491C9E8B0
:103CC000D2E007C08AEB9DE00E94C90F2196FE0159
:103CD00064916623B9F7EEE2F5E06491EF0107C065
:103CE0008AEB9DE00E94C90F2196FE016491662334
:103CF000B9F78AEB9DE06AE00E94C90FF701649171
:103D0000C9E8D2E007C08AEB9DE00E94C90F219666
:103D1000FE0164916623B9F7E5E2F5E06491EF01F5
:103D200007C08AEB9DE00E94C90F2196FE016491B5
:103D30006623B9F74091BD055091BE056091BF055E
:103D40007091C0058AEB9DE022E00E94B97AE2E220
:103D5000F5E06491EF0107C08AEB9DE00E94C90F76
:103D60002196FE0164916623B9F74091C1055091F7
:103D7000C2056091C3057091C4058AEB9DE022E005
:103D80000E94B97AEFE1F5E06491EF0107C08AEB98
:103D90009DE00E94C90F2196FE0164916623B9F748
:103DA0004091C5055091C6056091C7057091C80541
:103DB0008AEB9DE022E00E94B97AECE1F5E06491A3
:103DC000EF0107C08AEB9DE00E94C90F2196FE011A
:103DD00064916623B9F74091C9055091CA05609175
:103DE000CB057091CC058AEB9DE022E00E94B97A68
:103DF0008AEB9DE06EE371E084D98AEB9DE06AE096
:103E00000E94C90FF7016491C9E8D2E007C08AEBAC
:103E10009DE00E94C90F2196FE0164916623B9F7C7
:103E2000EEEFF4E06491EF0107C08AEB9DE00E94A1
:103E3000C90F2196FE0164916623B9F78AEB9DE0D4
:103E40006AE00E94C90FF7016491C9E8D2E007C097
:103E50008AEB9DE00E94C90F2196FE0164916623C2
:103E6000B9F7E5EFF4E06491EF0107C08AEB9DE05C
:103E70000E94C90F2196FE0164916623B9F7409113
:103E8000DD055091DE056091DF057091E0058AEB5C
:103E90009DE02AE000E00E941D7AE2EFF4E06491E8
:103EA000EF0107C08AEB9DE00E94C90F2196FE0139
:103EB00064916623B9F74091E1055091E205609164
:103EC000E3057091E4058AEB9DE02AE000E00E94A2
:103ED0001D7AEFEEF4E06491EF0107C08AEB9DE0FC
:103EE0000E94C90F2196FE0164916623B9F74091A3
:103EF000E5055091E6056091E7057091E8058AEBCC
:103F00009DE02AE000E00E941D7AECEEF4E064916E
:103F1000EF0107C08AEB9DE00E94C90F2196FE01C8
:103F200064916623B9F74091E9055091EA056091E3
:103F3000EB057091EC058AEB9DE02AE000E00E9421
:103F40001D7A8AEB9DE06EE371E0DBD88AEB9DE0A1
:103F50006AE00E94C90FF7016491C9E8D2E007C086
:103F60008AEB9DE00E94C90F2196FE0164916623B1
:103F7000B9F7E7EBF4E06491EF0107C08AEB9DE04D
:103F80000E94C90F2196FE0164916623B9F78AEB5E
:103F90009DE06AE00E94C90FF7016491C9E8D2E090
:103FA00007C08AEB9DE00E94C90F2196FE01649133
:103FB0006623B9F7EEEAF4E06491EF0107C08AEBFB
:103FC0009DE00E94C90F2196FE0164916623B9F716
:103FD0004091F1055091F2056091F3057091F4055F
:103FE0008AEB9DE022E00E94B97AEBEAF4E064916A
:103FF000EF0107C08AEB9DE00E94C90F2196FE01E8
:1040000064916623B9F74091F5055091F6056091EA
:10401000F7057091F8058AEB9DE022E00E94B97ADD
:104020008AEB9DE06EE371E06CD88AEB9DE06AE07C
:104030000E94C90FF7016491C9E8D2E007C08AEB7A
:104040009DE00E94C90F2196FE0164916623B9F795
:10405000E2E1F4E06491EF0107C08AEB9DE00E9489
:10406000C90F2196FE0164916623B9F78AEB9DE0A2
:104070006AE00E94C90FF7016491C9E8D2E007C065
:104080008AEB9DE00E94C90F2196FE016491662390
:10409000B9F7E9E0F4E06491EF0107C08AEB9DE035
:1040A0000E94C90F2196FE0164916623B9F74091E1
:1040B000ED055091EE056091EF057091F0058AEBEA
:1040C0009DE022E00E94B97AE6E0F4E06491EF011D
:1040D00007C08AEB9DE00E94C90F2196FE01649102
:1040E0006623B9F7409105065091060660910706D0
:1040F000709108068AEB9DE022E00E94B97AE3E025
:10410000F4E06491EF0107C08AEB9DE00E94C90FC3
:104110002196FE0164916623B9F74091B90550914B
:10412000BA056091BB057091BC058AEB9DE02AE061
:1041300000E00E941D7AE0E0F4E06491EF0107C026
:104140008AEB9DE00E94C90F2196FE0164916623CF
:10415000B9F74091F9055091FA056091FB0570910E
:10416000FC058AEB9DE022E00E94B97AEDEFF3E0D6
:104170006491EF0107C08AEB9DE00E94C90F219670
:10418000FE0164916623B9F74091FD055091FE054B
:104190006091FF05709100068AEB9DE022E00E948D
:1041A000B97AEAEFF3E06491EF0107C08AEB9DE092
:1041B0000E94C90F2196FE0164916623B9F74091D0
:1041C00001065091020660910306709104068AEB85
:1041D0009DE022E00E94B97A8AEB9DE06EE371E0F7
:1041E0000E9481188AEB9DE06AE00E94C90FF701E6
:1041F0006491C9E8D2E007C08AEB9DE00E94C90F34
:104200002196FE0164916623B9F7ECEEF3E0649128
:10421000EF0107C08AEB9DE00E94C90F2196FE01C5
:1042200064916623B9F78AEB9DE06AE00E94C90FAA
:10423000F7016491C9E8D2E007C08AEB9DE00E94D3
:10424000C90F2196FE0164916623B9F7E2EEF3E00F
:104250006491EF0107C08AEB9DE00E94C90F21968F
:10426000FE0164916623B9F740913E0250913F02EE
:1042700060914002709141028AEB9DE022E00E9431
:10428000B97AEFEDF3E06491EF0107C08AEB9DE0AE
:104290000E94C90F2196FE0164916623B9F76091CF
:1042A00042027091430280914402909145022DEBAD
:1042B00037E346E05EE30E942E7EAB01BC018AEB51
:1042C0009DE022E00E94B97AECEDF3E06491EF0109
:1042D00007C08AEB9DE00E94C90F2196FE01649100
:1042E0006623B9F7609146027091470280914802B7
:1042F000909149022DEB37E346E05EE30E9407818F
:10430000AB01BC018AEB9DE022E00E94B97A8AEB06
:104310009DE06EE371E00E9481188AEB9DE06AE007
:104320000E94C90FDF91CF910F91FF90EF900895F8
:104330000F931F93DF93CF93CDB7DEB7E8970FB6F8
:10434000F894DEBF0FBECDBF682F80913A019091E7
:104350003B01A0913C01B0913D018D839E83AF83D1
:10436000B887FE01319624E630E0AE014C5F5F4F26
:10437000F999FECF32BD21BDF89A80B580832F5FB9
:104380003F4FE417F50711F03196F2CF662309F09D
:1043900035C1CE010596BE016F5F7F4F43E050E00F
:1043A0000E94FF0C009709F029C1EDECF5E028E62A
:1043B00030E0F999FECF32BD21BDF89A80B58083F7
:1043C0002F5F3F4F85E0EC3DF80711F03196F1CFBC
:1043D000EDEBF5E028E730E0F999FECF32BD21BDE5
:1043E000F89A80B580832F5F3F4F85E0EC3CF8075B
:1043F00011F03196F1CFEDEDF5E028E830E0F999D4
:10440000FECF32BD21BDF89A80B580832F5F3F4F2C
:1044100085E0EC3EF80711F03196F1CFE1EFF5E0E1
:1044200028E930E0F999FECF32BD21BDF89A80B578
:1044300080832F5F3F4F85E0E43FF80711F031960E
:10444000F1CFE5EFF5E02CE930E0F999FECF32BD90
:1044500021BDF89A80B580832F5F3F4F85E0E83F0C
:10446000F80711F03196F1CFEDEEF5E020EA30E0FB
:10447000F999FECF32BD21BDF89A80B580832F5FB8
:104480003F4F85E0E03FF80711F03196F1CFE5E0CE
:10449000F6E024EA30E0F999FECF32BD21BDF89A6A
:1044A00080B580832F5F3F4F86E0E830F80711F03A
:1044B0003196F1CFE9EBF5E028EA30E0F999FECF4B
:1044C00032BD21BDF89A80B580832F5F3F4F85E0D4
:1044D000EC3BF80711F03196F1CFE9EFF5E02CEA6B
:1044E00030E0F999FECF32BD21BDF89A80B58083C6
:1044F0002F5F3F4F85E0EC3FF80711F03196F1CF89
:10450000EDEFF5E020EB30E0F999FECF32BD21BDB3
:10451000F89A80B580832F5F3F4F86E0E030F80740
:1045200011F03196F1CFE1E0F6E024EB30E0F999BB
:10453000FECF32BD21BDF89A80B580832F5F3F4FFB
:1045400086E0E430F80711F03196F1CFEEE3F2E0C7
:1045500028EB30E0F999FECF32BD21BDF89A80B545
:1045600080832F5F3F4F82E0E134F80711F03196EE
:10457000F1CFE2E4F2E02CEB30E0F999FECF32BD6E
:1045800021BDF89A80B580832F5F3F4F82E0E534EC
:10459000F80711F03196F1CFE6E4F2E020EC30E0DC
:1045A000F999FECF32BD21BDF89A80B580832F5F87
:1045B0003F4F82E0E934F80711F03196F1CFE9E896
:1045C000F2E064918F0108C08AEB9DE00E94C90F60
:1045D0000F5F1F4FF80164916623B1F7E1ECF3E040
:1045E00064918F0108C08AEB9DE00E94C90F0F5FA4
:1045F0001F4FF80164916623B1F718C1DE011996C7
:10460000EAEBF2E080E101900D928150E1F7DE01EA
:104610005996EAEAF2E080E101900D928150E1F7CB
:10462000DE019996EAE9F2E080E101900D92815075
:10463000E1F789859A85AB85BC858093CD059093FC
:10464000CE05A093CF05B093D005898D9A8DAB8D03
:10465000BC8D8093BD059093BE05A093BF05B0931C
:10466000C00589A59AA5ABA5BCA58093DD0590934F
:10467000DE05A093DF05B093E0058D859E85AF85AF
:10468000B8898093D1059093D205A093D305B093B8
:10469000D4058D8D9E8DAF8DB8A18093C10590936B
:1046A000C205A093C305B093C4058DA59EA5AFA573
:1046B000B8A98093E1059093E205A093E305B09338
:1046C000E40589899A89AB89BC898093D505909343
:1046D000D605A093D705B093D80589A19AA1ABA11F
:1046E000BCA18093C5059093C605A093C705B09360
:1046F000C80589A99AA9ABA9BCA98093E50590939F
:10470000E605A093E705B093E8058D899E89AF89FA
:10471000B88D8093D9059093DA05A093DB05B0930B
:10472000DC058DA19EA1AFA1B8A58093C90590938A
:10473000CA05A093CB05B093CC058DA99EA9AFA9BE
:10474000B8AD8093E9059093EA05A093EB05B0938B
:10475000EC0580E090E8ABE3B5E48093F10590933D
:10476000F205A093F305B093F4058093F5059093BB
:10477000F605A093F705B093F80520E030E040E09F
:1047800050E02093ED053093EE054093EF055093F4
:10479000F00580E29EE4A0E0B0E08093B90590933C
:1047A000BA05A093BB05B093BC05209305063093D2
:1047B0000606409307065093080680E090E0A0EAC2
:1047C000B1E48093F9059093FA05A093FB05B093AB
:1047D000FC058DEC9CECACECBEE38093FD05909366
:1047E000FE05A093FF05B093000680E090E0A0EAEC
:1047F000B0E48093010690930206A0930306B09361
:104800000406E9E8F2E064918F0108C08AEB9DE0BC
:104810000E94C90F0F5F1F4FF80164916623B1F723
:104820008AEB9DE06FE371E00E9481188AEB9DE0C6
:104830006AE00E94C90F94D9E8960FB6F894DEBFDB
:104840000FBECDBFCF91DF911F910F910895809141
:10485000220490912304019660E070E04AE050E069
:104860000C94850B8091220490912304019660E0C2
:1048700070E00C94280AAF92BF92CF92DF92EF9231
:10488000FF920F931F93CF93DF93ADECEA2EA3E03B
:10489000FA2ECFEFD3E000E010E0F801E45AFD4F2C
:1048A00080813DD9882331F1DDDF5B016C01F801A6
:1048B000EA53FC4F8081882311F061E002C06091CF
:1048C0000F0470E0882777FD8095982F0E94C97E9D
:1048D000F70120813181428153810E9407819B0130
:1048E000AC01C601B5010E944E7D688379838A833D
:1048F0009B8309C0F70180819181A281B381888364
:104900009983AA83BB830F5F1F4F84E090E0E80E7A
:10491000F91E24960430110509F0BFCF86E4FFD8B4
:104920008823D9F09FDF7B018C0160931004709382
:104930001104809312049093130420E030E040E0CF
:1049400050E00E943580181644F4E0923402F09250
:1049500035020093360210933702DF91CF911F91F9
:104960000F91FF90EF90DF90CF90BF90AF900895A0
:1049700082DF89E4D4D8882349F074DF6093F3039D
:104980007093F4038093F5039093F6038AE4C7D8F9
:10499000882349F067DF6093F7037093F8038093EF
:1049A000F9039093FA0308952F923F924F925F92EA
:1049B0006F927F928F929F92AF92BF92CF92DF922F
:1049C000EF92FF920F931F93DF93CF93CDB7DEB794
:1049D000A1970FB6F894DEBF0FBECDBF87E49FD876
:1049E000882309F4C5C43EDF0E94967E64307105B9
:1049F00091F16530710554F46230710519F163303D
:104A000071051CF57723CCF40C9460346A3571057C
:104A100009F44DC46B35710534F46C31710511F036
:104A20000C94603470C06B35710509F444C46C3566
:104A3000710511F00C94603443C41DDF0E942A1CE0
:104A40000C94933495DF81E002C092DF80E00E94F5
:104A5000631B0C94933480E562D8882321F4EE2400
:104A6000FF24870105C0FEDE0E949B7E7B018C0136
:104A700083E555D8882359F0F5DE20E030E04AE799
:104A800054E40E9407810E949B7E7B018C010E945E
:104A9000D7610FB6F894A090B10DB090B20DC09050
:104AA000B30DD090B40D0FBEAE0CBF1CC01ED11EF6
:104AB0000FB6F8948091B10D9091B20DA091B30D05
:104AC000B091B40D0FBE8093EB039093EC03A093D1
:104AD000ED03B093EE0305C00E94566D81E00E9485
:104AE000FB1A0FB6F8948091B10D9091B20DA09180
:104AF000B30DB091B40D0FBE8A159B05AC05BD0575
:104B000058F30C9460348091340290913502A09156
:104B10003602B091370280931E0490931F04A09335
:104B20002004B093210480912C0290912D02909347
:104B3000CB038093CA0384E690E090932D02809388
:104B40002C020FB6F8948091B10D9091B20DA09106
:104B5000B30DB091B40D0FBE8093EB039093EC03B3
:104B6000A093ED03B093EE0381E00E940761809172
:104B7000CD039091CE03A091CF03B091D003809349
:104B8000FF0390930004A0930104B093020480916A
:104B9000D1039091D203A091D303B091D403809319
:104BA000030490930404A0930504B0930604809139
:104BB000D5039091D603A091D703B091D8038093E9
:104BC000070490930804A0930904B0930A04809109
:104BD000D9039091DA03A091DB03B091DC038093B9
:104BE0000B0490930C04A0930D04B0930E0480E08A
:104BF00090E0A0E0B0E08093340290933502A0935F
:104C00003602B093370288E50E948F1D882361F435
:104C100089E50E948F1D882339F48AE50E948F1D43
:104C2000882311F481E001C080E08093380288235A
:104C300031F488E50E948F1D882309F4DAC00F2E15
:104C4000F0E08F2EF0E09F2EF0E0AF2EF0E0BF2ED0
:104C5000F02D8092CD039092CE03A092CF03B0921C
:104C6000D0038DEC93E061ED73E045ED53E029ED69
:104C700033E00E94993F80E090E0A5E5B3EC80939B
:104C8000FF0390930004A0930104B0930204609189
:104C90001C0270911D0280911E0290911F02609370
:104CA000340270933502809336029093370220E0ED
:104CB00030E040E752E40E942E7E7B018C018FEFB2
:104CC00093E063E074E047E054E02BE034E0A9EEC9
:104CD000CA2EA3E0DA2E0E947D440E94D761809202
:104CE000CD039092CE03A092CF03B092D0038DEC6F
:104CF00093E061ED73E045ED53E029ED33E00E9470
:104D0000993F80E090E0A0EAB0E48093FF039093A5
:104D10000004A0930104B0930204609134027091E6
:104D20003502809136029091370220E030E040E772
:104D300052E40E942E7E7B018C018FEF93E063E0B2
:104D400074E047E054E02BE034E00E947D440E9490
:104D5000D76180E090E0A0E2B1EC8093FF039093F4
:104D60000004A0930104B093020460911C027091AE
:104D70001D0280911E0290911F0220E030E040E071
:104D80005FE30E9407816093340270933502809341
:104D900036029093370220E030E040E752E40E9470
:104DA0002E7E7B018C018FEF93E063E074E047E09F
:104DB00054E02BE034E00E947D440E94D761809251
:104DC000CD039092CE03A092CF03B092D0038092F5
:104DD000FF0390920004A0920104B092020480921A
:104DE000340290923502A0923602B09237020E94AD
:104DF000006180913802882331F489E50E948F1D7B
:104E0000882309F4DAC00F2EF0E08F2EF0E09F2EF9
:104E1000F0E0AF2EF0E0BF2EF02D8092D103909203
:104E2000D203A092D303B092D4038DEC93E061ED52
:104E300073E045ED53E029ED33E00E94993F80E0B7
:104E400090E8AFE2B3EC8093030490930404A09342
:104E50000504B093060460912002709121028091B4
:104E60002202909123026093340270933502809362
:104E700036029093370220E030E040E752E40E948F
:104E80002E7E7B018C018FEF93E063E074E047E0BE
:104E900054E02BE034E0F9EECF2EF3E0DF2E0E9459
:104EA0007D440E94D7618092D1039092D203A09258
:104EB000D303B092D4038DEC93E061ED73E045ED44
:104EC00053E029ED33E00E94993F80E090E0A0EAB2
:104ED000B0E48093030490930404A0930504B0937A
:104EE00006046091340270913502809136029091EF
:104EF000370220E030E040E752E40E942E7E7B0142
:104F00008C018FEF93E063E074E047E054E02BE026
:104F100034E00E947D440E94D76180E090E0A0E2EE
:104F2000B1EC8093030490930404A0930504B09320
:104F300006046091200270912102809122029091DA
:104F4000230220E030E040E05FE30E9407816093AD
:104F5000340270933502809336029093370220E03A
:104F600030E040E752E40E942E7E7B018C018FEFFF
:104F700093E063E074E047E054E02BE034E00E940B
:104F80007D440E94D7618092D1039092D203A09277
:104F9000D303B092D4038092030490920404A092AD
:104FA0000504B09206048092340290923502A092D9
:104FB0003602B09237020E94006180913802882345
:104FC00031F48AE50E948F1D882309F4DAC00F2E80
:104FD000F0E08F2EF0E09F2EF0E0AF2EF0E0BF2E3D
:104FE000F02D8092D5039092D603A092D703B09271
:104FF000D8038DEC93E061ED73E045ED53E029EDCE
:1050000033E00E94993F80E090ECA0E1B3EC809304
:10501000070490930804A0930904B0930A046091D4
:1050200024027091250280912602909127026093BC
:10503000340270933502809336029093370220E059
:1050400030E040E752E40E942E7E7B018C018FEF1E
:1050500093E063E074E047E054E02BE034E0E9EEF5
:10506000CE2EE3E0DE2E0E947D440E94D761809226
:10507000D5039092D603A092D703B092D8038DECBB
:1050800093E061ED73E045ED53E029ED33E00E94DC
:10509000993F80E090E0A0E8BFE3809307049093FD
:1050A0000804A0930904B0930A046091340270913B
:1050B0003502809136029091370220E030E040E7DF
:1050C00052E40E942E7E7B018C018FEF93E063E01F
:1050D00074E047E054E02BE034E00E947D440E94FD
:1050E000D76180E090E0A0E0B0EC8093070490935B
:1050F0000804A0930904B0930A04609124027091FB
:105100002502809126029091270220E030E040E0C5
:105110005FE30E94078160933402709335028093AD
:1051200036029093370220E030E040E752E40E94DC
:105130002E7E7B018C018FEF93E063E074E047E00B
:1051400054E02BE034E00E947D440E94D7618092BD
:10515000D5039092D603A092D703B092D803809241
:10516000070490920804A0920904B0920A04809265
:10517000340290923502A0923602B09237020E9419
:10518000006188E50E948F1D8823C9F060DB6115EE
:1051900071058105910599F065DB2091DD03309162
:1051A000DE034091DF035091E0030E944E7D609347
:1051B000CD037093CE038093CF039093D00389E502
:1051C0000E948F1D8823C9F042DB6115710581059E
:1051D000910599F047DB2091E1033091E203409182
:1051E000E3035091E4030E944E7D6093D1037093DA
:1051F000D2038093D3039093D4038AE50E948F1D3A
:105200008823C9F024DB611571058105910599F0AA
:1052100029DB2091E5033091E6034091E7035091AB
:10522000E8030E944E7D6093D5037093D60380936C
:10523000D7039093D8038DEC93E061ED73E045EDD7
:1052400053E029ED33E00E94993F80E00E9407611E
:1052500080911E0490911F04A0912004B09121041C
:105260008093340290933502A0933602B0933702B4
:105270008091CA039091CB0390932D0280932C02CE
:105280000FB6F8948091B10D9091B20DA091B30D2D
:10529000B091B40D0FBE8093EB039093EC03A093F9
:1052A000ED03B093EE030E9400610C946034109201
:1052B0000F040C94603481E080930F040C946034EC
:1052C00085E40E948F1D882311F40E94D7617DEC34
:1052D000E72E73E0F72E6DEDC62E63E0D62E00E0CC
:1052E00010E0F801E45AFD4F80810E948F1D882351
:1052F00089F1B8DAF60120813181428153810E941F
:105300004E7DF7016083718382839383033059F468
:10531000A9DAF701608371838283938389ED93E037
:105320000E947C3F17C09EDAF601208131814281C4
:1053300053810E944E7DF701608371838283938342
:105340008DEC93E061ED73E045ED53E029ED33E042
:105350000E94993F0F5F1F4F44E050E0E40EF51E9E
:10536000C40ED51E0430110509F0BBCF0C94603477
:105370008DE40E948F1D882311F40C94C43372DADB
:105380000E94967E6A36710509F427C66B36710550
:105390000CF079C06C31710509F49BC16D31710558
:1053A000CCF56631710509F433C167317105BCF480
:1053B0006231710509F443C66331710534F461311A
:1053C000710511F00C946034EEC06431710509F47C
:1053D000F0C06531710511F00C94603413C169316E
:1053E000710509F44CC16A31710554F467317105D6
:1053F00009F414C16831710511F00C94603426C1B0
:105400006A31710509F441C16B31710511F00C94D9
:10541000603459C16335710509F40DC664357105F1
:10542000BCF46F31710509F4D5C16032710534F4F3
:105430006E31710511F00C94603487C16A327105C8
:1054400009F443C26235710511F00C946034F0C563
:105450006C35710509F452C66D35710554F4643527
:10546000710509F4ECC56535710511F00C946034D3
:105470002FC66836710509F467C26936710511F0E7
:105480000C946034C0C26D3C710511F40C944C3224
:105490006E3C7105CCF56737710509F436C768377E
:1054A0007105BCF46D36710509F439C36E367105AA
:1054B00034F46B36710511F00C946034B6C5623764
:1054C000710509F449C66337710511F00C94603415
:1054D00033C6693C710509F467C76A3C710554F429
:1054E0006C38710509F47CC26E3B710511F00C94A7
:1054F0006034BFC46B3C710509F490C76C3C710506
:1055000011F00C946034A8C751E06F32750711F4A4
:105510000C94A63381E0603378070CF56D3D71057E
:1055200011F40C94DA326E3D710564F46E3C710531
:1055300011F40C94AA326C3D710511F00C94603496
:105540000C94C83291E06D32790711F40C94E93271
:105550006E52714011F00C9460340C94A233F1E05F
:10556000653F7F0711F40C94BB3321E0663F72075F
:105570006CF441E06039740711F40C94B533645F46
:10558000714011F00C9460340C94B83381E0663FA4
:10559000780711F40C94BD33675F714011F00C94DF
:1055A00060340C94C13377987698479843980C945C
:1055B0006034E1EAF3E064918F0108C08AEB9DE07A
:1055C0000E94C90F0F5F1F4FF80164916623B1F766
:1055D0008AEB9DE06AE00E94C90F8CEE92E00E9487
:1055E0003918E3E9F3E064918F0108C08AEB9DE08C
:1055F0000E94C90F0F5F1F4FF80164916623B1F736
:105600000C945B348CEE92E00E947E140C94603417
:105610008CEE92E00E9436100C946034809122044B
:105620009091230404966AE270E00E94ED0CFC0164
:10563000009711F031971082609122047091230439
:105640006C5F7F4F8CEE92E041E07BC08CEE92E08D
:105650000E943A100FB6F8948091B10D9091B20D5E
:10566000A091B30DB091B40D0FBE8093240490931C
:105670002504A0932604B09327040C9460348CEE88
:1056800092E00E9441100C9460348091EE028823D5
:1056900011F40C94603483E50E948F1D882311F46B
:1056A0000C946034D4D8AB01BC014093BB0350933D
:1056B000BC038093BD037093BE0388E993E00E940E
:1056C000B5530C9460348CEE92E00E94E8100C9478
:1056D0006034809122049091230404966AE270E081
:1056E0000E94ED0C8C01009719F120911404309167
:1056F000150480E690E0AC01249FC001259F900D29
:10570000349F900D1124885D9B4F6EE470E00E94E1
:10571000ED0C60E270E00E94ED0C9C012F5F3F4FAA
:10572000309323042093220401501040F80110828A
:1057300060912204709123046C5F7F4F8CEE92E0A5
:1057400040E00E9447110C9460348091EE0288235F
:1057500011F40C9460348CEE92E00E9463108091FE
:1057600022049091230404966AE270E00E94ED0CFA
:105770008C01009719F1209114043091150480E6F2
:1057800090E0AC01249FC001259F900D349F900DA7
:105790001124885D9B4F6EE470E00E94ED0C60E286
:1057A00070E00E94ED0C9C012F5F3F4F309323046B
:1057B0002093220401501040F801108260912204CD
:1057C000709123046C5F7F4F8CEE92E00E9438133F
:1057D0000C9460340FB6F8946091B10D7091B20DD5
:1057E0008091B30D9091B40D0FBE6093A805709396
:1057F000A9058093AA059093AB05209124043091CC
:1058000025044091260450912704621B730B840BDE
:10581000950B28EE33E040E050E00E940B82F22E20
:10582000E32ED42EC52E4DB75EB7485050400FB66C
:10583000F8945EBF0FBE4DBF0DB71EB70F5F1F4F71
:10584000CE010196EDB7FEB79283818387E591E0A3
:10585000F801938382836F2D7E2D8D2D9C2D2CE35B
:1058600030E040E050E00E940B82F8013583248351
:105870006F2D7E2D8D2D9C2D2CE330E040E050E0EF
:105880000E940B82F801778366830E94360DE9E857
:10589000F2E064918F014DB75EB7485F5F4F0FB67E
:1058A000F8945EBF0FBE4DBF08C08AEB9DE00E941A
:1058B000C90F0F5F1F4FF80164916623B1F78AEBA0
:1058C0009DE0BE016F5F7F4F92C783E50E948F1DF1
:1058D000882309F4F5C70E9432247B018C0180E5FE
:1058E0000E948F1D882309F4EBC7C801B7010E94ED
:1058F000967E6B0177FF01C0E3C76F3F710511F022
:105900000CF0DEC70E9432240E94967E7B01E0E606
:10591000F2E0808191818E159F0509F4D1C73296FE
:1059200022E0E43DF207A9F7F7FE01C0C9C78E2DBA
:105930000E945775EE2DF0E00C2C0E9468758E2D9C
:10594000B6010E941277BCC78091E9038093AC0531
:1059500084E50E948F1D8823E1F00E9432240E947A
:105960009B7E6093AC056623A1F0E9E8F2E06491C8
:105970008F0108C08AEB9DE00E94C90F0F5F1F4F87
:10598000F80164916623B1F78AEB9DE066E671E069
:10599000EAC083E50E948F1D8823F9F00E9432241B
:1059A0006B017C01B090AC050B2D10E00E94967E3F
:1059B000DC01CB016B2D0E940C6F000F111FF80151
:1059C000ED59F24F91838083000F111F0559124F3B
:1059D000F801C082D182E282F3820E94596A70C7C4
:1059E00083E50E948F1D882309F46AC70E94322430
:1059F0000E94967EDC01CB010E9445699093660D62
:105A00008093650D5DC78091E9038093AC0584E5C3
:105A10000E948F1D8823E1F00E9432240E949B7E09
:105A20006093AC056623A1F0E9E8F2E064918F0190
:105A300008C08AEB9DE00E94C90F0F5F1F4FF8015D
:105A400064916623B1F78AEB9DE06DE771E08BC04E
:105A5000EDE8F3E064918F0108C08AEB9DE00E94BD
:105A6000C90F0F5F1F4FF80164916623B1F7609172
:105A7000AC05E62FF0E0EE0FFF1FE959F24F8081F1
:105A800091810E94326CAB01BC018AEB9DE022E067
:105A90000E94B97AE9E8F3E064918F0108C08AEBCB
:105AA0009DE00E94C90F0F5F1F4FF80164916623AC
:105AB000B1F78091690D90916A0D0E94A669AB01C2
:105AC000BC018AEB9DE022E00E94B97AE5E8F3E0B0
:105AD00064918F0108C08AEB9DE00E94C90F0F5F9F
